{
  "_format": "hh-sol-artifact-1",
  "contractName": "InsurancePolicyContract",
  "sourceName": "contracts/InsurancePolicyContract.sol",
  "abi": [
    {
      "inputs": [],
      "stateMutability": "nonpayable",
      "type": "constructor"
    },
    {
      "anonymous": false,
      "inputs": [
        {
          "indexed": true,
          "internalType": "uint256",
          "name": "policyId",
          "type": "uint256"
        },
        {
          "indexed": true,
          "internalType": "uint256",
          "name": "claimId",
          "type": "uint256"
        }
      ],
      "name": "ClaimAssociated",
      "type": "event"
    },
    {
      "anonymous": false,
      "inputs": [
        {
          "indexed": true,
          "internalType": "address",
          "name": "previousOwner",
          "type": "address"
        },
        {
          "indexed": true,
          "internalType": "address",
          "name": "newOwner",
          "type": "address"
        }
      ],
      "name": "OwnershipTransferred",
      "type": "event"
    },
    {
      "anonymous": false,
      "inputs": [
        {
          "indexed": true,
          "internalType": "uint256",
          "name": "policyId",
          "type": "uint256"
        },
        {
          "indexed": true,
          "internalType": "address",
          "name": "usersVechice",
          "type": "address"
        },
        {
          "indexed": false,
          "internalType": "uint256",
          "name": "moneyBalance",
          "type": "uint256"
        },
        {
          "indexed": false,
          "internalType": "uint256",
          "name": "timestamp",
          "type": "uint256"
        },
        {
          "indexed": false,
          "internalType": "uint256",
          "name": "endTime",
          "type": "uint256"
        },
        {
          "indexed": false,
          "internalType": "bool",
          "name": "monthlyPaid",
          "type": "bool"
        }
      ],
      "name": "PaymentMade",
      "type": "event"
    },
    {
      "anonymous": false,
      "inputs": [
        {
          "indexed": true,
          "internalType": "uint256",
          "name": "policyId",
          "type": "uint256"
        },
        {
          "indexed": true,
          "internalType": "address",
          "name": "owner",
          "type": "address"
        },
        {
          "indexed": false,
          "internalType": "uint256",
          "name": "premiumAmount",
          "type": "uint256"
        }
      ],
      "name": "PolicyCreated",
      "type": "event"
    },
    {
      "anonymous": false,
      "inputs": [
        {
          "indexed": true,
          "internalType": "uint256",
          "name": "policyId",
          "type": "uint256"
        },
        {
          "indexed": false,
          "internalType": "enum InsurancePolicyContract.PolicyStatus",
          "name": "status",
          "type": "uint8"
        }
      ],
      "name": "PolicyStatusUpdated",
      "type": "event"
    },
    {
      "inputs": [
        {
          "internalType": "uint256",
          "name": "_policyId",
          "type": "uint256"
        },
        {
          "internalType": "uint256",
          "name": "_claimId",
          "type": "uint256"
        }
      ],
      "name": "associateClaim",
      "outputs": [],
      "stateMutability": "nonpayable",
      "type": "function"
    },
    {
      "inputs": [],
      "name": "checkOwnership",
      "outputs": [
        {
          "internalType": "bool",
          "name": "",
          "type": "bool"
        }
      ],
      "stateMutability": "view",
      "type": "function"
    },
    {
      "inputs": [
        {
          "internalType": "uint256",
          "name": "currentTimestamp",
          "type": "uint256"
        }
      ],
      "name": "checkPaymentPeriod",
      "outputs": [
        {
          "internalType": "bool",
          "name": "",
          "type": "bool"
        }
      ],
      "stateMutability": "view",
      "type": "function"
    },
    {
      "inputs": [],
      "name": "conowner",
      "outputs": [
        {
          "internalType": "address",
          "name": "",
          "type": "address"
        }
      ],
      "stateMutability": "view",
      "type": "function"
    },
    {
      "inputs": [
        {
          "internalType": "uint256",
          "name": "_premiumAmount",
          "type": "uint256"
        },
        {
          "internalType": "string",
          "name": "_dataUrl",
          "type": "string"
        }
      ],
      "name": "createPolicy",
      "outputs": [],
      "stateMutability": "nonpayable",
      "type": "function"
    },
    {
      "inputs": [
        {
          "internalType": "address",
          "name": "_owner",
          "type": "address"
        }
      ],
      "name": "getInsurancePoliciesByOwner",
      "outputs": [
        {
          "internalType": "uint256[]",
          "name": "",
          "type": "uint256[]"
        }
      ],
      "stateMutability": "view",
      "type": "function"
    },
    {
      "inputs": [
        {
          "internalType": "uint256",
          "name": "_policyId",
          "type": "uint256"
        }
      ],
      "name": "getPolicy",
      "outputs": [
        {
          "internalType": "uint256",
          "name": "policyId",
          "type": "uint256"
        },
        {
          "internalType": "address",
          "name": "owner",
          "type": "address"
        },
        {
          "internalType": "uint256",
          "name": "premiumAmount",
          "type": "uint256"
        },
        {
          "internalType": "enum InsurancePolicyContract.PolicyStatus",
          "name": "status",
          "type": "uint8"
        },
        {
          "internalType": "uint256[]",
          "name": "claimIds",
          "type": "uint256[]"
        }
      ],
      "stateMutability": "view",
      "type": "function"
    },
    {
      "inputs": [],
      "name": "listAllUserPayments",
      "outputs": [
        {
          "components": [
            {
              "internalType": "uint256",
              "name": "paymentId",
              "type": "uint256"
            },
            {
              "internalType": "uint256",
              "name": "policyId",
              "type": "uint256"
            },
            {
              "internalType": "address",
              "name": "usersVechice",
              "type": "address"
            },
            {
              "internalType": "uint256",
              "name": "moneyBalance",
              "type": "uint256"
            },
            {
              "internalType": "uint256",
              "name": "timestamp",
              "type": "uint256"
            },
            {
              "internalType": "uint256",
              "name": "endtime",
              "type": "uint256"
            },
            {
              "internalType": "bool",
              "name": "monthlyPaid",
              "type": "bool"
            }
          ],
          "internalType": "struct InsurancePolicyContract.UserPayment[]",
          "name": "",
          "type": "tuple[]"
        }
      ],
      "stateMutability": "view",
      "type": "function"
    },
    {
      "inputs": [],
      "name": "listInsurancePolicies",
      "outputs": [
        {
          "components": [
            {
              "internalType": "uint256",
              "name": "policyId",
              "type": "uint256"
            },
            {
              "internalType": "address",
              "name": "owner",
              "type": "address"
            },
            {
              "internalType": "uint256",
              "name": "premiumAmount",
              "type": "uint256"
            },
            {
              "internalType": "string",
              "name": "dataUrl",
              "type": "string"
            },
            {
              "internalType": "enum InsurancePolicyContract.PolicyStatus",
              "name": "status",
              "type": "uint8"
            },
            {
              "internalType": "bool",
              "name": "isRegistered",
              "type": "bool"
            },
            {
              "internalType": "uint256[]",
              "name": "claimIds",
              "type": "uint256[]"
            }
          ],
          "internalType": "struct InsurancePolicyContract.PolicyInfo[]",
          "name": "",
          "type": "tuple[]"
        }
      ],
      "stateMutability": "view",
      "type": "function"
    },
    {
      "inputs": [
        {
          "internalType": "uint256",
          "name": "_policyId",
          "type": "uint256"
        }
      ],
      "name": "monthlyAmountofPolicy",
      "outputs": [
        {
          "internalType": "uint256",
          "name": "",
          "type": "uint256"
        }
      ],
      "stateMutability": "view",
      "type": "function"
    },
    {
      "inputs": [
        {
          "internalType": "uint256",
          "name": "_policyId",
          "type": "uint256"
        }
      ],
      "name": "monthlyPayment",
      "outputs": [],
      "stateMutability": "payable",
      "type": "function"
    },
    {
      "inputs": [],
      "name": "owner",
      "outputs": [
        {
          "internalType": "address",
          "name": "",
          "type": "address"
        }
      ],
      "stateMutability": "view",
      "type": "function"
    },
    {
      "inputs": [
        {
          "internalType": "uint256",
          "name": "",
          "type": "uint256"
        }
      ],
      "name": "payments",
      "outputs": [
        {
          "internalType": "uint256",
          "name": "paymentId",
          "type": "uint256"
        },
        {
          "internalType": "uint256",
          "name": "policyId",
          "type": "uint256"
        },
        {
          "internalType": "address",
          "name": "usersVechice",
          "type": "address"
        },
        {
          "internalType": "uint256",
          "name": "moneyBalance",
          "type": "uint256"
        },
        {
          "internalType": "uint256",
          "name": "timestamp",
          "type": "uint256"
        },
        {
          "internalType": "uint256",
          "name": "endtime",
          "type": "uint256"
        },
        {
          "internalType": "bool",
          "name": "monthlyPaid",
          "type": "bool"
        }
      ],
      "stateMutability": "view",
      "type": "function"
    },
    {
      "inputs": [
        {
          "internalType": "uint256",
          "name": "_policyId",
          "type": "uint256"
        }
      ],
      "name": "policyExists",
      "outputs": [
        {
          "internalType": "bool",
          "name": "",
          "type": "bool"
        }
      ],
      "stateMutability": "view",
      "type": "function"
    },
    {
      "inputs": [],
      "name": "renounceOwnership",
      "outputs": [],
      "stateMutability": "nonpayable",
      "type": "function"
    },
    {
      "inputs": [
        {
          "internalType": "address",
          "name": "newOwner",
          "type": "address"
        }
      ],
      "name": "transferOwnership",
      "outputs": [],
      "stateMutability": "nonpayable",
      "type": "function"
    },
    {
      "inputs": [
        {
          "internalType": "uint256",
          "name": "index",
          "type": "uint256"
        }
      ],
      "name": "updateNextTime",
      "outputs": [
        {
          "internalType": "string",
          "name": "",
          "type": "string"
        }
      ],
      "stateMutability": "nonpayable",
      "type": "function"
    },
    {
      "inputs": [
        {
          "internalType": "uint256",
          "name": "_policyId",
          "type": "uint256"
        },
        {
          "internalType": "enum InsurancePolicyContract.PolicyStatus",
          "name": "_status",
          "type": "uint8"
        }
      ],
      "name": "updatePolicyStatus",
      "outputs": [],
      "stateMutability": "nonpayable",
      "type": "function"
    },
    {
      "inputs": [
        {
          "internalType": "address",
          "name": "user",
          "type": "address"
        }
      ],
      "name": "userpaymentId",
      "outputs": [
        {
          "internalType": "uint256",
          "name": "",
          "type": "uint256"
        }
      ],
      "stateMutability": "view",
      "type": "function"
    },
    {
      "inputs": [
        {
          "internalType": "address",
          "name": "",
          "type": "address"
        }
      ],
      "name": "userpaysinfo",
      "outputs": [
        {
          "internalType": "uint256",
          "name": "paymentId",
          "type": "uint256"
        },
        {
          "internalType": "uint256",
          "name": "policyId",
          "type": "uint256"
        }
      ],
      "stateMutability": "view",
      "type": "function"
    }
  ],
  "bytecode": "0x608060405260016007553480156200001657600080fd5b50620000376200002b6200008f60201b60201c565b6200009760201b60201c565b62000048336200015b60201b60201c565b33600360006101000a81548173ffffffffffffffffffffffffffffffffffffffff021916908373ffffffffffffffffffffffffffffffffffffffff160217905550620003c7565b600033905090565b60008060009054906101000a900473ffffffffffffffffffffffffffffffffffffffff169050816000806101000a81548173ffffffffffffffffffffffffffffffffffffffff021916908373ffffffffffffffffffffffffffffffffffffffff1602179055508173ffffffffffffffffffffffffffffffffffffffff168173ffffffffffffffffffffffffffffffffffffffff167f8be0079c531659141344cd1fd0a4f28419497f9722a3daafe3b4186f6b6457e060405160405180910390a35050565b6200016b620001f260201b60201c565b600073ffffffffffffffffffffffffffffffffffffffff168173ffffffffffffffffffffffffffffffffffffffff161415620001de576040517f08c379a0000000000000000000000000000000000000000000000000000000008152600401620001d590620002fa565b60405180910390fd5b620001ef816200009760201b60201c565b50565b620002026200008f60201b60201c565b73ffffffffffffffffffffffffffffffffffffffff16620002286200028360201b60201c565b73ffffffffffffffffffffffffffffffffffffffff161462000281576040517f08c379a000000000000000000000000000000000000000000000000000000000815260040162000278906200031c565b60405180910390fd5b565b60008060009054906101000a900473ffffffffffffffffffffffffffffffffffffffff16905090565b6000620002bb6026836200033e565b9150620002c8826200034f565b604082019050919050565b6000620002e26020836200033e565b9150620002ef826200039e565b602082019050919050565b600060208201905081810360008301526200031581620002ac565b9050919050565b600060208201905081810360008301526200033781620002d3565b9050919050565b600082825260208201905092915050565b7f4f776e61626c653a206e6577206f776e657220697320746865207a65726f206160008201527f6464726573730000000000000000000000000000000000000000000000000000602082015250565b7f4f776e61626c653a2063616c6c6572206973206e6f7420746865206f776e6572600082015250565b612d3880620003d76000396000f3fe60806040526004361061011f5760003560e01c80638da5cb5b116100a0578063bc047c4911610064578063bc047c491461041d578063d367a1571461045a578063dc0e042214610483578063e005cb3a146104ae578063f2fde38b146104d95761011f565b80638da5cb5b1461033257806394043d341461035d57806394e3f5a114610379578063a1fbc9da146103b6578063b963a5d1146103f45761011f565b80636a3f198c116100e75780636a3f198c14610235578063715018a614610272578063837f57461461028957806387d81789146102b25780638d08ed33146102f55761011f565b80630fe92cae14610124578063219a1d77146101615780632b07fce31461018c5780632f06c573146101cd5780636956e642146101f8575b600080fd5b34801561013057600080fd5b5061014b60048036038101906101469190611dad565b610502565b6040516101589190612406565b60405180910390f35b34801561016d57600080fd5b5061017661052f565b6040516101839190612406565b60405180910390f35b34801561019857600080fd5b506101b360048036038101906101ae9190611dad565b610587565b6040516101c4959493929190612559565b60405180910390f35b3480156101d957600080fd5b506101e2610651565b6040516101ef9190612385565b60405180910390f35b34801561020457600080fd5b5061021f600480360381019061021a9190611d84565b610677565b60405161022c91906123e4565b60405180910390f35b34801561024157600080fd5b5061025c60048036038101906102579190611dad565b6107f2565b6040516102699190612406565b60405180910390f35b34801561027e57600080fd5b506102876108c2565b005b34801561029557600080fd5b506102b060048036038101906102ab9190611e66565b6108d6565b005b3480156102be57600080fd5b506102d960048036038101906102d49190611dad565b6109df565b6040516102ec97969594939291906125dc565b60405180910390f35b34801561030157600080fd5b5061031c60048036038101906103179190611dad565b610a4e565b604051610329919061243c565b60405180910390f35b34801561033e57600080fd5b50610347610b28565b6040516103549190612385565b60405180910390f35b61037760048036038101906103729190611dad565b610b51565b005b34801561038557600080fd5b506103a0600480360381019061039b9190611dad565b610f4b565b6040516103ad919061253e565b60405180910390f35b3480156103c257600080fd5b506103dd60048036038101906103d89190611d84565b610f7c565b6040516103eb9291906125b3565b60405180910390f35b34801561040057600080fd5b5061041b60048036038101906104169190611dd6565b610fa0565b005b34801561042957600080fd5b50610444600480360381019061043f9190611d84565b6110e2565b604051610451919061253e565b60405180910390f35b34801561046657600080fd5b50610481600480360381019061047c9190611e12565b61112e565b005b34801561048f57600080fd5b506104986113fa565b6040516104a591906123c2565b60405180910390f35b3480156104ba57600080fd5b506104c36115e0565b6040516104d091906123a0565b60405180910390f35b3480156104e557600080fd5b5061050060048036038101906104fb9190611d84565b611919565b005b60006005600083815260200190815260200160002060040160019054906101000a900460ff169050919050565b60003373ffffffffffffffffffffffffffffffffffffffff16600360009054906101000a900473ffffffffffffffffffffffffffffffffffffffff1673ffffffffffffffffffffffffffffffffffffffff1614905090565b6000806000806060600060056000888152602001908152602001600020905080600001548160010160009054906101000a900473ffffffffffffffffffffffffffffffffffffffff1682600201548360040160009054906101000a900460ff16846005018080548060200260200160405190810160405280929190818152602001828054801561063657602002820191906000526020600020905b815481526020019060010190808311610622575b50505050509050955095509550955095505091939590929450565b600360009054906101000a900473ffffffffffffffffffffffffffffffffffffffff1681565b6060600060075467ffffffffffffffff8111156106bd577f4e487b7100000000000000000000000000000000000000000000000000000000600052604160045260246000fd5b6040519080825280602002602001820160405280156106eb5781602001602082028036833780820191505090505b5090506000805b6007548110156107e4578473ffffffffffffffffffffffffffffffffffffffff166005600083815260200190815260200160002060010160009054906101000a900473ffffffffffffffffffffffffffffffffffffffff1673ffffffffffffffffffffffffffffffffffffffff1614156107d15760056000828152602001908152602001600020600001548383815181106107b6577f4e487b7100000000000000000000000000000000000000000000000000000000600052603260045260246000fd5b60200260200101818152505081806107cd90612968565b9250505b80806107dc90612968565b9150506106f2565b508082528192505050919050565b6000806107ff600261199d565b90506000600190505b8181116108b6573373ffffffffffffffffffffffffffffffffffffffff166004600083815260200190815260200160002060020160009054906101000a900473ffffffffffffffffffffffffffffffffffffffff1673ffffffffffffffffffffffffffffffffffffffff1614156108a35783600460008381526020019081526020016000206005015414156108a2576001925050506108bd565b5b80806108ae90612968565b915050610808565b5060009150505b919050565b6108ca6119ab565b6108d46000611a29565b565b6000600560008481526020019081526020016000209050600073ffffffffffffffffffffffffffffffffffffffff168160010160009054906101000a900473ffffffffffffffffffffffffffffffffffffffff1673ffffffffffffffffffffffffffffffffffffffff161415610981576040517f08c379a00000000000000000000000000000000000000000000000000000000081526004016109789061251e565b60405180910390fd5b8060050182908060018154018082558091505060019003906000526020600020016000909190919091505581837f6209d5e57427b535a493ae090f045c5a41900a11fa9105e1a4753629e410d33260405160405180910390a3505050565b60046020528060005260406000206000915090508060000154908060010154908060020160009054906101000a900473ffffffffffffffffffffffffffffffffffffffff16908060030154908060040154908060050154908060060160009054906101000a900460ff16905087565b60606004600083815260200190815260200160002060050154421115610aea5762278d006004600084815260200190815260200160002060050154610a9391906127cf565b60046000848152602001908152602001600020600501819055506040518060400160405280601781526020017f706179207468657365206d6f6e7468207061796d656e740000000000000000008152509050610b23565b6040518060400160405280601b81526020017f596f7572207061796d656e74206973206e6f742064756520796574000000000081525090505b919050565b60008060009054906101000a900473ffffffffffffffffffffffffffffffffffffffff16905090565b6000600a6005600084815260200190815260200160002060020154610b769190612825565b9050803414610bba576040517f08c379a0000000000000000000000000000000000000000000000000000000008152600401610bb1906124be565b60405180910390fd5b6000610bc5336110e2565b90506000600460008381526020019081526020016000206005015414610c3e5760046000828152602001908152602001600020600501544211610c3d576040517f08c379a0000000000000000000000000000000000000000000000000000000008152600401610c349061245e565b60405180910390fd5b5b610c486002611aed565b6000610c54600261199d565b905082600460008481526020019081526020016000206003016000828254610c7c91906127cf565b925050819055506000600460008481526020019081526020016000206003015490506005600086815260200190815260200160002060020154811115610cf7576040517f08c379a0000000000000000000000000000000000000000000000000000000008152600401610cee906124de565b60405180910390fd5b600062278d0042610d0891906127cf565b90506040518060e001604052808481526020018781526020013373ffffffffffffffffffffffffffffffffffffffff1681526020018381526020014281526020018281526020016001151581525060046000858152602001908152602001600020600082015181600001556020820151816001015560408201518160020160006101000a81548173ffffffffffffffffffffffffffffffffffffffff021916908373ffffffffffffffffffffffffffffffffffffffff160217905550606082015181600301556080820151816004015560a0820151816005015560c08201518160060160006101000a81548160ff021916908315150217905550905050604051806040016040528084815260200187815250600660003373ffffffffffffffffffffffffffffffffffffffff1673ffffffffffffffffffffffffffffffffffffffff16815260200190815260200160002060008201518160000155602082015181600101559050503373ffffffffffffffffffffffffffffffffffffffff16867f4e7745f719c82aad5e35ff7c78f6753527f8c88fa963dc96c8d0a13f67ad10028742856001604051610ebe949392919061264b565b60405180910390a36005600087815260200190815260200160002060010160009054906101000a900473ffffffffffffffffffffffffffffffffffffffff1673ffffffffffffffffffffffffffffffffffffffff166108fc349081150290604051600060405180830381858888f19350505050158015610f42573d6000803e3d6000fd5b50505050505050565b600080600a6005600085815260200190815260200160002060020154610f719190612825565b905080915050919050565b60066020528060005260406000206000915090508060000154908060010154905082565b610fa86119ab565b6000600560008481526020019081526020016000209050600073ffffffffffffffffffffffffffffffffffffffff168160010160009054906101000a900473ffffffffffffffffffffffffffffffffffffffff1673ffffffffffffffffffffffffffffffffffffffff161415611053576040517f08c379a000000000000000000000000000000000000000000000000000000000815260040161104a9061251e565b60405180910390fd5b818160040160006101000a81548160ff021916908360018111156110a0577f4e487b7100000000000000000000000000000000000000000000000000000000600052602160045260246000fd5b0217905550827fddba6ca814ce3f0cb8c9b4b44e5e1891ef8c2857746e6b7453464abc1539209b836040516110d59190612421565b60405180910390a2505050565b6000600660008373ffffffffffffffffffffffffffffffffffffffff1673ffffffffffffffffffffffffffffffffffffffff168152602001908152602001600020600001549050919050565b6111366119ab565b6111406001611aed565b60008211611183576040517f08c379a000000000000000000000000000000000000000000000000000000000815260040161117a9061249e565b60405180910390fd5b600061118f600161199d565b90506040518060e001604052808281526020013373ffffffffffffffffffffffffffffffffffffffff16815260200184815260200183815260200160006001811115611204577f4e487b7100000000000000000000000000000000000000000000000000000000600052602160045260246000fd5b8152602001600115158152602001600067ffffffffffffffff811115611253577f4e487b7100000000000000000000000000000000000000000000000000000000600052604160045260246000fd5b6040519080825280602002602001820160405280156112815781602001602082028036833780820191505090505b50815250600560008381526020019081526020016000206000820151816000015560208201518160010160006101000a81548173ffffffffffffffffffffffffffffffffffffffff021916908373ffffffffffffffffffffffffffffffffffffffff16021790555060408201518160020155606082015181600301908051906020019061130f929190611b0b565b5060808201518160040160006101000a81548160ff02191690836001811115611361577f4e487b7100000000000000000000000000000000000000000000000000000000600052602160045260246000fd5b021790555060a08201518160040160016101000a81548160ff02191690831515021790555060c08201518160050190805190602001906113a2929190611b91565b509050503373ffffffffffffffffffffffffffffffffffffffff16817f601882301d3e3fce7fe3a99d4bb17ef5b6699b417bdd29f2bfb82e19fcbcb660856040516113ed919061253e565b60405180910390a3505050565b60606000611408600161199d565b905060008167ffffffffffffffff81111561144c577f4e487b7100000000000000000000000000000000000000000000000000000000600052604160045260246000fd5b60405190808252806020026020018201604052801561148557816020015b611472611bde565b81526020019060019003908161146a5790505b50905060008080600090505b848110156115d5576001816114a691906127cf565b91506000600460008481526020019081526020016000209050806040518060e001604052908160008201548152602001600182015481526020016002820160009054906101000a900473ffffffffffffffffffffffffffffffffffffffff1673ffffffffffffffffffffffffffffffffffffffff1673ffffffffffffffffffffffffffffffffffffffff1681526020016003820154815260200160048201548152602001600582015481526020016006820160009054906101000a900460ff1615151515815250508585815181106115a7577f4e487b7100000000000000000000000000000000000000000000000000000000600052603260045260246000fd5b60200260200101819052506001846115bf91906127cf565b93505080806115cd90612968565b915050611491565b508294505050505090565b606060006115ee600161199d565b905060008167ffffffffffffffff811115611632577f4e487b7100000000000000000000000000000000000000000000000000000000600052604160045260246000fd5b60405190808252806020026020018201604052801561166b57816020015b611658611c33565b8152602001906001900390816116505790505b50905060008080600090505b8481101561190e5760018161168c91906127cf565b91506000600560008481526020019081526020016000209050806040518060e0016040529081600082015481526020016001820160009054906101000a900473ffffffffffffffffffffffffffffffffffffffff1673ffffffffffffffffffffffffffffffffffffffff1673ffffffffffffffffffffffffffffffffffffffff1681526020016002820154815260200160038201805461172b90612905565b80601f016020809104026020016040519081016040528092919081815260200182805461175790612905565b80156117a45780601f10611779576101008083540402835291602001916117a4565b820191906000526020600020905b81548152906001019060200180831161178757829003601f168201915b505050505081526020016004820160009054906101000a900460ff1660018111156117f8577f4e487b7100000000000000000000000000000000000000000000000000000000600052602160045260246000fd5b6001811115611830577f4e487b7100000000000000000000000000000000000000000000000000000000600052602160045260246000fd5b81526020016004820160019054906101000a900460ff161515151581526020016005820180548060200260200160405190810160405280929190818152602001828054801561189e57602002820191906000526020600020905b81548152602001906001019080831161188a575b5050505050815250508585815181106118e0577f4e487b7100000000000000000000000000000000000000000000000000000000600052603260045260246000fd5b60200260200101819052506001846118f891906127cf565b935050808061190690612968565b915050611677565b508294505050505090565b6119216119ab565b600073ffffffffffffffffffffffffffffffffffffffff168173ffffffffffffffffffffffffffffffffffffffff161415611991576040517f08c379a00000000000000000000000000000000000000000000000000000000081526004016119889061247e565b60405180910390fd5b61199a81611a29565b50565b600081600001549050919050565b6119b3611b03565b73ffffffffffffffffffffffffffffffffffffffff166119d1610b28565b73ffffffffffffffffffffffffffffffffffffffff1614611a27576040517f08c379a0000000000000000000000000000000000000000000000000000000008152600401611a1e906124fe565b60405180910390fd5b565b60008060009054906101000a900473ffffffffffffffffffffffffffffffffffffffff169050816000806101000a81548173ffffffffffffffffffffffffffffffffffffffff021916908373ffffffffffffffffffffffffffffffffffffffff1602179055508173ffffffffffffffffffffffffffffffffffffffff168173ffffffffffffffffffffffffffffffffffffffff167f8be0079c531659141344cd1fd0a4f28419497f9722a3daafe3b4186f6b6457e060405160405180910390a35050565b6001816000016000828254019250508190555050565b600033905090565b828054611b1790612905565b90600052602060002090601f016020900481019282611b395760008555611b80565b82601f10611b5257805160ff1916838001178555611b80565b82800160010185558215611b80579182015b82811115611b7f578251825591602001919060010190611b64565b5b509050611b8d9190611cc0565b5090565b828054828255906000526020600020908101928215611bcd579160200282015b82811115611bcc578251825591602001919060010190611bb1565b5b509050611bda9190611cc0565b5090565b6040518060e001604052806000815260200160008152602001600073ffffffffffffffffffffffffffffffffffffffff1681526020016000815260200160008152602001600081526020016000151581525090565b6040518060e0016040528060008152602001600073ffffffffffffffffffffffffffffffffffffffff168152602001600081526020016060815260200160006001811115611caa577f4e487b7100000000000000000000000000000000000000000000000000000000600052602160045260246000fd5b8152602001600015158152602001606081525090565b5b80821115611cd9576000816000905550600101611cc1565b5090565b6000611cf0611ceb846126b5565b612690565b905082815260208101848484011115611d0857600080fd5b611d138482856128c3565b509392505050565b600081359050611d2a81612cc4565b92915050565b600081359050611d3f81612cdb565b92915050565b600082601f830112611d5657600080fd5b8135611d66848260208601611cdd565b91505092915050565b600081359050611d7e81612ceb565b92915050565b600060208284031215611d9657600080fd5b6000611da484828501611d1b565b91505092915050565b600060208284031215611dbf57600080fd5b6000611dcd84828501611d6f565b91505092915050565b60008060408385031215611de957600080fd5b6000611df785828601611d6f565b9250506020611e0885828601611d30565b9150509250929050565b60008060408385031215611e2557600080fd5b6000611e3385828601611d6f565b925050602083013567ffffffffffffffff811115611e5057600080fd5b611e5c85828601611d45565b9150509250929050565b60008060408385031215611e7957600080fd5b6000611e8785828601611d6f565b9250506020611e9885828601611d6f565b9150509250929050565b6000611eae8383612236565b905092915050565b6000611ec283836122d9565b60e08301905092915050565b6000611eda8383612367565b60208301905092915050565b611eef81612856565b82525050565b611efe81612856565b82525050565b6000611f0f82612716565b611f198185612769565b935083602082028501611f2b856126e6565b8060005b85811015611f675784840389528151611f488582611ea2565b9450611f5383612742565b925060208a01995050600181019050611f2f565b50829750879550505050505092915050565b6000611f8482612721565b611f8e818561277a565b9350611f99836126f6565b8060005b83811015611fca578151611fb18882611eb6565b9750611fbc8361274f565b925050600181019050611f9d565b5085935050505092915050565b6000611fe28261272c565b611fec818561278b565b9350611ff783612706565b8060005b8381101561202857815161200f8882611ece565b975061201a8361275c565b925050600181019050611ffb565b5085935050505092915050565b60006120408261272c565b61204a818561279c565b935061205583612706565b8060005b8381101561208657815161206d8882611ece565b97506120788361275c565b925050600181019050612059565b5085935050505092915050565b61209c81612868565b82525050565b6120ab81612868565b82525050565b6120ba816128b1565b82525050565b6120c9816128b1565b82525050565b60006120da82612737565b6120e481856127ad565b93506120f48185602086016128d2565b6120fd81612a9c565b840191505092915050565b600061211382612737565b61211d81856127be565b935061212d8185602086016128d2565b61213681612a9c565b840191505092915050565b600061214e6023836127be565b915061215982612aad565b604082019050919050565b60006121716026836127be565b915061217c82612afc565b604082019050919050565b60006121946028836127be565b915061219f82612b4b565b604082019050919050565b60006121b7602b836127be565b91506121c282612b9a565b604082019050919050565b60006121da6043836127be565b91506121e582612be9565b606082019050919050565b60006121fd6020836127be565b915061220882612c5e565b602082019050919050565b60006122206015836127be565b915061222b82612c87565b602082019050919050565b600060e08301600083015161224e6000860182612367565b5060208301516122616020860182611ee6565b5060408301516122746040860182612367565b506060830151848203606086015261228c82826120cf565b91505060808301516122a160808601826120b1565b5060a08301516122b460a0860182612093565b5060c083015184820360c08601526122cc8282611fd7565b9150508091505092915050565b60e0820160008201516122ef6000850182612367565b5060208201516123026020850182612367565b5060408201516123156040850182611ee6565b5060608201516123286060850182612367565b50608082015161233b6080850182612367565b5060a082015161234e60a0850182612367565b5060c082015161236160c0850182612093565b50505050565b612370816128a7565b82525050565b61237f816128a7565b82525050565b600060208201905061239a6000830184611ef5565b92915050565b600060208201905081810360008301526123ba8184611f04565b905092915050565b600060208201905081810360008301526123dc8184611f79565b905092915050565b600060208201905081810360008301526123fe8184612035565b905092915050565b600060208201905061241b60008301846120a2565b92915050565b600060208201905061243660008301846120c0565b92915050565b600060208201905081810360008301526124568184612108565b905092915050565b6000602082019050818103600083015261247781612141565b9050919050565b6000602082019050818103600083015261249781612164565b9050919050565b600060208201905081810360008301526124b781612187565b9050919050565b600060208201905081810360008301526124d7816121aa565b9050919050565b600060208201905081810360008301526124f7816121cd565b9050919050565b60006020820190508181036000830152612517816121f0565b9050919050565b6000602082019050818103600083015261253781612213565b9050919050565b60006020820190506125536000830184612376565b92915050565b600060a08201905061256e6000830188612376565b61257b6020830187611ef5565b6125886040830186612376565b61259560608301856120c0565b81810360808301526125a78184612035565b90509695505050505050565b60006040820190506125c86000830185612376565b6125d56020830184612376565b9392505050565b600060e0820190506125f1600083018a612376565b6125fe6020830189612376565b61260b6040830188611ef5565b6126186060830187612376565b6126256080830186612376565b61263260a0830185612376565b61263f60c08301846120a2565b98975050505050505050565b60006080820190506126606000830187612376565b61266d6020830186612376565b61267a6040830185612376565b61268760608301846120a2565b95945050505050565b600061269a6126ab565b90506126a68282612937565b919050565b6000604051905090565b600067ffffffffffffffff8211156126d0576126cf612a6d565b5b6126d982612a9c565b9050602081019050919050565b6000819050602082019050919050565b6000819050602082019050919050565b6000819050602082019050919050565b600081519050919050565b600081519050919050565b600081519050919050565b600081519050919050565b6000602082019050919050565b6000602082019050919050565b6000602082019050919050565b600082825260208201905092915050565b600082825260208201905092915050565b600082825260208201905092915050565b600082825260208201905092915050565b600082825260208201905092915050565b600082825260208201905092915050565b60006127da826128a7565b91506127e5836128a7565b9250827fffffffffffffffffffffffffffffffffffffffffffffffffffffffffffffffff0382111561281a576128196129b1565b5b828201905092915050565b6000612830826128a7565b915061283b836128a7565b92508261284b5761284a6129e0565b5b828204905092915050565b600061286182612887565b9050919050565b60008115159050919050565b600081905061288282612cb0565b919050565b600073ffffffffffffffffffffffffffffffffffffffff82169050919050565b6000819050919050565b60006128bc82612874565b9050919050565b82818337600083830152505050565b60005b838110156128f05780820151818401526020810190506128d5565b838111156128ff576000848401525b50505050565b6000600282049050600182168061291d57607f821691505b6020821081141561293157612930612a3e565b5b50919050565b61294082612a9c565b810181811067ffffffffffffffff8211171561295f5761295e612a6d565b5b80604052505050565b6000612973826128a7565b91507fffffffffffffffffffffffffffffffffffffffffffffffffffffffffffffffff8214156129a6576129a56129b1565b5b600182019050919050565b7f4e487b7100000000000000000000000000000000000000000000000000000000600052601160045260246000fd5b7f4e487b7100000000000000000000000000000000000000000000000000000000600052601260045260246000fd5b7f4e487b7100000000000000000000000000000000000000000000000000000000600052602160045260246000fd5b7f4e487b7100000000000000000000000000000000000000000000000000000000600052602260045260246000fd5b7f4e487b7100000000000000000000000000000000000000000000000000000000600052604160045260246000fd5b6000601f19601f8301169050919050565b7f596f7572206d6f6e74686c79207061796d656e74206973206e6f74206475652060008201527f7965740000000000000000000000000000000000000000000000000000000000602082015250565b7f4f776e61626c653a206e6577206f776e657220697320746865207a65726f206160008201527f6464726573730000000000000000000000000000000000000000000000000000602082015250565b7f5072656d69756d20616d6f756e74206d7573742062652067726561746572207460008201527f68616e207a65726f000000000000000000000000000000000000000000000000602082015250565b7f416d6f756e74206d75737420626520657175616c20746f20746865206d6f6e7460008201527f686c79207061796d656e74000000000000000000000000000000000000000000602082015250565b7f796f752068617665207061696420616c6c2074686520796561726c792070726560008201527f6d696d756d20706c616e2c2072656e657720697420746f206b65657020676f6960208201527f6e672e0000000000000000000000000000000000000000000000000000000000604082015250565b7f4f776e61626c653a2063616c6c6572206973206e6f7420746865206f776e6572600082015250565b7f506f6c69637920646f6573206e6f742065786973740000000000000000000000600082015250565b60028110612cc157612cc0612a0f565b5b50565b612ccd81612856565b8114612cd857600080fd5b50565b60028110612ce857600080fd5b50565b612cf4816128a7565b8114612cff57600080fd5b5056fea2646970667358221220f27c611abbee24fd7a505713535c915b2e98c36b7adb02c34815b756bf4e945f64736f6c63430008010033",
  "linkReferences": {},
  "deployedLinkReferences": {}
}