{
  "_format": "hh-sol-artifact-1",
  "contractName": "VehicleContract",
  "sourceName": "contracts/VehicleContract.sol",
  "abi": [
    {
      "inputs": [
        {
          "internalType": "address",
          "name": "_insurancePolicyContractAddress",
          "type": "address"
        }
      ],
      "stateMutability": "nonpayable",
      "type": "constructor"
    },
    {
      "anonymous": false,
      "inputs": [
        {
          "indexed": true,
          "internalType": "address",
          "name": "owner",
          "type": "address"
        },
        {
          "indexed": false,
          "internalType": "string",
          "name": "licensePlate",
          "type": "string"
        },
        {
          "indexed": false,
          "internalType": "string",
          "name": "vehicledata",
          "type": "string"
        }
      ],
      "name": "VehicleCreated",
      "type": "event"
    },
    {
      "inputs": [],
      "name": "checkOwnership",
      "outputs": [
        {
          "internalType": "bool",
          "name": "",
          "type": "bool"
        }
      ],
      "stateMutability": "view",
      "type": "function"
    },
    {
      "inputs": [
        {
          "internalType": "uint256",
          "name": "index",
          "type": "uint256"
        },
        {
          "internalType": "uint256",
          "name": "policyId",
          "type": "uint256"
        }
      ],
      "name": "checkVehicle",
      "outputs": [
        {
          "internalType": "bool",
          "name": "",
          "type": "bool"
        }
      ],
      "stateMutability": "view",
      "type": "function"
    },
    {
      "inputs": [],
      "name": "conowner",
      "outputs": [
        {
          "internalType": "address",
          "name": "",
          "type": "address"
        }
      ],
      "stateMutability": "view",
      "type": "function"
    },
    {
      "inputs": [
        {
          "internalType": "string",
          "name": "_licensePlate",
          "type": "string"
        },
        {
          "internalType": "uint256",
          "name": "policyId",
          "type": "uint256"
        },
        {
          "internalType": "string",
          "name": "vehicledata",
          "type": "string"
        }
      ],
      "name": "createVehicle",
      "outputs": [],
      "stateMutability": "nonpayable",
      "type": "function"
    },
    {
      "inputs": [],
      "name": "findyourPaymentId",
      "outputs": [
        {
          "internalType": "uint256",
          "name": "",
          "type": "uint256"
        }
      ],
      "stateMutability": "view",
      "type": "function"
    },
    {
      "inputs": [],
      "name": "getAllVehicles",
      "outputs": [
        {
          "components": [
            {
              "internalType": "uint256",
              "name": "vehicleId",
              "type": "uint256"
            },
            {
              "internalType": "address",
              "name": "vehicleOwnerAddress",
              "type": "address"
            },
            {
              "internalType": "string",
              "name": "vehicledata",
              "type": "string"
            },
            {
              "internalType": "string",
              "name": "licensePlate",
              "type": "string"
            },
            {
              "internalType": "uint256",
              "name": "policyId",
              "type": "uint256"
            }
          ],
          "internalType": "struct VehicleContract.VehicleInfo[]",
          "name": "",
          "type": "tuple[]"
        }
      ],
      "stateMutability": "view",
      "type": "function"
    },
    {
      "inputs": [],
      "name": "getMyVehicles",
      "outputs": [
        {
          "components": [
            {
              "internalType": "uint256",
              "name": "vehicleId",
              "type": "uint256"
            },
            {
              "internalType": "address",
              "name": "vehicleOwnerAddress",
              "type": "address"
            },
            {
              "internalType": "string",
              "name": "vehicledata",
              "type": "string"
            },
            {
              "internalType": "string",
              "name": "licensePlate",
              "type": "string"
            },
            {
              "internalType": "uint256",
              "name": "policyId",
              "type": "uint256"
            }
          ],
          "internalType": "struct VehicleContract.VehicleInfo[]",
          "name": "",
          "type": "tuple[]"
        }
      ],
      "stateMutability": "view",
      "type": "function"
    },
    {
      "inputs": [
        {
          "internalType": "uint256",
          "name": "_policyId",
          "type": "uint256"
        }
      ],
      "name": "getPolicyVehicles",
      "outputs": [
        {
          "components": [
            {
              "internalType": "uint256",
              "name": "vehicleId",
              "type": "uint256"
            },
            {
              "internalType": "address",
              "name": "vehicleOwnerAddress",
              "type": "address"
            },
            {
              "internalType": "string",
              "name": "vehicledata",
              "type": "string"
            },
            {
              "internalType": "string",
              "name": "licensePlate",
              "type": "string"
            },
            {
              "internalType": "uint256",
              "name": "policyId",
              "type": "uint256"
            }
          ],
          "internalType": "struct VehicleContract.VehicleInfo[]",
          "name": "",
          "type": "tuple[]"
        }
      ],
      "stateMutability": "view",
      "type": "function"
    },
    {
      "inputs": [
        {
          "internalType": "uint256",
          "name": "index",
          "type": "uint256"
        }
      ],
      "name": "getVehicle",
      "outputs": [
        {
          "internalType": "string",
          "name": "",
          "type": "string"
        }
      ],
      "stateMutability": "view",
      "type": "function"
    },
    {
      "inputs": [
        {
          "internalType": "uint256",
          "name": "index",
          "type": "uint256"
        },
        {
          "internalType": "string",
          "name": "_licensePlate",
          "type": "string"
        }
      ],
      "name": "updateLicensePlate",
      "outputs": [],
      "stateMutability": "nonpayable",
      "type": "function"
    },
    {
      "inputs": [
        {
          "internalType": "uint256",
          "name": "index",
          "type": "uint256"
        }
      ],
      "name": "vehicleExists",
      "outputs": [
        {
          "internalType": "bool",
          "name": "",
          "type": "bool"
        }
      ],
      "stateMutability": "view",
      "type": "function"
    }
  ],
  "bytecode": "0x60806040523480156200001157600080fd5b5060405162001ddd38038062001ddd8339818101604052810190620000379190620000d7565b80600460006101000a81548173ffffffffffffffffffffffffffffffffffffffff021916908373ffffffffffffffffffffffffffffffffffffffff16021790555033600160006101000a81548173ffffffffffffffffffffffffffffffffffffffff021916908373ffffffffffffffffffffffffffffffffffffffff1602179055505062000151565b600081519050620000d18162000137565b92915050565b600060208284031215620000ea57600080fd5b6000620000fa84828501620000c0565b91505092915050565b6000620001108262000117565b9050919050565b600073ffffffffffffffffffffffffffffffffffffffff82169050919050565b620001428162000103565b81146200014e57600080fd5b50565b611c7c80620001616000396000f3fe608060405234801561001057600080fd5b50600436106100a95760003560e01c806352142c871161007157806352142c87146101405780635e7215bc146101705780636ec965b71461018e578063b19232fc146101be578063cb9d90d3146101ee578063df7ebb7b1461020c576100a9565b80630e506ea8146100ae578063219a1d77146100ca5780632f06c573146100e857806334caa315146101065780634aa2ca1e14610124575b600080fd5b6100c860048036038101906100c391906114cf565b61023c565b005b6100d26102f7565b6040516100df91906117c8565b60405180910390f35b6100f061034f565b6040516100fd919061178b565b60405180910390f35b61010e610375565b60405161011b919061189c565b60405180910390f35b61013e600480360381019061013991906113fe565b610427565b005b61015a60048036038101906101559190611523565b61070e565b60405161016791906117c8565b60405180910390f35b610178610731565b60405161018591906117a6565b60405180910390f35b6101a860048036038101906101a3919061147d565b610b21565b6040516101b591906117a6565b60405180910390f35b6101d860048036038101906101d3919061147d565b610e7b565b6040516101e591906117c8565b60405180910390f35b6101f6610ea9565b60405161020391906117a6565b60405180910390f35b6102266004803603810190610221919061147d565b61117a565b60405161023391906117e3565b60405180910390f35b6000815111610280576040517f08c379a00000000000000000000000000000000000000000000000000000000081526004016102779061187c565b60405180910390fd5b61028982610e7b565b6102c8576040517f08c379a00000000000000000000000000000000000000000000000000000000081526004016102bf9061185c565b60405180910390fd5b806002600084815260200190815260200160002060030190805190602001906102f2929190611246565b505050565b60003373ffffffffffffffffffffffffffffffffffffffff16600160009054906101000a900473ffffffffffffffffffffffffffffffffffffffff1673ffffffffffffffffffffffffffffffffffffffff1614905090565b600160009054906101000a900473ffffffffffffffffffffffffffffffffffffffff1681565b6000600460009054906101000a900473ffffffffffffffffffffffffffffffffffffffff1673ffffffffffffffffffffffffffffffffffffffff1663bc047c49336040518263ffffffff1660e01b81526004016103d2919061178b565b60206040518083038186803b1580156103ea57600080fd5b505afa1580156103fe573d6000803e3d6000fd5b505050506040513d601f19601f8201168201806040525081019061042291906114a6565b905090565b600083511161046b576040517f08c379a00000000000000000000000000000000000000000000000000000000081526004016104629061187c565b60405180910390fd5b600460009054906101000a900473ffffffffffffffffffffffffffffffffffffffff1673ffffffffffffffffffffffffffffffffffffffff16630fe92cae836040518263ffffffff1660e01b81526004016104c6919061189c565b60206040518083038186803b1580156104de57600080fd5b505afa1580156104f2573d6000803e3d6000fd5b505050506040513d601f19601f8201168201806040525081019061051691906113d5565b610555576040517f08c379a000000000000000000000000000000000000000000000000000000000815260040161054c9061183c565b60405180910390fd5b61055f6000611222565b600061056b6000611238565b90506040518060a001604052808281526020013373ffffffffffffffffffffffffffffffffffffffff16815260200183815260200185815260200184815250600260008381526020019081526020016000206000820151816000015560208201518160010160006101000a81548173ffffffffffffffffffffffffffffffffffffffff021916908373ffffffffffffffffffffffffffffffffffffffff160217905550604082015181600201908051906020019061062a929190611246565b506060820151816003019080519060200190610647929190611246565b50608082015181600401559050506003339080600181540180825580915050600190039060005260206000200160009091909190916101000a81548173ffffffffffffffffffffffffffffffffffffffff021916908373ffffffffffffffffffffffffffffffffffffffff1602179055503373ffffffffffffffffffffffffffffffffffffffff167faff9b281d8eb03326e395df3b5a56bf096ed220048eb76eeba9d9ef0b8b3eb198584604051610700929190611805565b60405180910390a250505050565b600081600260008581526020019081526020016000206004015414905092915050565b6060600061073f6000611238565b9050600080600080600090505b848110156107ed573373ffffffffffffffffffffffffffffffffffffffff166002600060018461077c9190611973565b815260200190815260200160002060010160009054906101000a900473ffffffffffffffffffffffffffffffffffffffff1673ffffffffffffffffffffffffffffffffffffffff1614156107da576001846107d79190611973565b93505b80806107e590611ab6565b91505061074c565b5060008367ffffffffffffffff811115610830577f4e487b7100000000000000000000000000000000000000000000000000000000600052604160045260246000fd5b60405190808252806020026020018201604052801561086957816020015b6108566112cc565b81526020019060019003908161084e5790505b50905060005b85811015610b15573373ffffffffffffffffffffffffffffffffffffffff166002600060018461089f9190611973565b815260200190815260200160002060010160009054906101000a900473ffffffffffffffffffffffffffffffffffffffff1673ffffffffffffffffffffffffffffffffffffffff161415610b02576001816108fa9190611973565b92506000600260008581526020019081526020016000209050806040518060a0016040529081600082015481526020016001820160009054906101000a900473ffffffffffffffffffffffffffffffffffffffff1673ffffffffffffffffffffffffffffffffffffffff1673ffffffffffffffffffffffffffffffffffffffff16815260200160028201805461098f90611a53565b80601f01602080910402602001604051908101604052809291908181526020018280546109bb90611a53565b8015610a085780601f106109dd57610100808354040283529160200191610a08565b820191906000526020600020905b8154815290600101906020018083116109eb57829003601f168201915b50505050508152602001600382018054610a2190611a53565b80601f0160208091040260200160405190810160405280929190818152602001828054610a4d90611a53565b8015610a9a5780601f10610a6f57610100808354040283529160200191610a9a565b820191906000526020600020905b815481529060010190602001808311610a7d57829003601f168201915b50505050508152602001600482015481525050838681518110610ae6577f4e487b7100000000000000000000000000000000000000000000000000000000600052603260045260246000fd5b6020026020010181905250600185610afe9190611973565b9450505b8080610b0d90611ab6565b91505061086f565b50809550505050505090565b60606000610b2f6000611238565b9050600080600080600090505b84811015610b91578660026000600184610b569190611973565b8152602001908152602001600020600401541415610b7e57600184610b7b9190611973565b93505b8080610b8990611ab6565b915050610b3c565b5060008367ffffffffffffffff811115610bd4577f4e487b7100000000000000000000000000000000000000000000000000000000600052604160045260246000fd5b604051908082528060200260200182016040528015610c0d57816020015b610bfa6112cc565b815260200190600190039081610bf25790505b50905060005b85811015610e6d578760026000600184610c2d9190611973565b8152602001908152602001600020600401541415610e5a57600181610c529190611973565b92506000600260008581526020019081526020016000209050806040518060a0016040529081600082015481526020016001820160009054906101000a900473ffffffffffffffffffffffffffffffffffffffff1673ffffffffffffffffffffffffffffffffffffffff1673ffffffffffffffffffffffffffffffffffffffff168152602001600282018054610ce790611a53565b80601f0160208091040260200160405190810160405280929190818152602001828054610d1390611a53565b8015610d605780601f10610d3557610100808354040283529160200191610d60565b820191906000526020600020905b815481529060010190602001808311610d4357829003601f168201915b50505050508152602001600382018054610d7990611a53565b80601f0160208091040260200160405190810160405280929190818152602001828054610da590611a53565b8015610df25780601f10610dc757610100808354040283529160200191610df2565b820191906000526020600020905b815481529060010190602001808311610dd557829003601f168201915b50505050508152602001600482015481525050838681518110610e3e577f4e487b7100000000000000000000000000000000000000000000000000000000600052603260045260246000fd5b6020026020010181905250600185610e569190611973565b9450505b8080610e6590611ab6565b915050610c13565b508095505050505050919050565b600080600260008481526020019081526020016000206003018054610e9f90611a53565b9050119050919050565b60606000610eb76000611238565b905060008167ffffffffffffffff811115610efb577f4e487b7100000000000000000000000000000000000000000000000000000000600052604160045260246000fd5b604051908082528060200260200182016040528015610f3457816020015b610f216112cc565b815260200190600190039081610f195790505b50905060008080600090505b8481101561116f57600181610f559190611973565b91506000600260008481526020019081526020016000209050806040518060a0016040529081600082015481526020016001820160009054906101000a900473ffffffffffffffffffffffffffffffffffffffff1673ffffffffffffffffffffffffffffffffffffffff1673ffffffffffffffffffffffffffffffffffffffff168152602001600282018054610fea90611a53565b80601f016020809104026020016040519081016040528092919081815260200182805461101690611a53565b80156110635780601f1061103857610100808354040283529160200191611063565b820191906000526020600020905b81548152906001019060200180831161104657829003601f168201915b5050505050815260200160038201805461107c90611a53565b80601f01602080910402602001604051908101604052809291908181526020018280546110a890611a53565b80156110f55780601f106110ca576101008083540402835291602001916110f5565b820191906000526020600020905b8154815290600101906020018083116110d857829003601f168201915b50505050508152602001600482015481525050858581518110611141577f4e487b7100000000000000000000000000000000000000000000000000000000600052603260045260246000fd5b60200260200101819052506001846111599190611973565b935050808061116790611ab6565b915050610f40565b508294505050505090565b606060026000838152602001908152602001600020600301805461119d90611a53565b80601f01602080910402602001604051908101604052809291908181526020018280546111c990611a53565b80156112165780601f106111eb57610100808354040283529160200191611216565b820191906000526020600020905b8154815290600101906020018083116111f957829003601f168201915b50505050509050919050565b6001816000016000828254019250508190555050565b600081600001549050919050565b82805461125290611a53565b90600052602060002090601f01602090048101928261127457600085556112bb565b82601f1061128d57805160ff19168380011785556112bb565b828001600101855582156112bb579182015b828111156112ba57825182559160200191906001019061129f565b5b5090506112c89190611311565b5090565b6040518060a0016040528060008152602001600073ffffffffffffffffffffffffffffffffffffffff1681526020016060815260200160608152602001600081525090565b5b8082111561132a576000816000905550600101611312565b5090565b600061134161133c846118dc565b6118b7565b90508281526020810184848401111561135957600080fd5b611364848285611a11565b509392505050565b60008151905061137b81611c18565b92915050565b600082601f83011261139257600080fd5b81356113a284826020860161132e565b91505092915050565b6000813590506113ba81611c2f565b92915050565b6000815190506113cf81611c2f565b92915050565b6000602082840312156113e757600080fd5b60006113f58482850161136c565b91505092915050565b60008060006060848603121561141357600080fd5b600084013567ffffffffffffffff81111561142d57600080fd5b61143986828701611381565b935050602061144a868287016113ab565b925050604084013567ffffffffffffffff81111561146757600080fd5b61147386828701611381565b9150509250925092565b60006020828403121561148f57600080fd5b600061149d848285016113ab565b91505092915050565b6000602082840312156114b857600080fd5b60006114c6848285016113c0565b91505092915050565b600080604083850312156114e257600080fd5b60006114f0858286016113ab565b925050602083013567ffffffffffffffff81111561150d57600080fd5b61151985828601611381565b9150509250929050565b6000806040838503121561153657600080fd5b6000611544858286016113ab565b9250506020611555858286016113ab565b9150509250929050565b600061156b83836116f0565b905092915050565b61157c816119c9565b82525050565b61158b816119c9565b82525050565b600061159c8261191d565b6115a68185611940565b9350836020820285016115b88561190d565b8060005b858110156115f457848403895281516115d5858261155f565b94506115e083611933565b925060208a019950506001810190506115bc565b50829750879550505050505092915050565b61160f816119db565b82525050565b600061162082611928565b61162a8185611951565b935061163a818560208601611a20565b61164381611b8c565b840191505092915050565b600061165982611928565b6116638185611962565b9350611673818560208601611a20565b61167c81611b8c565b840191505092915050565b6000611694601483611962565b915061169f82611b9d565b602082019050919050565b60006116b7601683611962565b91506116c282611bc6565b602082019050919050565b60006116da601d83611962565b91506116e582611bef565b602082019050919050565b600060a083016000830151611708600086018261176d565b50602083015161171b6020860182611573565b50604083015184820360408601526117338282611615565b9150506060830151848203606086015261174d8282611615565b9150506080830151611762608086018261176d565b508091505092915050565b61177681611a07565b82525050565b61178581611a07565b82525050565b60006020820190506117a06000830184611582565b92915050565b600060208201905081810360008301526117c08184611591565b905092915050565b60006020820190506117dd6000830184611606565b92915050565b600060208201905081810360008301526117fd818461164e565b905092915050565b6000604082019050818103600083015261181f818561164e565b90508181036020830152611833818461164e565b90509392505050565b6000602082019050818103600083015261185581611687565b9050919050565b60006020820190508181036000830152611875816116aa565b9050919050565b60006020820190508181036000830152611895816116cd565b9050919050565b60006020820190506118b1600083018461177c565b92915050565b60006118c16118d2565b90506118cd8282611a85565b919050565b6000604051905090565b600067ffffffffffffffff8211156118f7576118f6611b5d565b5b61190082611b8c565b9050602081019050919050565b6000819050602082019050919050565b600081519050919050565b600081519050919050565b6000602082019050919050565b600082825260208201905092915050565b600082825260208201905092915050565b600082825260208201905092915050565b600061197e82611a07565b915061198983611a07565b9250827fffffffffffffffffffffffffffffffffffffffffffffffffffffffffffffffff038211156119be576119bd611aff565b5b828201905092915050565b60006119d4826119e7565b9050919050565b60008115159050919050565b600073ffffffffffffffffffffffffffffffffffffffff82169050919050565b6000819050919050565b82818337600083830152505050565b60005b83811015611a3e578082015181840152602081019050611a23565b83811115611a4d576000848401525b50505050565b60006002820490506001821680611a6b57607f821691505b60208210811415611a7f57611a7e611b2e565b5b50919050565b611a8e82611b8c565b810181811067ffffffffffffffff82111715611aad57611aac611b5d565b5b80604052505050565b6000611ac182611a07565b91507fffffffffffffffffffffffffffffffffffffffffffffffffffffffffffffffff821415611af457611af3611aff565b5b600182019050919050565b7f4e487b7100000000000000000000000000000000000000000000000000000000600052601160045260246000fd5b7f4e487b7100000000000000000000000000000000000000000000000000000000600052602260045260246000fd5b7f4e487b7100000000000000000000000000000000000000000000000000000000600052604160045260246000fd5b6000601f19601f8301169050919050565b7f506f6c69637920646f65736e2774206578697374000000000000000000000000600082015250565b7f56656869636c6520646f6573206e6f7420657869737400000000000000000000600082015250565b7f4c6963656e736520706c6174652063616e6e6f7420626520656d707479000000600082015250565b611c21816119db565b8114611c2c57600080fd5b50565b611c3881611a07565b8114611c4357600080fd5b5056fea2646970667358221220907e2676ab0b41f1f3a44c2e46172b08aee864d4add36f5adec398628e15a40864736f6c63430008010033",
  "linkReferences": {},
  "deployedLinkReferences": {}
}