{
  "_format": "hh-sol-artifact-1",
  "contractName": "ClaimContract",
  "sourceName": "contracts/ClaimContract.sol",
  "abi": [
    {
      "inputs": [
        {
          "internalType": "address",
          "name": "_insurancePolicyContractAddress",
          "type": "address"
        },
        {
          "internalType": "address",
          "name": "_vehicleContract",
          "type": "address"
        }
      ],
      "stateMutability": "nonpayable",
      "type": "constructor"
    },
    {
      "anonymous": false,
      "inputs": [
        {
          "indexed": true,
          "internalType": "uint256",
          "name": "claimId",
          "type": "uint256"
        },
        {
          "indexed": false,
          "internalType": "enum ClaimContract.ClaimStatus",
          "name": "status",
          "type": "uint8"
        }
      ],
      "name": "ClaimStatusUpdated",
      "type": "event"
    },
    {
      "anonymous": false,
      "inputs": [
        {
          "indexed": true,
          "internalType": "uint256",
          "name": "claimId",
          "type": "uint256"
        },
        {
          "indexed": true,
          "internalType": "uint256",
          "name": "policyId",
          "type": "uint256"
        },
        {
          "indexed": true,
          "internalType": "address",
          "name": "claimant",
          "type": "address"
        },
        {
          "indexed": false,
          "internalType": "string",
          "name": "description",
          "type": "string"
        }
      ],
      "name": "ClaimSubmitted",
      "type": "event"
    },
    {
      "anonymous": false,
      "inputs": [
        {
          "indexed": true,
          "internalType": "address",
          "name": "previousOwner",
          "type": "address"
        },
        {
          "indexed": true,
          "internalType": "address",
          "name": "newOwner",
          "type": "address"
        }
      ],
      "name": "OwnershipTransferred",
      "type": "event"
    },
    {
      "inputs": [],
      "name": "checkOwnership",
      "outputs": [
        {
          "internalType": "bool",
          "name": "",
          "type": "bool"
        }
      ],
      "stateMutability": "view",
      "type": "function"
    },
    {
      "inputs": [
        {
          "internalType": "uint256",
          "name": "index",
          "type": "uint256"
        },
        {
          "internalType": "address",
          "name": "_claimerAddress",
          "type": "address"
        }
      ],
      "name": "claimPaid",
      "outputs": [],
      "stateMutability": "payable",
      "type": "function"
    },
    {
      "inputs": [],
      "name": "conowner",
      "outputs": [
        {
          "internalType": "address",
          "name": "",
          "type": "address"
        }
      ],
      "stateMutability": "view",
      "type": "function"
    },
    {
      "inputs": [
        {
          "internalType": "uint256",
          "name": "_claimId",
          "type": "uint256"
        }
      ],
      "name": "getClaim",
      "outputs": [
        {
          "internalType": "uint256",
          "name": "policyId",
          "type": "uint256"
        },
        {
          "internalType": "address",
          "name": "claimant",
          "type": "address"
        },
        {
          "internalType": "string",
          "name": "description",
          "type": "string"
        },
        {
          "internalType": "enum ClaimContract.ClaimStatus",
          "name": "status",
          "type": "uint8"
        }
      ],
      "stateMutability": "view",
      "type": "function"
    },
    {
      "inputs": [],
      "name": "getMyClaim",
      "outputs": [
        {
          "components": [
            {
              "internalType": "uint256",
              "name": "claimId",
              "type": "uint256"
            },
            {
              "internalType": "uint256",
              "name": "policyId",
              "type": "uint256"
            },
            {
              "internalType": "address payable",
              "name": "claimant",
              "type": "address"
            },
            {
              "internalType": "string",
              "name": "description",
              "type": "string"
            },
            {
              "internalType": "enum ClaimContract.ClaimStatus",
              "name": "status",
              "type": "uint8"
            }
          ],
          "internalType": "struct ClaimContract.Claim[]",
          "name": "",
          "type": "tuple[]"
        }
      ],
      "stateMutability": "view",
      "type": "function"
    },
    {
      "inputs": [],
      "name": "listAllClaims",
      "outputs": [
        {
          "components": [
            {
              "internalType": "uint256",
              "name": "claimId",
              "type": "uint256"
            },
            {
              "internalType": "uint256",
              "name": "policyId",
              "type": "uint256"
            },
            {
              "internalType": "address payable",
              "name": "claimant",
              "type": "address"
            },
            {
              "internalType": "string",
              "name": "description",
              "type": "string"
            },
            {
              "internalType": "enum ClaimContract.ClaimStatus",
              "name": "status",
              "type": "uint8"
            }
          ],
          "internalType": "struct ClaimContract.Claim[]",
          "name": "",
          "type": "tuple[]"
        }
      ],
      "stateMutability": "view",
      "type": "function"
    },
    {
      "inputs": [],
      "name": "owner",
      "outputs": [
        {
          "internalType": "address",
          "name": "",
          "type": "address"
        }
      ],
      "stateMutability": "view",
      "type": "function"
    },
    {
      "inputs": [],
      "name": "renounceOwnership",
      "outputs": [],
      "stateMutability": "nonpayable",
      "type": "function"
    },
    {
      "inputs": [
        {
          "internalType": "uint256",
          "name": "index",
          "type": "uint256"
        },
        {
          "internalType": "uint256",
          "name": "_policyId",
          "type": "uint256"
        },
        {
          "internalType": "string",
          "name": "_description",
          "type": "string"
        }
      ],
      "name": "submitClaim",
      "outputs": [],
      "stateMutability": "nonpayable",
      "type": "function"
    },
    {
      "inputs": [
        {
          "internalType": "address",
          "name": "newOwner",
          "type": "address"
        }
      ],
      "name": "transferOwnership",
      "outputs": [],
      "stateMutability": "nonpayable",
      "type": "function"
    },
    {
      "inputs": [
        {
          "internalType": "uint256",
          "name": "_claimId",
          "type": "uint256"
        },
        {
          "internalType": "enum ClaimContract.ClaimStatus",
          "name": "_status",
          "type": "uint8"
        }
      ],
      "name": "updateClaimStatus",
      "outputs": [],
      "stateMutability": "nonpayable",
      "type": "function"
    }
  ],
  "bytecode": "0x608060405260016004553480156200001657600080fd5b50604051620029683803806200296883398181016040528101906200003c91906200036c565b6200005c620000506200013860201b60201c565b6200014060201b60201c565b81600560006101000a81548173ffffffffffffffffffffffffffffffffffffffff021916908373ffffffffffffffffffffffffffffffffffffffff16021790555080600660006101000a81548173ffffffffffffffffffffffffffffffffffffffff021916908373ffffffffffffffffffffffffffffffffffffffff16021790555033600260006101000a81548173ffffffffffffffffffffffffffffffffffffffff021916908373ffffffffffffffffffffffffffffffffffffffff16021790555062000130336200020460201b60201c565b505062000516565b600033905090565b60008060009054906101000a900473ffffffffffffffffffffffffffffffffffffffff169050816000806101000a81548173ffffffffffffffffffffffffffffffffffffffff021916908373ffffffffffffffffffffffffffffffffffffffff1602179055508173ffffffffffffffffffffffffffffffffffffffff168173ffffffffffffffffffffffffffffffffffffffff167f8be0079c531659141344cd1fd0a4f28419497f9722a3daafe3b4186f6b6457e060405160405180910390a35050565b620002146200029b60201b60201c565b600073ffffffffffffffffffffffffffffffffffffffff168173ffffffffffffffffffffffffffffffffffffffff16141562000287576040517f08c379a00000000000000000000000000000000000000000000000000000000081526004016200027e90620003fb565b60405180910390fd5b62000298816200014060201b60201c565b50565b620002ab6200013860201b60201c565b73ffffffffffffffffffffffffffffffffffffffff16620002d16200032c60201b60201c565b73ffffffffffffffffffffffffffffffffffffffff16146200032a576040517f08c379a000000000000000000000000000000000000000000000000000000000815260040162000321906200041d565b60405180910390fd5b565b60008060009054906101000a900473ffffffffffffffffffffffffffffffffffffffff16905090565b6000815190506200036681620004fc565b92915050565b600080604083850312156200038057600080fd5b6000620003908582860162000355565b9250506020620003a38582860162000355565b9150509250929050565b6000620003bc6026836200043f565b9150620003c98262000484565b604082019050919050565b6000620003e36020836200043f565b9150620003f082620004d3565b602082019050919050565b600060208201905081810360008301526200041681620003ad565b9050919050565b600060208201905081810360008301526200043881620003d4565b9050919050565b600082825260208201905092915050565b60006200045d8262000464565b9050919050565b600073ffffffffffffffffffffffffffffffffffffffff82169050919050565b7f4f776e61626c653a206e6577206f776e657220697320746865207a65726f206160008201527f6464726573730000000000000000000000000000000000000000000000000000602082015250565b7f4f776e61626c653a2063616c6c6572206973206e6f7420746865206f776e6572600082015250565b620005078162000450565b81146200051357600080fd5b50565b61244280620005266000396000f3fe60806040526004361061009c5760003560e01c80638da5cb5b116100645780638da5cb5b146101775780639dc7a06a146101a2578063ab1f5b7c146101cd578063ae8e25bd146101f6578063e59a0dad14610221578063f2fde38b1461023d5761009c565b806306964de7146100a1578063219a1d77146100ca5780632f06c573146100f55780635aef244714610120578063715018a614610160575b600080fd5b3480156100ad57600080fd5b506100c860048036038101906100c39190611821565b610266565b005b3480156100d657600080fd5b506100df61071b565b6040516100ec9190611bfd565b60405180910390f35b34801561010157600080fd5b5061010a610773565b6040516101179190611bc0565b60405180910390f35b34801561012c57600080fd5b5061014760048036038101906101429190611780565b610799565b6040516101579493929190611db0565b60405180910390f35b34801561016c57600080fd5b50610175610926565b005b34801561018357600080fd5b5061018c61093a565b6040516101999190611bc0565b60405180910390f35b3480156101ae57600080fd5b506101b7610963565b6040516101c49190611bdb565b60405180910390f35b3480156101d957600080fd5b506101f460048036038101906101ef91906117e5565b610d48565b005b34801561020257600080fd5b5061020b610e8a565b6040516102189190611bdb565b60405180910390f35b61023b600480360381019061023691906117a9565b611150565b005b34801561024957600080fd5b50610264600480360381019061025f919061172e565b611360565b005b61027060016113e4565b60008210156102b4576040517f08c379a00000000000000000000000000000000000000000000000000000000081526004016102ab90611d55565b60405180910390fd5b60008151116102f8576040517f08c379a00000000000000000000000000000000000000000000000000000000081526004016102ef90611cd5565b60405180910390fd5b600061030460016113fa565b9050600560009054906101000a900473ffffffffffffffffffffffffffffffffffffffff1673ffffffffffffffffffffffffffffffffffffffff16630fe92cae846040518263ffffffff1660e01b81526004016103619190611d95565b60206040518083038186803b15801561037957600080fd5b505afa15801561038d573d6000803e3d6000fd5b505050506040513d601f19601f820116820180604052508101906103b19190611757565b6103f0576040517f08c379a00000000000000000000000000000000000000000000000000000000081526004016103e790611cb5565b60405180910390fd5b600660009054906101000a900473ffffffffffffffffffffffffffffffffffffffff1673ffffffffffffffffffffffffffffffffffffffff166352142c8785856040518363ffffffff1660e01b815260040161044d929190611dfc565b60206040518083038186803b15801561046557600080fd5b505afa158015610479573d6000803e3d6000fd5b505050506040513d601f19601f8201168201806040525081019061049d9190611757565b6104dc576040517f08c379a00000000000000000000000000000000000000000000000000000000081526004016104d390611d35565b60405180910390fd5b6040518060a001604052808281526020018481526020013373ffffffffffffffffffffffffffffffffffffffff1681526020018381526020016000600281111561054f577f4e487b7100000000000000000000000000000000000000000000000000000000600052602160045260246000fd5b81525060036000838152602001908152602001600020600082015181600001556020820151816001015560408201518160020160006101000a81548173ffffffffffffffffffffffffffffffffffffffff021916908373ffffffffffffffffffffffffffffffffffffffff16021790555060608201518160030190805190602001906105dc929190611552565b5060808201518160040160006101000a81548160ff0219169083600281111561062e577f4e487b7100000000000000000000000000000000000000000000000000000000600052602160045260246000fd5b02179055509050503373ffffffffffffffffffffffffffffffffffffffff1683827fbee96127fc856f54721f3e15c7d0f27a7947ed6c05f35a313ef16b5ae6653a838560405161067e9190611c33565b60405180910390a4600560009054906101000a900473ffffffffffffffffffffffffffffffffffffffff1673ffffffffffffffffffffffffffffffffffffffff1663837f574684836040518363ffffffff1660e01b81526004016106e3929190611dfc565b600060405180830381600087803b1580156106fd57600080fd5b505af1158015610711573d6000803e3d6000fd5b5050505050505050565b60003373ffffffffffffffffffffffffffffffffffffffff16600260009054906101000a900473ffffffffffffffffffffffffffffffffffffffff1673ffffffffffffffffffffffffffffffffffffffff1614905090565b600260009054906101000a900473ffffffffffffffffffffffffffffffffffffffff1681565b6000806060600080600360008781526020019081526020016000209050600073ffffffffffffffffffffffffffffffffffffffff168160020160009054906101000a900473ffffffffffffffffffffffffffffffffffffffff1673ffffffffffffffffffffffffffffffffffffffff16141561084a576040517f08c379a000000000000000000000000000000000000000000000000000000000815260040161084190611d75565b60405180910390fd5b80600101548160020160009054906101000a900473ffffffffffffffffffffffffffffffffffffffff16826003018360040160009054906101000a900460ff1681805461089690611ff8565b80601f01602080910402602001604051908101604052809291908181526020018280546108c290611ff8565b801561090f5780601f106108e45761010080835404028352916020019161090f565b820191906000526020600020905b8154815290600101906020018083116108f257829003601f168201915b505050505091509450945094509450509193509193565b61092e611408565b6109386000611486565b565b60008060009054906101000a900473ffffffffffffffffffffffffffffffffffffffff16905090565b6060600061097160016113fa565b9050600080600080600090505b84811015610a1f573373ffffffffffffffffffffffffffffffffffffffff16600360006001846109ae9190611ee1565b815260200190815260200160002060020160009054906101000a900473ffffffffffffffffffffffffffffffffffffffff1673ffffffffffffffffffffffffffffffffffffffff161415610a0c57600184610a099190611ee1565b93505b8080610a179061205b565b91505061097e565b5060008367ffffffffffffffff811115610a62577f4e487b7100000000000000000000000000000000000000000000000000000000600052604160045260246000fd5b604051908082528060200260200182016040528015610a9b57816020015b610a886115d8565b815260200190600190039081610a805790505b50905060005b85811015610d3c573373ffffffffffffffffffffffffffffffffffffffff1660036000600184610ad19190611ee1565b815260200190815260200160002060020160009054906101000a900473ffffffffffffffffffffffffffffffffffffffff1673ffffffffffffffffffffffffffffffffffffffff161415610d2957600181610b2c9190611ee1565b92506000600360008581526020019081526020016000209050806040518060a001604052908160008201548152602001600182015481526020016002820160009054906101000a900473ffffffffffffffffffffffffffffffffffffffff1673ffffffffffffffffffffffffffffffffffffffff1673ffffffffffffffffffffffffffffffffffffffff168152602001600382018054610bcb90611ff8565b80601f0160208091040260200160405190810160405280929190818152602001828054610bf790611ff8565b8015610c445780601f10610c1957610100808354040283529160200191610c44565b820191906000526020600020905b815481529060010190602001808311610c2757829003601f168201915b505050505081526020016004820160009054906101000a900460ff166002811115610c98577f4e487b7100000000000000000000000000000000000000000000000000000000600052602160045260246000fd5b6002811115610cd0577f4e487b7100000000000000000000000000000000000000000000000000000000600052602160045260246000fd5b81525050838681518110610d0d577f4e487b7100000000000000000000000000000000000000000000000000000000600052603260045260246000fd5b6020026020010181905250600185610d259190611ee1565b9450505b8080610d349061205b565b915050610aa1565b50809550505050505090565b610d50611408565b6000600360008481526020019081526020016000209050600073ffffffffffffffffffffffffffffffffffffffff168160020160009054906101000a900473ffffffffffffffffffffffffffffffffffffffff1673ffffffffffffffffffffffffffffffffffffffff161415610dfb576040517f08c379a0000000000000000000000000000000000000000000000000000000008152600401610df290611d75565b60405180910390fd5b818160040160006101000a81548160ff02191690836002811115610e48577f4e487b7100000000000000000000000000000000000000000000000000000000600052602160045260246000fd5b0217905550827f2e7de2377c1e6f85a268dbe00519c60d65c9e38570a118be0eb07feb07fc89be83604051610e7d9190611c18565b60405180910390a2505050565b60606000610e9860016113fa565b905060008167ffffffffffffffff811115610edc577f4e487b7100000000000000000000000000000000000000000000000000000000600052604160045260246000fd5b604051908082528060200260200182016040528015610f1557816020015b610f026115d8565b815260200190600190039081610efa5790505b50905060008080600090505b8481101561114557600181610f369190611ee1565b91506000600360008481526020019081526020016000209050806040518060a001604052908160008201548152602001600182015481526020016002820160009054906101000a900473ffffffffffffffffffffffffffffffffffffffff1673ffffffffffffffffffffffffffffffffffffffff1673ffffffffffffffffffffffffffffffffffffffff168152602001600382018054610fd590611ff8565b80601f016020809104026020016040519081016040528092919081815260200182805461100190611ff8565b801561104e5780601f106110235761010080835404028352916020019161104e565b820191906000526020600020905b81548152906001019060200180831161103157829003601f168201915b505050505081526020016004820160009054906101000a900460ff1660028111156110a2577f4e487b7100000000000000000000000000000000000000000000000000000000600052602160045260246000fd5b60028111156110da577f4e487b7100000000000000000000000000000000000000000000000000000000600052602160045260246000fd5b81525050858581518110611117577f4e487b7100000000000000000000000000000000000000000000000000000000600052603260045260246000fd5b602002602001018190525060018461112f9190611ee1565b935050808061113d9061205b565b915050610f21565b508294505050505090565b611158611408565b6000341161119b576040517f08c379a000000000000000000000000000000000000000000000000000000000815260040161119290611cf5565b60405180910390fd5b8073ffffffffffffffffffffffffffffffffffffffff166003600084815260200190815260200160002060020160009054906101000a900473ffffffffffffffffffffffffffffffffffffffff1673ffffffffffffffffffffffffffffffffffffffff161461123f576040517f08c379a000000000000000000000000000000000000000000000000000000000815260040161123690611c55565b60405180910390fd5b60016002811115611279577f4e487b7100000000000000000000000000000000000000000000000000000000600052602160045260246000fd5b6003600084815260200190815260200160002060040160009054906101000a900460ff1660028111156112d5577f4e487b7100000000000000000000000000000000000000000000000000000000600052602160045260246000fd5b14611315576040517f08c379a000000000000000000000000000000000000000000000000000000000815260040161130c90611c95565b60405180910390fd5b8073ffffffffffffffffffffffffffffffffffffffff166108fc349081150290604051600060405180830381858888f1935050505015801561135b573d6000803e3d6000fd5b505050565b611368611408565b600073ffffffffffffffffffffffffffffffffffffffff168173ffffffffffffffffffffffffffffffffffffffff1614156113d8576040517f08c379a00000000000000000000000000000000000000000000000000000000081526004016113cf90611c75565b60405180910390fd5b6113e181611486565b50565b6001816000016000828254019250508190555050565b600081600001549050919050565b61141061154a565b73ffffffffffffffffffffffffffffffffffffffff1661142e61093a565b73ffffffffffffffffffffffffffffffffffffffff1614611484576040517f08c379a000000000000000000000000000000000000000000000000000000000815260040161147b90611d15565b60405180910390fd5b565b60008060009054906101000a900473ffffffffffffffffffffffffffffffffffffffff169050816000806101000a81548173ffffffffffffffffffffffffffffffffffffffff021916908373ffffffffffffffffffffffffffffffffffffffff1602179055508173ffffffffffffffffffffffffffffffffffffffff168173ffffffffffffffffffffffffffffffffffffffff167f8be0079c531659141344cd1fd0a4f28419497f9722a3daafe3b4186f6b6457e060405160405180910390a35050565b600033905090565b82805461155e90611ff8565b90600052602060002090601f01602090048101928261158057600085556115c7565b82601f1061159957805160ff19168380011785556115c7565b828001600101855582156115c7579182015b828111156115c65782518255916020019190600101906115ab565b5b5090506115d49190611655565b5090565b6040518060a001604052806000815260200160008152602001600073ffffffffffffffffffffffffffffffffffffffff168152602001606081526020016000600281111561164f577f4e487b7100000000000000000000000000000000000000000000000000000000600052602160045260246000fd5b81525090565b5b8082111561166e576000816000905550600101611656565b5090565b600061168561168084611e4a565b611e25565b90508281526020810184848401111561169d57600080fd5b6116a8848285611fb6565b509392505050565b6000813590506116bf816123b7565b92915050565b6000815190506116d4816123ce565b92915050565b6000813590506116e9816123e5565b92915050565b600082601f83011261170057600080fd5b8135611710848260208601611672565b91505092915050565b600081359050611728816123f5565b92915050565b60006020828403121561174057600080fd5b600061174e848285016116b0565b91505092915050565b60006020828403121561176957600080fd5b6000611777848285016116c5565b91505092915050565b60006020828403121561179257600080fd5b60006117a084828501611719565b91505092915050565b600080604083850312156117bc57600080fd5b60006117ca85828601611719565b92505060206117db858286016116b0565b9150509250929050565b600080604083850312156117f857600080fd5b600061180685828601611719565b9250506020611817858286016116da565b9150509250929050565b60008060006060848603121561183657600080fd5b600061184486828701611719565b935050602061185586828701611719565b925050604084013567ffffffffffffffff81111561187257600080fd5b61187e868287016116ef565b9150509250925092565b60006118948383611b2c565b905092915050565b6118a581611f49565b82525050565b6118b481611f37565b82525050565b60006118c582611e8b565b6118cf8185611eae565b9350836020820285016118e185611e7b565b8060005b8581101561191d57848403895281516118fe8582611888565b945061190983611ea1565b925060208a019950506001810190506118e5565b50829750879550505050505092915050565b61193881611f5b565b82525050565b61194781611fa4565b82525050565b61195681611fa4565b82525050565b600061196782611e96565b6119718185611ebf565b9350611981818560208601611fc5565b61198a81612160565b840191505092915050565b60006119a082611e96565b6119aa8185611ed0565b93506119ba818560208601611fc5565b6119c381612160565b840191505092915050565b60006119db601a83611ed0565b91506119e682612171565b602082019050919050565b60006119fe602683611ed0565b9150611a098261219a565b604082019050919050565b6000611a21602183611ed0565b9150611a2c826121e9565b604082019050919050565b6000611a44601483611ed0565b9150611a4f82612238565b602082019050919050565b6000611a67601b83611ed0565b9150611a7282612261565b602082019050919050565b6000611a8a602683611ed0565b9150611a958261228a565b604082019050919050565b6000611aad602083611ed0565b9150611ab8826122d9565b602082019050919050565b6000611ad0603a83611ed0565b9150611adb82612302565b604082019050919050565b6000611af3601183611ed0565b9150611afe82612351565b602082019050919050565b6000611b16601483611ed0565b9150611b218261237a565b602082019050919050565b600060a083016000830151611b446000860182611ba2565b506020830151611b576020860182611ba2565b506040830151611b6a604086018261189c565b5060608301518482036060860152611b82828261195c565b9150506080830151611b97608086018261193e565b508091505092915050565b611bab81611f9a565b82525050565b611bba81611f9a565b82525050565b6000602082019050611bd560008301846118ab565b92915050565b60006020820190508181036000830152611bf581846118ba565b905092915050565b6000602082019050611c12600083018461192f565b92915050565b6000602082019050611c2d600083018461194d565b92915050565b60006020820190508181036000830152611c4d8184611995565b905092915050565b60006020820190508181036000830152611c6e816119ce565b9050919050565b60006020820190508181036000830152611c8e816119f1565b9050919050565b60006020820190508181036000830152611cae81611a14565b9050919050565b60006020820190508181036000830152611cce81611a37565b9050919050565b60006020820190508181036000830152611cee81611a5a565b9050919050565b60006020820190508181036000830152611d0e81611a7d565b9050919050565b60006020820190508181036000830152611d2e81611aa0565b9050919050565b60006020820190508181036000830152611d4e81611ac3565b9050919050565b60006020820190508181036000830152611d6e81611ae6565b9050919050565b60006020820190508181036000830152611d8e81611b09565b9050919050565b6000602082019050611daa6000830184611bb1565b92915050565b6000608082019050611dc56000830187611bb1565b611dd260208301866118ab565b8181036040830152611de48185611995565b9050611df3606083018461194d565b95945050505050565b6000604082019050611e116000830185611bb1565b611e1e6020830184611bb1565b9392505050565b6000611e2f611e40565b9050611e3b828261202a565b919050565b6000604051905090565b600067ffffffffffffffff821115611e6557611e64612131565b5b611e6e82612160565b9050602081019050919050565b6000819050602082019050919050565b600081519050919050565b600081519050919050565b6000602082019050919050565b600082825260208201905092915050565b600082825260208201905092915050565b600082825260208201905092915050565b6000611eec82611f9a565b9150611ef783611f9a565b9250827fffffffffffffffffffffffffffffffffffffffffffffffffffffffffffffffff03821115611f2c57611f2b6120a4565b5b828201905092915050565b6000611f4282611f7a565b9050919050565b6000611f5482611f7a565b9050919050565b60008115159050919050565b6000819050611f75826123a3565b919050565b600073ffffffffffffffffffffffffffffffffffffffff82169050919050565b6000819050919050565b6000611faf82611f67565b9050919050565b82818337600083830152505050565b60005b83811015611fe3578082015181840152602081019050611fc8565b83811115611ff2576000848401525b50505050565b6000600282049050600182168061201057607f821691505b6020821081141561202457612023612102565b5b50919050565b61203382612160565b810181811067ffffffffffffffff8211171561205257612051612131565b5b80604052505050565b600061206682611f9a565b91507fffffffffffffffffffffffffffffffffffffffffffffffffffffffffffffffff821415612099576120986120a4565b5b600182019050919050565b7f4e487b7100000000000000000000000000000000000000000000000000000000600052601160045260246000fd5b7f4e487b7100000000000000000000000000000000000000000000000000000000600052602160045260246000fd5b7f4e487b7100000000000000000000000000000000000000000000000000000000600052602260045260246000fd5b7f4e487b7100000000000000000000000000000000000000000000000000000000600052604160045260246000fd5b6000601f19601f8301169050919050565b7f496e636f727265637420636c61696d616e742061646472657373000000000000600082015250565b7f4f776e61626c653a206e6577206f776e657220697320746865207a65726f206160008201527f6464726573730000000000000000000000000000000000000000000000000000602082015250565b7f436c61696d616e742068617320746f206265206669727374206163636570746560008201527f6400000000000000000000000000000000000000000000000000000000000000602082015250565b7f506f6c69637920646f65736e2774206578697374000000000000000000000000600082015250565b7f4465736372697074696f6e2063616e6e6f7420626520656d7074790000000000600082015250565b7f457468657220616d6f756e74206d75737420626520677265617465722074686160008201527f6e207a65726f0000000000000000000000000000000000000000000000000000602082015250565b7f4f776e61626c653a2063616c6c6572206973206e6f7420746865206f776e6572600082015250565b7f596f7520686176656e2774207265676973746572656420666f7220746865736560008201527f20706f6c6963792c20596f752063616e206e6f7420636c61696d000000000000602082015250565b7f496e76616c696420706f6c696379204944000000000000000000000000000000600082015250565b7f436c61696d20646f6573206e6f74206578697374000000000000000000000000600082015250565b600381106123b4576123b36120d3565b5b50565b6123c081611f37565b81146123cb57600080fd5b50565b6123d781611f5b565b81146123e257600080fd5b50565b600381106123f257600080fd5b50565b6123fe81611f9a565b811461240957600080fd5b5056fea26469706673582212203ec6a401ff64bb6a99cc40d0e2d9a1787e7d3677be48ca52f90ae7d15608eea064736f6c63430008010033",
  "linkReferences": {},
  "deployedLinkReferences": {}
}