{
  "_format": "hh-sol-artifact-1",
  "contractName": "ClaimContract",
  "sourceName": "contracts/ClaimContract.sol",
  "abi": [
    {
      "inputs": [
        {
          "internalType": "address",
          "name": "_insurancePolicyContractAddress",
          "type": "address"
        },
        {
          "internalType": "address",
          "name": "_vehicleContract",
          "type": "address"
        }
      ],
      "stateMutability": "nonpayable",
      "type": "constructor"
    },
    {
      "anonymous": false,
      "inputs": [
        {
          "indexed": true,
          "internalType": "uint256",
          "name": "claimId",
          "type": "uint256"
        },
        {
          "indexed": false,
          "internalType": "enum ClaimContract.ClaimStatus",
          "name": "status",
          "type": "uint8"
        }
      ],
      "name": "ClaimStatusUpdated",
      "type": "event"
    },
    {
      "anonymous": false,
      "inputs": [
        {
          "indexed": true,
          "internalType": "uint256",
          "name": "claimId",
          "type": "uint256"
        },
        {
          "indexed": true,
          "internalType": "uint256",
          "name": "policyId",
          "type": "uint256"
        },
        {
          "indexed": true,
          "internalType": "address",
          "name": "claimant",
          "type": "address"
        },
        {
          "indexed": false,
          "internalType": "string",
          "name": "description",
          "type": "string"
        }
      ],
      "name": "ClaimSubmitted",
      "type": "event"
    },
    {
      "anonymous": false,
      "inputs": [
        {
          "indexed": true,
          "internalType": "address",
          "name": "previousOwner",
          "type": "address"
        },
        {
          "indexed": true,
          "internalType": "address",
          "name": "newOwner",
          "type": "address"
        }
      ],
      "name": "OwnershipTransferred",
      "type": "event"
    },
    {
      "inputs": [],
      "name": "checkOwnership",
      "outputs": [
        {
          "internalType": "bool",
          "name": "",
          "type": "bool"
        }
      ],
      "stateMutability": "view",
      "type": "function"
    },
    {
      "inputs": [
        {
          "internalType": "uint256",
          "name": "index",
          "type": "uint256"
        },
        {
          "internalType": "address",
          "name": "_claimerAddress",
          "type": "address"
        }
      ],
      "name": "claimPaid",
      "outputs": [],
      "stateMutability": "payable",
      "type": "function"
    },
    {
      "inputs": [],
      "name": "conowner",
      "outputs": [
        {
          "internalType": "address",
          "name": "",
          "type": "address"
        }
      ],
      "stateMutability": "view",
      "type": "function"
    },
    {
      "inputs": [
        {
          "internalType": "uint256",
          "name": "_claimId",
          "type": "uint256"
        }
      ],
      "name": "getClaim",
      "outputs": [
        {
          "internalType": "uint256",
          "name": "policyId",
          "type": "uint256"
        },
        {
          "internalType": "address",
          "name": "claimant",
          "type": "address"
        },
        {
          "internalType": "string",
          "name": "description",
          "type": "string"
        },
        {
          "internalType": "enum ClaimContract.ClaimStatus",
          "name": "status",
          "type": "uint8"
        }
      ],
      "stateMutability": "view",
      "type": "function"
    },
    {
      "inputs": [],
      "name": "getMyClaim",
      "outputs": [
        {
          "components": [
            {
              "internalType": "uint256",
              "name": "claimId",
              "type": "uint256"
            },
            {
              "internalType": "uint256",
              "name": "policyId",
              "type": "uint256"
            },
            {
              "internalType": "address payable",
              "name": "claimant",
              "type": "address"
            },
            {
              "internalType": "string",
              "name": "description",
              "type": "string"
            },
            {
              "internalType": "enum ClaimContract.ClaimStatus",
              "name": "status",
              "type": "uint8"
            }
          ],
          "internalType": "struct ClaimContract.Claim[]",
          "name": "",
          "type": "tuple[]"
        }
      ],
      "stateMutability": "view",
      "type": "function"
    },
    {
      "inputs": [],
      "name": "listAllClaims",
      "outputs": [
        {
          "components": [
            {
              "internalType": "uint256",
              "name": "claimId",
              "type": "uint256"
            },
            {
              "internalType": "uint256",
              "name": "policyId",
              "type": "uint256"
            },
            {
              "internalType": "address payable",
              "name": "claimant",
              "type": "address"
            },
            {
              "internalType": "string",
              "name": "description",
              "type": "string"
            },
            {
              "internalType": "enum ClaimContract.ClaimStatus",
              "name": "status",
              "type": "uint8"
            }
          ],
          "internalType": "struct ClaimContract.Claim[]",
          "name": "",
          "type": "tuple[]"
        }
      ],
      "stateMutability": "view",
      "type": "function"
    },
    {
      "inputs": [],
      "name": "owner",
      "outputs": [
        {
          "internalType": "address",
          "name": "",
          "type": "address"
        }
      ],
      "stateMutability": "view",
      "type": "function"
    },
    {
      "inputs": [],
      "name": "renounceOwnership",
      "outputs": [],
      "stateMutability": "nonpayable",
      "type": "function"
    },
    {
      "inputs": [
        {
          "internalType": "uint256",
          "name": "index",
          "type": "uint256"
        },
        {
          "internalType": "uint256",
          "name": "_policyId",
          "type": "uint256"
        },
        {
          "internalType": "string",
          "name": "_description",
          "type": "string"
        }
      ],
      "name": "submitClaim",
      "outputs": [],
      "stateMutability": "nonpayable",
      "type": "function"
    },
    {
      "inputs": [
        {
          "internalType": "address",
          "name": "newOwner",
          "type": "address"
        }
      ],
      "name": "transferOwnership",
      "outputs": [],
      "stateMutability": "nonpayable",
      "type": "function"
    },
    {
      "inputs": [
        {
          "internalType": "uint256",
          "name": "_claimId",
          "type": "uint256"
        },
        {
          "internalType": "enum ClaimContract.ClaimStatus",
          "name": "_status",
          "type": "uint8"
        }
      ],
      "name": "updateClaimStatus",
      "outputs": [],
      "stateMutability": "nonpayable",
      "type": "function"
    }
  ],
  "bytecode": "0x608060405260016004553480156200001657600080fd5b50604051620029493803806200294983398181016040528101906200003c9190620003be565b6200005c620000506200013860201b60201c565b6200014060201b60201c565b81600560006101000a81548173ffffffffffffffffffffffffffffffffffffffff021916908373ffffffffffffffffffffffffffffffffffffffff16021790555080600660006101000a81548173ffffffffffffffffffffffffffffffffffffffff021916908373ffffffffffffffffffffffffffffffffffffffff16021790555033600260006101000a81548173ffffffffffffffffffffffffffffffffffffffff021916908373ffffffffffffffffffffffffffffffffffffffff16021790555062000130336200020460201b60201c565b505062000520565b600033905090565b60008060009054906101000a900473ffffffffffffffffffffffffffffffffffffffff169050816000806101000a81548173ffffffffffffffffffffffffffffffffffffffff021916908373ffffffffffffffffffffffffffffffffffffffff1602179055508173ffffffffffffffffffffffffffffffffffffffff168173ffffffffffffffffffffffffffffffffffffffff167f8be0079c531659141344cd1fd0a4f28419497f9722a3daafe3b4186f6b6457e060405160405180910390a35050565b620002146200029a60201b60201c565b600073ffffffffffffffffffffffffffffffffffffffff168173ffffffffffffffffffffffffffffffffffffffff160362000286576040517f08c379a00000000000000000000000000000000000000000000000000000000081526004016200027d906200048c565b60405180910390fd5b62000297816200014060201b60201c565b50565b620002aa6200013860201b60201c565b73ffffffffffffffffffffffffffffffffffffffff16620002d06200032b60201b60201c565b73ffffffffffffffffffffffffffffffffffffffff161462000329576040517f08c379a00000000000000000000000000000000000000000000000000000000081526004016200032090620004fe565b60405180910390fd5b565b60008060009054906101000a900473ffffffffffffffffffffffffffffffffffffffff16905090565b600080fd5b600073ffffffffffffffffffffffffffffffffffffffff82169050919050565b6000620003868262000359565b9050919050565b620003988162000379565b8114620003a457600080fd5b50565b600081519050620003b8816200038d565b92915050565b60008060408385031215620003d857620003d762000354565b5b6000620003e885828601620003a7565b9250506020620003fb85828601620003a7565b9150509250929050565b600082825260208201905092915050565b7f4f776e61626c653a206e6577206f776e657220697320746865207a65726f206160008201527f6464726573730000000000000000000000000000000000000000000000000000602082015250565b60006200047460268362000405565b9150620004818262000416565b604082019050919050565b60006020820190508181036000830152620004a78162000465565b9050919050565b7f4f776e61626c653a2063616c6c6572206973206e6f7420746865206f776e6572600082015250565b6000620004e660208362000405565b9150620004f382620004ae565b602082019050919050565b600060208201905081810360008301526200051981620004d7565b9050919050565b61241980620005306000396000f3fe60806040526004361061009c5760003560e01c80638da5cb5b116100645780638da5cb5b146101775780639dc7a06a146101a2578063ab1f5b7c146101cd578063ae8e25bd146101f6578063e59a0dad14610221578063f2fde38b1461023d5761009c565b806306964de7146100a1578063219a1d77146100ca5780632f06c573146100f55780635aef244714610120578063715018a614610160575b600080fd5b3480156100ad57600080fd5b506100c860048036038101906100c39190611521565b610266565b005b3480156100d657600080fd5b506100df6106aa565b6040516100ec91906115ab565b60405180910390f35b34801561010157600080fd5b5061010a610702565b6040516101179190611607565b60405180910390f35b34801561012c57600080fd5b5061014760048036038101906101429190611622565b610728565b6040516101579493929190611754565b60405180910390f35b34801561016c57600080fd5b506101756108b4565b005b34801561018357600080fd5b5061018c6108c8565b6040516101999190611607565b60405180910390f35b3480156101ae57600080fd5b506101b76108f1565b6040516101c49190611961565b60405180910390f35b3480156101d957600080fd5b506101f460048036038101906101ef91906119a8565b610c3c565b005b34801561020257600080fd5b5061020b610d57565b6040516102189190611961565b60405180910390f35b61023b60048036038101906102369190611a14565b610f85565b005b34801561024957600080fd5b50610264600480360381019061025f9190611a54565b611149565b005b61027060016111cc565b60008210156102b4576040517f08c379a00000000000000000000000000000000000000000000000000000000081526004016102ab90611acd565b60405180910390fd5b60008151116102f8576040517f08c379a00000000000000000000000000000000000000000000000000000000081526004016102ef90611b39565b60405180910390fd5b600061030460016111e2565b9050600560009054906101000a900473ffffffffffffffffffffffffffffffffffffffff1673ffffffffffffffffffffffffffffffffffffffff16630fe92cae846040518263ffffffff1660e01b81526004016103619190611b59565b602060405180830381865afa15801561037e573d6000803e3d6000fd5b505050506040513d601f19601f820116820180604052508101906103a29190611ba0565b6103e1576040517f08c379a00000000000000000000000000000000000000000000000000000000081526004016103d890611c19565b60405180910390fd5b600660009054906101000a900473ffffffffffffffffffffffffffffffffffffffff1673ffffffffffffffffffffffffffffffffffffffff166352142c8785856040518363ffffffff1660e01b815260040161043e929190611c39565b602060405180830381865afa15801561045b573d6000803e3d6000fd5b505050506040513d601f19601f8201168201806040525081019061047f9190611ba0565b6104be576040517f08c379a00000000000000000000000000000000000000000000000000000000081526004016104b590611cd4565b60405180910390fd5b6040518060a001604052808281526020018481526020013373ffffffffffffffffffffffffffffffffffffffff1681526020018381526020016000600281111561050b5761050a6116dd565b5b81525060036000838152602001908152602001600020600082015181600001556020820151816001015560408201518160020160006101000a81548173ffffffffffffffffffffffffffffffffffffffff021916908373ffffffffffffffffffffffffffffffffffffffff16021790555060608201518160030190816105919190611f00565b5060808201518160040160006101000a81548160ff021916908360028111156105bd576105bc6116dd565b5b02179055509050503373ffffffffffffffffffffffffffffffffffffffff1683827fbee96127fc856f54721f3e15c7d0f27a7947ed6c05f35a313ef16b5ae6653a838560405161060d9190611fd2565b60405180910390a4600560009054906101000a900473ffffffffffffffffffffffffffffffffffffffff1673ffffffffffffffffffffffffffffffffffffffff1663837f574684836040518363ffffffff1660e01b8152600401610672929190611c39565b600060405180830381600087803b15801561068c57600080fd5b505af11580156106a0573d6000803e3d6000fd5b5050505050505050565b60003373ffffffffffffffffffffffffffffffffffffffff16600260009054906101000a900473ffffffffffffffffffffffffffffffffffffffff1673ffffffffffffffffffffffffffffffffffffffff1614905090565b600260009054906101000a900473ffffffffffffffffffffffffffffffffffffffff1681565b6000806060600080600360008781526020019081526020016000209050600073ffffffffffffffffffffffffffffffffffffffff168160020160009054906101000a900473ffffffffffffffffffffffffffffffffffffffff1673ffffffffffffffffffffffffffffffffffffffff16036107d8576040517f08c379a00000000000000000000000000000000000000000000000000000000081526004016107cf90612040565b60405180910390fd5b80600101548160020160009054906101000a900473ffffffffffffffffffffffffffffffffffffffff16826003018360040160009054906101000a900460ff1681805461082490611d23565b80601f016020809104026020016040519081016040528092919081815260200182805461085090611d23565b801561089d5780601f106108725761010080835404028352916020019161089d565b820191906000526020600020905b81548152906001019060200180831161088057829003601f168201915b505050505091509450945094509450509193509193565b6108bc6111f0565b6108c6600061126e565b565b60008060009054906101000a900473ffffffffffffffffffffffffffffffffffffffff16905090565b606060006108ff60016111e2565b9050600080600080600090505b848110156109ac573373ffffffffffffffffffffffffffffffffffffffff166003600060018461093c919061208f565b815260200190815260200160002060020160009054906101000a900473ffffffffffffffffffffffffffffffffffffffff1673ffffffffffffffffffffffffffffffffffffffff160361099957600184610996919061208f565b93505b80806109a4906120c3565b91505061090c565b5060008367ffffffffffffffff8111156109c9576109c86113f6565b5b604051908082528060200260200182016040528015610a0257816020015b6109ef61133a565b8152602001906001900390816109e75790505b50905060005b85811015610c30573373ffffffffffffffffffffffffffffffffffffffff1660036000600184610a38919061208f565b815260200190815260200160002060020160009054906101000a900473ffffffffffffffffffffffffffffffffffffffff1673ffffffffffffffffffffffffffffffffffffffff1603610c1d57600181610a92919061208f565b92506000600360008581526020019081526020016000209050806040518060a001604052908160008201548152602001600182015481526020016002820160009054906101000a900473ffffffffffffffffffffffffffffffffffffffff1673ffffffffffffffffffffffffffffffffffffffff1673ffffffffffffffffffffffffffffffffffffffff168152602001600382018054610b3190611d23565b80601f0160208091040260200160405190810160405280929190818152602001828054610b5d90611d23565b8015610baa5780601f10610b7f57610100808354040283529160200191610baa565b820191906000526020600020905b815481529060010190602001808311610b8d57829003601f168201915b505050505081526020016004820160009054906101000a900460ff166002811115610bd857610bd76116dd565b5b6002811115610bea57610be96116dd565b5b81525050838681518110610c0157610c0061210b565b5b6020026020010181905250600185610c19919061208f565b9450505b8080610c28906120c3565b915050610a08565b50809550505050505090565b610c446111f0565b6000600360008481526020019081526020016000209050600073ffffffffffffffffffffffffffffffffffffffff168160020160009054906101000a900473ffffffffffffffffffffffffffffffffffffffff1673ffffffffffffffffffffffffffffffffffffffff1603610cee576040517f08c379a0000000000000000000000000000000000000000000000000000000008152600401610ce590612040565b60405180910390fd5b818160040160006101000a81548160ff02191690836002811115610d1557610d146116dd565b5b0217905550827f2e7de2377c1e6f85a268dbe00519c60d65c9e38570a118be0eb07feb07fc89be83604051610d4a919061213a565b60405180910390a2505050565b60606000610d6560016111e2565b905060008167ffffffffffffffff811115610d8357610d826113f6565b5b604051908082528060200260200182016040528015610dbc57816020015b610da961133a565b815260200190600190039081610da15790505b50905060008080600090505b84811015610f7a57600181610ddd919061208f565b91506000600360008481526020019081526020016000209050806040518060a001604052908160008201548152602001600182015481526020016002820160009054906101000a900473ffffffffffffffffffffffffffffffffffffffff1673ffffffffffffffffffffffffffffffffffffffff1673ffffffffffffffffffffffffffffffffffffffff168152602001600382018054610e7c90611d23565b80601f0160208091040260200160405190810160405280929190818152602001828054610ea890611d23565b8015610ef55780601f10610eca57610100808354040283529160200191610ef5565b820191906000526020600020905b815481529060010190602001808311610ed857829003601f168201915b505050505081526020016004820160009054906101000a900460ff166002811115610f2357610f226116dd565b5b6002811115610f3557610f346116dd565b5b81525050858581518110610f4c57610f4b61210b565b5b6020026020010181905250600184610f64919061208f565b9350508080610f72906120c3565b915050610dc8565b508294505050505090565b610f8d6111f0565b60003411610fd0576040517f08c379a0000000000000000000000000000000000000000000000000000000008152600401610fc7906121c7565b60405180910390fd5b8073ffffffffffffffffffffffffffffffffffffffff166003600084815260200190815260200160002060020160009054906101000a900473ffffffffffffffffffffffffffffffffffffffff1673ffffffffffffffffffffffffffffffffffffffff1614611074576040517f08c379a000000000000000000000000000000000000000000000000000000000815260040161106b90612233565b60405180910390fd5b60016002811115611088576110876116dd565b5b6003600084815260200190815260200160002060040160009054906101000a900460ff1660028111156110be576110bd6116dd565b5b146110fe576040517f08c379a00000000000000000000000000000000000000000000000000000000081526004016110f5906122c5565b60405180910390fd5b8073ffffffffffffffffffffffffffffffffffffffff166108fc349081150290604051600060405180830381858888f19350505050158015611144573d6000803e3d6000fd5b505050565b6111516111f0565b600073ffffffffffffffffffffffffffffffffffffffff168173ffffffffffffffffffffffffffffffffffffffff16036111c0576040517f08c379a00000000000000000000000000000000000000000000000000000000081526004016111b790612357565b60405180910390fd5b6111c98161126e565b50565b6001816000016000828254019250508190555050565b600081600001549050919050565b6111f8611332565b73ffffffffffffffffffffffffffffffffffffffff166112166108c8565b73ffffffffffffffffffffffffffffffffffffffff161461126c576040517f08c379a0000000000000000000000000000000000000000000000000000000008152600401611263906123c3565b60405180910390fd5b565b60008060009054906101000a900473ffffffffffffffffffffffffffffffffffffffff169050816000806101000a81548173ffffffffffffffffffffffffffffffffffffffff021916908373ffffffffffffffffffffffffffffffffffffffff1602179055508173ffffffffffffffffffffffffffffffffffffffff168173ffffffffffffffffffffffffffffffffffffffff167f8be0079c531659141344cd1fd0a4f28419497f9722a3daafe3b4186f6b6457e060405160405180910390a35050565b600033905090565b6040518060a001604052806000815260200160008152602001600073ffffffffffffffffffffffffffffffffffffffff168152602001606081526020016000600281111561138b5761138a6116dd565b5b81525090565b6000604051905090565b600080fd5b600080fd5b6000819050919050565b6113b8816113a5565b81146113c357600080fd5b50565b6000813590506113d5816113af565b92915050565b600080fd5b600080fd5b6000601f19601f8301169050919050565b7f4e487b7100000000000000000000000000000000000000000000000000000000600052604160045260246000fd5b61142e826113e5565b810181811067ffffffffffffffff8211171561144d5761144c6113f6565b5b80604052505050565b6000611460611391565b905061146c8282611425565b919050565b600067ffffffffffffffff82111561148c5761148b6113f6565b5b611495826113e5565b9050602081019050919050565b82818337600083830152505050565b60006114c46114bf84611471565b611456565b9050828152602081018484840111156114e0576114df6113e0565b5b6114eb8482856114a2565b509392505050565b600082601f830112611508576115076113db565b5b81356115188482602086016114b1565b91505092915050565b60008060006060848603121561153a5761153961139b565b5b6000611548868287016113c6565b9350506020611559868287016113c6565b925050604084013567ffffffffffffffff81111561157a576115796113a0565b5b611586868287016114f3565b9150509250925092565b60008115159050919050565b6115a581611590565b82525050565b60006020820190506115c0600083018461159c565b92915050565b600073ffffffffffffffffffffffffffffffffffffffff82169050919050565b60006115f1826115c6565b9050919050565b611601816115e6565b82525050565b600060208201905061161c60008301846115f8565b92915050565b6000602082840312156116385761163761139b565b5b6000611646848285016113c6565b91505092915050565b611658816113a5565b82525050565b600081519050919050565b600082825260208201905092915050565b60005b8381101561169857808201518184015260208101905061167d565b60008484015250505050565b60006116af8261165e565b6116b98185611669565b93506116c981856020860161167a565b6116d2816113e5565b840191505092915050565b7f4e487b7100000000000000000000000000000000000000000000000000000000600052602160045260246000fd5b6003811061171d5761171c6116dd565b5b50565b600081905061172e8261170c565b919050565b600061173e82611720565b9050919050565b61174e81611733565b82525050565b6000608082019050611769600083018761164f565b61177660208301866115f8565b818103604083015261178881856116a4565b90506117976060830184611745565b95945050505050565b600081519050919050565b600082825260208201905092915050565b6000819050602082019050919050565b6117d5816113a5565b82525050565b60006117e6826115c6565b9050919050565b6117f6816117db565b82525050565b600082825260208201905092915050565b60006118188261165e565b61182281856117fc565b935061183281856020860161167a565b61183b816113e5565b840191505092915050565b61184f81611733565b82525050565b600060a08301600083015161186d60008601826117cc565b50602083015161188060208601826117cc565b50604083015161189360408601826117ed565b50606083015184820360608601526118ab828261180d565b91505060808301516118c06080860182611846565b508091505092915050565b60006118d78383611855565b905092915050565b6000602082019050919050565b60006118f7826117a0565b61190181856117ab565b935083602082028501611913856117bc565b8060005b8581101561194f578484038952815161193085826118cb565b945061193b836118df565b925060208a01995050600181019050611917565b50829750879550505050505092915050565b6000602082019050818103600083015261197b81846118ec565b905092915050565b6003811061199057600080fd5b50565b6000813590506119a281611983565b92915050565b600080604083850312156119bf576119be61139b565b5b60006119cd858286016113c6565b92505060206119de85828601611993565b9150509250929050565b6119f1816115e6565b81146119fc57600080fd5b50565b600081359050611a0e816119e8565b92915050565b60008060408385031215611a2b57611a2a61139b565b5b6000611a39858286016113c6565b9250506020611a4a858286016119ff565b9150509250929050565b600060208284031215611a6a57611a6961139b565b5b6000611a78848285016119ff565b91505092915050565b7f496e76616c696420706f6c696379204944000000000000000000000000000000600082015250565b6000611ab7601183611669565b9150611ac282611a81565b602082019050919050565b60006020820190508181036000830152611ae681611aaa565b9050919050565b7f4465736372697074696f6e2063616e6e6f7420626520656d7074790000000000600082015250565b6000611b23601b83611669565b9150611b2e82611aed565b602082019050919050565b60006020820190508181036000830152611b5281611b16565b9050919050565b6000602082019050611b6e600083018461164f565b92915050565b611b7d81611590565b8114611b8857600080fd5b50565b600081519050611b9a81611b74565b92915050565b600060208284031215611bb657611bb561139b565b5b6000611bc484828501611b8b565b91505092915050565b7f506f6c69637920646f65736e2774206578697374000000000000000000000000600082015250565b6000611c03601483611669565b9150611c0e82611bcd565b602082019050919050565b60006020820190508181036000830152611c3281611bf6565b9050919050565b6000604082019050611c4e600083018561164f565b611c5b602083018461164f565b9392505050565b7f596f7520686176656e2774207265676973746572656420666f7220746865736560008201527f20706f6c6963792c20596f752063616e206e6f7420636c61696d000000000000602082015250565b6000611cbe603a83611669565b9150611cc982611c62565b604082019050919050565b60006020820190508181036000830152611ced81611cb1565b9050919050565b7f4e487b7100000000000000000000000000000000000000000000000000000000600052602260045260246000fd5b60006002820490506001821680611d3b57607f821691505b602082108103611d4e57611d4d611cf4565b5b50919050565b60008190508160005260206000209050919050565b60006020601f8301049050919050565b600082821b905092915050565b600060088302611db67fffffffffffffffffffffffffffffffffffffffffffffffffffffffffffffffff82611d79565b611dc08683611d79565b95508019841693508086168417925050509392505050565b6000819050919050565b6000611dfd611df8611df3846113a5565b611dd8565b6113a5565b9050919050565b6000819050919050565b611e1783611de2565b611e2b611e2382611e04565b848454611d86565b825550505050565b600090565b611e40611e33565b611e4b818484611e0e565b505050565b5b81811015611e6f57611e64600082611e38565b600181019050611e51565b5050565b601f821115611eb457611e8581611d54565b611e8e84611d69565b81016020851015611e9d578190505b611eb1611ea985611d69565b830182611e50565b50505b505050565b600082821c905092915050565b6000611ed760001984600802611eb9565b1980831691505092915050565b6000611ef08383611ec6565b9150826002028217905092915050565b611f098261165e565b67ffffffffffffffff811115611f2257611f216113f6565b5b611f2c8254611d23565b611f37828285611e73565b600060209050601f831160018114611f6a5760008415611f58578287015190505b611f628582611ee4565b865550611fca565b601f198416611f7886611d54565b60005b82811015611fa057848901518255600182019150602085019450602081019050611f7b565b86831015611fbd5784890151611fb9601f891682611ec6565b8355505b6001600288020188555050505b505050505050565b60006020820190508181036000830152611fec81846116a4565b905092915050565b7f436c61696d20646f6573206e6f74206578697374000000000000000000000000600082015250565b600061202a601483611669565b915061203582611ff4565b602082019050919050565b600060208201905081810360008301526120598161201d565b9050919050565b7f4e487b7100000000000000000000000000000000000000000000000000000000600052601160045260246000fd5b600061209a826113a5565b91506120a5836113a5565b92508282019050808211156120bd576120bc612060565b5b92915050565b60006120ce826113a5565b91507fffffffffffffffffffffffffffffffffffffffffffffffffffffffffffffffff8203612100576120ff612060565b5b600182019050919050565b7f4e487b7100000000000000000000000000000000000000000000000000000000600052603260045260246000fd5b600060208201905061214f6000830184611745565b92915050565b7f457468657220616d6f756e74206d75737420626520677265617465722074686160008201527f6e207a65726f0000000000000000000000000000000000000000000000000000602082015250565b60006121b1602683611669565b91506121bc82612155565b604082019050919050565b600060208201905081810360008301526121e0816121a4565b9050919050565b7f496e636f727265637420636c61696d616e742061646472657373000000000000600082015250565b600061221d601a83611669565b9150612228826121e7565b602082019050919050565b6000602082019050818103600083015261224c81612210565b9050919050565b7f436c61696d616e742068617320746f206265206669727374206163636570746560008201527f6400000000000000000000000000000000000000000000000000000000000000602082015250565b60006122af602183611669565b91506122ba82612253565b604082019050919050565b600060208201905081810360008301526122de816122a2565b9050919050565b7f4f776e61626c653a206e6577206f776e657220697320746865207a65726f206160008201527f6464726573730000000000000000000000000000000000000000000000000000602082015250565b6000612341602683611669565b915061234c826122e5565b604082019050919050565b6000602082019050818103600083015261237081612334565b9050919050565b7f4f776e61626c653a2063616c6c6572206973206e6f7420746865206f776e6572600082015250565b60006123ad602083611669565b91506123b882612377565b602082019050919050565b600060208201905081810360008301526123dc816123a0565b905091905056fea26469706673582212201b19a79bf72f97aca0de0faa9dfc806f2b72dd16904e2d464375537ce4873a2964736f6c63430008120033",
  "linkReferences": {},
  "deployedLinkReferences": {}
}