{
  "_format": "hh-sol-artifact-1",
  "contractName": "InsurancePolicyContract",
  "sourceName": "contracts/InsurancePolicyContract.sol",
  "abi": [
    {
      "inputs": [],
      "stateMutability": "nonpayable",
      "type": "constructor"
    },
    {
      "anonymous": false,
      "inputs": [
        {
          "indexed": true,
          "internalType": "uint256",
          "name": "policyId",
          "type": "uint256"
        },
        {
          "indexed": true,
          "internalType": "uint256",
          "name": "claimId",
          "type": "uint256"
        }
      ],
      "name": "ClaimAssociated",
      "type": "event"
    },
    {
      "anonymous": false,
      "inputs": [
        {
          "indexed": true,
          "internalType": "address",
          "name": "previousOwner",
          "type": "address"
        },
        {
          "indexed": true,
          "internalType": "address",
          "name": "newOwner",
          "type": "address"
        }
      ],
      "name": "OwnershipTransferred",
      "type": "event"
    },
    {
      "anonymous": false,
      "inputs": [
        {
          "indexed": true,
          "internalType": "uint256",
          "name": "policyId",
          "type": "uint256"
        },
        {
          "indexed": true,
          "internalType": "address",
          "name": "usersVechice",
          "type": "address"
        },
        {
          "indexed": false,
          "internalType": "uint256",
          "name": "moneyBalance",
          "type": "uint256"
        },
        {
          "indexed": false,
          "internalType": "uint256",
          "name": "timestamp",
          "type": "uint256"
        },
        {
          "indexed": false,
          "internalType": "uint256",
          "name": "endTime",
          "type": "uint256"
        },
        {
          "indexed": false,
          "internalType": "bool",
          "name": "monthlyPaid",
          "type": "bool"
        }
      ],
      "name": "PaymentMade",
      "type": "event"
    },
    {
      "anonymous": false,
      "inputs": [
        {
          "indexed": true,
          "internalType": "uint256",
          "name": "policyId",
          "type": "uint256"
        },
        {
          "indexed": true,
          "internalType": "address",
          "name": "owner",
          "type": "address"
        },
        {
          "indexed": false,
          "internalType": "uint256",
          "name": "premiumAmount",
          "type": "uint256"
        }
      ],
      "name": "PolicyCreated",
      "type": "event"
    },
    {
      "anonymous": false,
      "inputs": [
        {
          "indexed": true,
          "internalType": "uint256",
          "name": "policyId",
          "type": "uint256"
        },
        {
          "indexed": false,
          "internalType": "enum InsurancePolicyContract.PolicyStatus",
          "name": "status",
          "type": "uint8"
        }
      ],
      "name": "PolicyStatusUpdated",
      "type": "event"
    },
    {
      "inputs": [
        {
          "internalType": "uint256",
          "name": "_policyId",
          "type": "uint256"
        },
        {
          "internalType": "uint256",
          "name": "_claimId",
          "type": "uint256"
        }
      ],
      "name": "associateClaim",
      "outputs": [],
      "stateMutability": "nonpayable",
      "type": "function"
    },
    {
      "inputs": [],
      "name": "checkOwnership",
      "outputs": [
        {
          "internalType": "bool",
          "name": "",
          "type": "bool"
        }
      ],
      "stateMutability": "view",
      "type": "function"
    },
    {
      "inputs": [
        {
          "internalType": "uint256",
          "name": "currentTimestamp",
          "type": "uint256"
        }
      ],
      "name": "checkPaymentPeriod",
      "outputs": [
        {
          "internalType": "bool",
          "name": "",
          "type": "bool"
        }
      ],
      "stateMutability": "view",
      "type": "function"
    },
    {
      "inputs": [],
      "name": "conowner",
      "outputs": [
        {
          "internalType": "address",
          "name": "",
          "type": "address"
        }
      ],
      "stateMutability": "view",
      "type": "function"
    },
    {
      "inputs": [
        {
          "internalType": "uint256",
          "name": "_premiumAmount",
          "type": "uint256"
        },
        {
          "internalType": "string",
          "name": "_dataUrl",
          "type": "string"
        }
      ],
      "name": "createPolicy",
      "outputs": [],
      "stateMutability": "nonpayable",
      "type": "function"
    },
    {
      "inputs": [
        {
          "internalType": "address",
          "name": "_owner",
          "type": "address"
        }
      ],
      "name": "getInsurancePoliciesByOwner",
      "outputs": [
        {
          "internalType": "uint256[]",
          "name": "",
          "type": "uint256[]"
        }
      ],
      "stateMutability": "view",
      "type": "function"
    },
    {
      "inputs": [
        {
          "internalType": "uint256",
          "name": "_policyId",
          "type": "uint256"
        }
      ],
      "name": "getPolicy",
      "outputs": [
        {
          "internalType": "uint256",
          "name": "policyId",
          "type": "uint256"
        },
        {
          "internalType": "address",
          "name": "owner",
          "type": "address"
        },
        {
          "internalType": "uint256",
          "name": "premiumAmount",
          "type": "uint256"
        },
        {
          "internalType": "enum InsurancePolicyContract.PolicyStatus",
          "name": "status",
          "type": "uint8"
        },
        {
          "internalType": "uint256[]",
          "name": "claimIds",
          "type": "uint256[]"
        }
      ],
      "stateMutability": "view",
      "type": "function"
    },
    {
      "inputs": [],
      "name": "listAllUserPayments",
      "outputs": [
        {
          "components": [
            {
              "internalType": "uint256",
              "name": "paymentId",
              "type": "uint256"
            },
            {
              "internalType": "uint256",
              "name": "policyId",
              "type": "uint256"
            },
            {
              "internalType": "address",
              "name": "usersVechice",
              "type": "address"
            },
            {
              "internalType": "uint256",
              "name": "moneyBalance",
              "type": "uint256"
            },
            {
              "internalType": "uint256",
              "name": "timestamp",
              "type": "uint256"
            },
            {
              "internalType": "uint256",
              "name": "endtime",
              "type": "uint256"
            },
            {
              "internalType": "bool",
              "name": "monthlyPaid",
              "type": "bool"
            }
          ],
          "internalType": "struct InsurancePolicyContract.UserPayment[]",
          "name": "",
          "type": "tuple[]"
        }
      ],
      "stateMutability": "view",
      "type": "function"
    },
    {
      "inputs": [],
      "name": "listInsurancePolicies",
      "outputs": [
        {
          "components": [
            {
              "internalType": "uint256",
              "name": "policyId",
              "type": "uint256"
            },
            {
              "internalType": "address",
              "name": "owner",
              "type": "address"
            },
            {
              "internalType": "uint256",
              "name": "premiumAmount",
              "type": "uint256"
            },
            {
              "internalType": "string",
              "name": "dataUrl",
              "type": "string"
            },
            {
              "internalType": "enum InsurancePolicyContract.PolicyStatus",
              "name": "status",
              "type": "uint8"
            },
            {
              "internalType": "bool",
              "name": "isRegistered",
              "type": "bool"
            },
            {
              "internalType": "uint256[]",
              "name": "claimIds",
              "type": "uint256[]"
            }
          ],
          "internalType": "struct InsurancePolicyContract.PolicyInfo[]",
          "name": "",
          "type": "tuple[]"
        }
      ],
      "stateMutability": "view",
      "type": "function"
    },
    {
      "inputs": [
        {
          "internalType": "uint256",
          "name": "_policyId",
          "type": "uint256"
        }
      ],
      "name": "monthlyAmountofPolicy",
      "outputs": [
        {
          "internalType": "uint256",
          "name": "",
          "type": "uint256"
        }
      ],
      "stateMutability": "view",
      "type": "function"
    },
    {
      "inputs": [
        {
          "internalType": "uint256",
          "name": "_policyId",
          "type": "uint256"
        }
      ],
      "name": "monthlyPayment",
      "outputs": [],
      "stateMutability": "payable",
      "type": "function"
    },
    {
      "inputs": [],
      "name": "owner",
      "outputs": [
        {
          "internalType": "address",
          "name": "",
          "type": "address"
        }
      ],
      "stateMutability": "view",
      "type": "function"
    },
    {
      "inputs": [
        {
          "internalType": "uint256",
          "name": "",
          "type": "uint256"
        }
      ],
      "name": "payments",
      "outputs": [
        {
          "internalType": "uint256",
          "name": "paymentId",
          "type": "uint256"
        },
        {
          "internalType": "uint256",
          "name": "policyId",
          "type": "uint256"
        },
        {
          "internalType": "address",
          "name": "usersVechice",
          "type": "address"
        },
        {
          "internalType": "uint256",
          "name": "moneyBalance",
          "type": "uint256"
        },
        {
          "internalType": "uint256",
          "name": "timestamp",
          "type": "uint256"
        },
        {
          "internalType": "uint256",
          "name": "endtime",
          "type": "uint256"
        },
        {
          "internalType": "bool",
          "name": "monthlyPaid",
          "type": "bool"
        }
      ],
      "stateMutability": "view",
      "type": "function"
    },
    {
      "inputs": [
        {
          "internalType": "uint256",
          "name": "_policyId",
          "type": "uint256"
        }
      ],
      "name": "policyExists",
      "outputs": [
        {
          "internalType": "bool",
          "name": "",
          "type": "bool"
        }
      ],
      "stateMutability": "view",
      "type": "function"
    },
    {
      "inputs": [],
      "name": "renounceOwnership",
      "outputs": [],
      "stateMutability": "nonpayable",
      "type": "function"
    },
    {
      "inputs": [
        {
          "internalType": "address",
          "name": "newOwner",
          "type": "address"
        }
      ],
      "name": "transferOwnership",
      "outputs": [],
      "stateMutability": "nonpayable",
      "type": "function"
    },
    {
      "inputs": [
        {
          "internalType": "uint256",
          "name": "index",
          "type": "uint256"
        }
      ],
      "name": "updateNextTime",
      "outputs": [
        {
          "internalType": "string",
          "name": "",
          "type": "string"
        }
      ],
      "stateMutability": "nonpayable",
      "type": "function"
    },
    {
      "inputs": [
        {
          "internalType": "uint256",
          "name": "_policyId",
          "type": "uint256"
        },
        {
          "internalType": "enum InsurancePolicyContract.PolicyStatus",
          "name": "_status",
          "type": "uint8"
        }
      ],
      "name": "updatePolicyStatus",
      "outputs": [],
      "stateMutability": "nonpayable",
      "type": "function"
    },
    {
      "inputs": [
        {
          "internalType": "address",
          "name": "user",
          "type": "address"
        }
      ],
      "name": "userpaymentId",
      "outputs": [
        {
          "internalType": "uint256",
          "name": "",
          "type": "uint256"
        }
      ],
      "stateMutability": "view",
      "type": "function"
    },
    {
      "inputs": [
        {
          "internalType": "address",
          "name": "",
          "type": "address"
        }
      ],
      "name": "userpaysinfo",
      "outputs": [
        {
          "internalType": "uint256",
          "name": "paymentId",
          "type": "uint256"
        },
        {
          "internalType": "uint256",
          "name": "policyId",
          "type": "uint256"
        }
      ],
      "stateMutability": "view",
      "type": "function"
    }
  ],
  "bytecode": "0x608060405260016007553480156200001657600080fd5b50620000376200002b6200008f60201b60201c565b6200009760201b60201c565b62000048336200015b60201b60201c565b33600360006101000a81548173ffffffffffffffffffffffffffffffffffffffff021916908373ffffffffffffffffffffffffffffffffffffffff160217905550620003c6565b600033905090565b60008060009054906101000a900473ffffffffffffffffffffffffffffffffffffffff169050816000806101000a81548173ffffffffffffffffffffffffffffffffffffffff021916908373ffffffffffffffffffffffffffffffffffffffff1602179055508173ffffffffffffffffffffffffffffffffffffffff168173ffffffffffffffffffffffffffffffffffffffff167f8be0079c531659141344cd1fd0a4f28419497f9722a3daafe3b4186f6b6457e060405160405180910390a35050565b6200016b620001f160201b60201c565b600073ffffffffffffffffffffffffffffffffffffffff168173ffffffffffffffffffffffffffffffffffffffff1603620001dd576040517f08c379a0000000000000000000000000000000000000000000000000000000008152600401620001d49062000332565b60405180910390fd5b620001ee816200009760201b60201c565b50565b620002016200008f60201b60201c565b73ffffffffffffffffffffffffffffffffffffffff16620002276200028260201b60201c565b73ffffffffffffffffffffffffffffffffffffffff161462000280576040517f08c379a00000000000000000000000000000000000000000000000000000000081526004016200027790620003a4565b60405180910390fd5b565b60008060009054906101000a900473ffffffffffffffffffffffffffffffffffffffff16905090565b600082825260208201905092915050565b7f4f776e61626c653a206e6577206f776e657220697320746865207a65726f206160008201527f6464726573730000000000000000000000000000000000000000000000000000602082015250565b60006200031a602683620002ab565b91506200032782620002bc565b604082019050919050565b600060208201905081810360008301526200034d816200030b565b9050919050565b7f4f776e61626c653a2063616c6c6572206973206e6f7420746865206f776e6572600082015250565b60006200038c602083620002ab565b9150620003998262000354565b602082019050919050565b60006020820190508181036000830152620003bf816200037d565b9050919050565b612d6b80620003d66000396000f3fe60806040526004361061011f5760003560e01c80638da5cb5b116100a0578063bc047c4911610064578063bc047c491461041d578063d367a1571461045a578063dc0e042214610483578063e005cb3a146104ae578063f2fde38b146104d95761011f565b80638da5cb5b1461033257806394043d341461035d57806394e3f5a114610379578063a1fbc9da146103b6578063b963a5d1146103f45761011f565b80636a3f198c116100e75780636a3f198c14610235578063715018a614610272578063837f57461461028957806387d81789146102b25780638d08ed33146102f55761011f565b80630fe92cae14610124578063219a1d77146101615780632b07fce31461018c5780632f06c573146101cd5780636956e642146101f8575b600080fd5b34801561013057600080fd5b5061014b60048036038101906101469190611aa6565b610502565b6040516101589190611aee565b60405180910390f35b34801561016d57600080fd5b5061017661052f565b6040516101839190611aee565b60405180910390f35b34801561019857600080fd5b506101b360048036038101906101ae9190611aa6565b610587565b6040516101c4959493929190611c8e565b60405180910390f35b3480156101d957600080fd5b506101e2610651565b6040516101ef9190611ce8565b60405180910390f35b34801561020457600080fd5b5061021f600480360381019061021a9190611d2f565b610677565b60405161022c9190611d5c565b60405180910390f35b34801561024157600080fd5b5061025c60048036038101906102579190611aa6565b6107a5565b6040516102699190611aee565b60405180910390f35b34801561027e57600080fd5b50610287610873565b005b34801561029557600080fd5b506102b060048036038101906102ab9190611d7e565b610887565b005b3480156102be57600080fd5b506102d960048036038101906102d49190611aa6565b61098f565b6040516102ec9796959493929190611dbe565b60405180910390f35b34801561030157600080fd5b5061031c60048036038101906103179190611aa6565b6109fe565b6040516103299190611ebd565b60405180910390f35b34801561033e57600080fd5b50610347610ad8565b6040516103549190611ce8565b60405180910390f35b61037760048036038101906103729190611aa6565b610b01565b005b34801561038557600080fd5b506103a0600480360381019061039b9190611aa6565b610efb565b6040516103ad9190611edf565b60405180910390f35b3480156103c257600080fd5b506103dd60048036038101906103d89190611d2f565b610f2c565b6040516103eb929190611efa565b60405180910390f35b34801561040057600080fd5b5061041b60048036038101906104169190611f48565b610f50565b005b34801561042957600080fd5b50610444600480360381019061043f9190611d2f565b61106b565b6040516104519190611edf565b60405180910390f35b34801561046657600080fd5b50610481600480360381019061047c91906120bd565b6110b7565b005b34801561048f57600080fd5b5061049861130a565b6040516104a59190612274565b60405180910390f35b3480156104ba57600080fd5b506104c36114a4565b6040516104d091906124c3565b60405180910390f35b3480156104e557600080fd5b5061050060048036038101906104fb9190611d2f565b611745565b005b60006005600083815260200190815260200160002060040160019054906101000a900460ff169050919050565b60003373ffffffffffffffffffffffffffffffffffffffff16600360009054906101000a900473ffffffffffffffffffffffffffffffffffffffff1673ffffffffffffffffffffffffffffffffffffffff1614905090565b6000806000806060600060056000888152602001908152602001600020905080600001548160010160009054906101000a900473ffffffffffffffffffffffffffffffffffffffff1682600201548360040160009054906101000a900460ff16846005018080548060200260200160405190810160405280929190818152602001828054801561063657602002820191906000526020600020905b815481526020019060010190808311610622575b50505050509050955095509550955095505091939590929450565b600360009054906101000a900473ffffffffffffffffffffffffffffffffffffffff1681565b6060600060075467ffffffffffffffff81111561069757610696611f92565b5b6040519080825280602002602001820160405280156106c55781602001602082028036833780820191505090505b5090506000805b600754811015610797578473ffffffffffffffffffffffffffffffffffffffff166005600083815260200190815260200160002060010160009054906101000a900473ffffffffffffffffffffffffffffffffffffffff1673ffffffffffffffffffffffffffffffffffffffff1603610784576005600082815260200190815260200160002060000154838381518110610769576107686124e5565b5b602002602001018181525050818061078090612543565b9250505b808061078f90612543565b9150506106cc565b508082528192505050919050565b6000806107b260026117c8565b90506000600190505b818111610867573373ffffffffffffffffffffffffffffffffffffffff166004600083815260200190815260200160002060020160009054906101000a900473ffffffffffffffffffffffffffffffffffffffff1673ffffffffffffffffffffffffffffffffffffffff160361085457836004600083815260200190815260200160002060050154036108535760019250505061086e565b5b808061085f90612543565b9150506107bb565b5060009150505b919050565b61087b6117d6565b6108856000611854565b565b6000600560008481526020019081526020016000209050600073ffffffffffffffffffffffffffffffffffffffff168160010160009054906101000a900473ffffffffffffffffffffffffffffffffffffffff1673ffffffffffffffffffffffffffffffffffffffff1603610931576040517f08c379a0000000000000000000000000000000000000000000000000000000008152600401610928906125d7565b60405180910390fd5b8060050182908060018154018082558091505060019003906000526020600020016000909190919091505581837f6209d5e57427b535a493ae090f045c5a41900a11fa9105e1a4753629e410d33260405160405180910390a3505050565b60046020528060005260406000206000915090508060000154908060010154908060020160009054906101000a900473ffffffffffffffffffffffffffffffffffffffff16908060030154908060040154908060050154908060060160009054906101000a900460ff16905087565b60606004600083815260200190815260200160002060050154421115610a9a5762278d006004600084815260200190815260200160002060050154610a4391906125f7565b60046000848152602001908152602001600020600501819055506040518060400160405280601781526020017f706179207468657365206d6f6e7468207061796d656e740000000000000000008152509050610ad3565b6040518060400160405280601b81526020017f596f7572207061796d656e74206973206e6f742064756520796574000000000081525090505b919050565b60008060009054906101000a900473ffffffffffffffffffffffffffffffffffffffff16905090565b6000600a6005600084815260200190815260200160002060020154610b26919061265a565b9050803414610b6a576040517f08c379a0000000000000000000000000000000000000000000000000000000008152600401610b61906126fd565b60405180910390fd5b6000610b753361106b565b90506000600460008381526020019081526020016000206005015414610bee5760046000828152602001908152602001600020600501544211610bed576040517f08c379a0000000000000000000000000000000000000000000000000000000008152600401610be49061278f565b60405180910390fd5b5b610bf86002611918565b6000610c0460026117c8565b905082600460008481526020019081526020016000206003016000828254610c2c91906125f7565b925050819055506000600460008481526020019081526020016000206003015490506005600086815260200190815260200160002060020154811115610ca7576040517f08c379a0000000000000000000000000000000000000000000000000000000008152600401610c9e90612847565b60405180910390fd5b600062278d0042610cb891906125f7565b90506040518060e001604052808481526020018781526020013373ffffffffffffffffffffffffffffffffffffffff1681526020018381526020014281526020018281526020016001151581525060046000858152602001908152602001600020600082015181600001556020820151816001015560408201518160020160006101000a81548173ffffffffffffffffffffffffffffffffffffffff021916908373ffffffffffffffffffffffffffffffffffffffff160217905550606082015181600301556080820151816004015560a0820151816005015560c08201518160060160006101000a81548160ff021916908315150217905550905050604051806040016040528084815260200187815250600660003373ffffffffffffffffffffffffffffffffffffffff1673ffffffffffffffffffffffffffffffffffffffff16815260200190815260200160002060008201518160000155602082015181600101559050503373ffffffffffffffffffffffffffffffffffffffff16867f4e7745f719c82aad5e35ff7c78f6753527f8c88fa963dc96c8d0a13f67ad10028742856001604051610e6e9493929190612867565b60405180910390a36005600087815260200190815260200160002060010160009054906101000a900473ffffffffffffffffffffffffffffffffffffffff1673ffffffffffffffffffffffffffffffffffffffff166108fc349081150290604051600060405180830381858888f19350505050158015610ef2573d6000803e3d6000fd5b50505050505050565b600080600a6005600085815260200190815260200160002060020154610f21919061265a565b905080915050919050565b60066020528060005260406000206000915090508060000154908060010154905082565b610f586117d6565b6000600560008481526020019081526020016000209050600073ffffffffffffffffffffffffffffffffffffffff168160010160009054906101000a900473ffffffffffffffffffffffffffffffffffffffff1673ffffffffffffffffffffffffffffffffffffffff1603611002576040517f08c379a0000000000000000000000000000000000000000000000000000000008152600401610ff9906125d7565b60405180910390fd5b818160040160006101000a81548160ff0219169083600181111561102957611028611b59565b5b0217905550827fddba6ca814ce3f0cb8c9b4b44e5e1891ef8c2857746e6b7453464abc1539209b8360405161105e91906128ac565b60405180910390a2505050565b6000600660008373ffffffffffffffffffffffffffffffffffffffff1673ffffffffffffffffffffffffffffffffffffffff168152602001908152602001600020600001549050919050565b6110bf6117d6565b6110c96001611918565b6000821161110c576040517f08c379a000000000000000000000000000000000000000000000000000000000815260040161110390612939565b60405180910390fd5b600061111860016117c8565b90506040518060e001604052808281526020013373ffffffffffffffffffffffffffffffffffffffff1681526020018481526020018381526020016000600181111561116757611166611b59565b5b8152602001600115158152602001600067ffffffffffffffff8111156111905761118f611f92565b5b6040519080825280602002602001820160405280156111be5781602001602082028036833780820191505090505b50815250600560008381526020019081526020016000206000820151816000015560208201518160010160006101000a81548173ffffffffffffffffffffffffffffffffffffffff021916908373ffffffffffffffffffffffffffffffffffffffff1602179055506040820151816002015560608201518160030190816112459190612b65565b5060808201518160040160006101000a81548160ff0219169083600181111561127157611270611b59565b5b021790555060a08201518160040160016101000a81548160ff02191690831515021790555060c08201518160050190805190602001906112b2929190611936565b509050503373ffffffffffffffffffffffffffffffffffffffff16817f601882301d3e3fce7fe3a99d4bb17ef5b6699b417bdd29f2bfb82e19fcbcb660856040516112fd9190611edf565b60405180910390a3505050565b6060600061131860016117c8565b905060008167ffffffffffffffff81111561133657611335611f92565b5b60405190808252806020026020018201604052801561136f57816020015b61135c611983565b8152602001906001900390816113545790505b50905060008080600090505b848110156114995760018161139091906125f7565b91506000600460008481526020019081526020016000209050806040518060e001604052908160008201548152602001600182015481526020016002820160009054906101000a900473ffffffffffffffffffffffffffffffffffffffff1673ffffffffffffffffffffffffffffffffffffffff1673ffffffffffffffffffffffffffffffffffffffff1681526020016003820154815260200160048201548152602001600582015481526020016006820160009054906101000a900460ff16151515158152505085858151811061146b5761146a6124e5565b5b602002602001018190525060018461148391906125f7565b935050808061149190612543565b91505061137b565b508294505050505090565b606060006114b260016117c8565b905060008167ffffffffffffffff8111156114d0576114cf611f92565b5b60405190808252806020026020018201604052801561150957816020015b6114f66119d8565b8152602001906001900390816114ee5790505b50905060008080600090505b8481101561173a5760018161152a91906125f7565b91506000600560008481526020019081526020016000209050806040518060e0016040529081600082015481526020016001820160009054906101000a900473ffffffffffffffffffffffffffffffffffffffff1673ffffffffffffffffffffffffffffffffffffffff1673ffffffffffffffffffffffffffffffffffffffff168152602001600282015481526020016003820180546115c990612988565b80601f01602080910402602001604051908101604052809291908181526020018280546115f590612988565b80156116425780601f1061161757610100808354040283529160200191611642565b820191906000526020600020905b81548152906001019060200180831161162557829003601f168201915b505050505081526020016004820160009054906101000a900460ff1660018111156116705761166f611b59565b5b600181111561168257611681611b59565b5b81526020016004820160019054906101000a900460ff16151515158152602001600582018054806020026020016040519081016040528092919081815260200182805480156116f057602002820191906000526020600020905b8154815260200190600101908083116116dc575b50505050508152505085858151811061170c5761170b6124e5565b5b602002602001018190525060018461172491906125f7565b935050808061173290612543565b915050611515565b508294505050505090565b61174d6117d6565b600073ffffffffffffffffffffffffffffffffffffffff168173ffffffffffffffffffffffffffffffffffffffff16036117bc576040517f08c379a00000000000000000000000000000000000000000000000000000000081526004016117b390612ca9565b60405180910390fd5b6117c581611854565b50565b600081600001549050919050565b6117de61192e565b73ffffffffffffffffffffffffffffffffffffffff166117fc610ad8565b73ffffffffffffffffffffffffffffffffffffffff1614611852576040517f08c379a000000000000000000000000000000000000000000000000000000000815260040161184990612d15565b60405180910390fd5b565b60008060009054906101000a900473ffffffffffffffffffffffffffffffffffffffff169050816000806101000a81548173ffffffffffffffffffffffffffffffffffffffff021916908373ffffffffffffffffffffffffffffffffffffffff1602179055508173ffffffffffffffffffffffffffffffffffffffff168173ffffffffffffffffffffffffffffffffffffffff167f8be0079c531659141344cd1fd0a4f28419497f9722a3daafe3b4186f6b6457e060405160405180910390a35050565b6001816000016000828254019250508190555050565b600033905090565b828054828255906000526020600020908101928215611972579160200282015b82811115611971578251825591602001919060010190611956565b5b50905061197f9190611a3f565b5090565b6040518060e001604052806000815260200160008152602001600073ffffffffffffffffffffffffffffffffffffffff1681526020016000815260200160008152602001600081526020016000151581525090565b6040518060e0016040528060008152602001600073ffffffffffffffffffffffffffffffffffffffff168152602001600081526020016060815260200160006001811115611a2957611a28611b59565b5b8152602001600015158152602001606081525090565b5b80821115611a58576000816000905550600101611a40565b5090565b6000604051905090565b600080fd5b600080fd5b6000819050919050565b611a8381611a70565b8114611a8e57600080fd5b50565b600081359050611aa081611a7a565b92915050565b600060208284031215611abc57611abb611a66565b5b6000611aca84828501611a91565b91505092915050565b60008115159050919050565b611ae881611ad3565b82525050565b6000602082019050611b036000830184611adf565b92915050565b611b1281611a70565b82525050565b600073ffffffffffffffffffffffffffffffffffffffff82169050919050565b6000611b4382611b18565b9050919050565b611b5381611b38565b82525050565b7f4e487b7100000000000000000000000000000000000000000000000000000000600052602160045260246000fd5b60028110611b9957611b98611b59565b5b50565b6000819050611baa82611b88565b919050565b6000611bba82611b9c565b9050919050565b611bca81611baf565b82525050565b600081519050919050565b600082825260208201905092915050565b6000819050602082019050919050565b611c0581611a70565b82525050565b6000611c178383611bfc565b60208301905092915050565b6000602082019050919050565b6000611c3b82611bd0565b611c458185611bdb565b9350611c5083611bec565b8060005b83811015611c81578151611c688882611c0b565b9750611c7383611c23565b925050600181019050611c54565b5085935050505092915050565b600060a082019050611ca36000830188611b09565b611cb06020830187611b4a565b611cbd6040830186611b09565b611cca6060830185611bc1565b8181036080830152611cdc8184611c30565b90509695505050505050565b6000602082019050611cfd6000830184611b4a565b92915050565b611d0c81611b38565b8114611d1757600080fd5b50565b600081359050611d2981611d03565b92915050565b600060208284031215611d4557611d44611a66565b5b6000611d5384828501611d1a565b91505092915050565b60006020820190508181036000830152611d768184611c30565b905092915050565b60008060408385031215611d9557611d94611a66565b5b6000611da385828601611a91565b9250506020611db485828601611a91565b9150509250929050565b600060e082019050611dd3600083018a611b09565b611de06020830189611b09565b611ded6040830188611b4a565b611dfa6060830187611b09565b611e076080830186611b09565b611e1460a0830185611b09565b611e2160c0830184611adf565b98975050505050505050565b600081519050919050565b600082825260208201905092915050565b60005b83811015611e67578082015181840152602081019050611e4c565b60008484015250505050565b6000601f19601f8301169050919050565b6000611e8f82611e2d565b611e998185611e38565b9350611ea9818560208601611e49565b611eb281611e73565b840191505092915050565b60006020820190508181036000830152611ed78184611e84565b905092915050565b6000602082019050611ef46000830184611b09565b92915050565b6000604082019050611f0f6000830185611b09565b611f1c6020830184611b09565b9392505050565b60028110611f3057600080fd5b50565b600081359050611f4281611f23565b92915050565b60008060408385031215611f5f57611f5e611a66565b5b6000611f6d85828601611a91565b9250506020611f7e85828601611f33565b9150509250929050565b600080fd5b600080fd5b7f4e487b7100000000000000000000000000000000000000000000000000000000600052604160045260246000fd5b611fca82611e73565b810181811067ffffffffffffffff82111715611fe957611fe8611f92565b5b80604052505050565b6000611ffc611a5c565b90506120088282611fc1565b919050565b600067ffffffffffffffff82111561202857612027611f92565b5b61203182611e73565b9050602081019050919050565b82818337600083830152505050565b600061206061205b8461200d565b611ff2565b90508281526020810184848401111561207c5761207b611f8d565b5b61208784828561203e565b509392505050565b600082601f8301126120a4576120a3611f88565b5b81356120b484826020860161204d565b91505092915050565b600080604083850312156120d4576120d3611a66565b5b60006120e285828601611a91565b925050602083013567ffffffffffffffff81111561210357612102611a6b565b5b61210f8582860161208f565b9150509250929050565b600081519050919050565b600082825260208201905092915050565b6000819050602082019050919050565b61214e81611b38565b82525050565b61215d81611ad3565b82525050565b60e0820160008201516121796000850182611bfc565b50602082015161218c6020850182611bfc565b50604082015161219f6040850182612145565b5060608201516121b26060850182611bfc565b5060808201516121c56080850182611bfc565b5060a08201516121d860a0850182611bfc565b5060c08201516121eb60c0850182612154565b50505050565b60006121fd8383612163565b60e08301905092915050565b6000602082019050919050565b600061222182612119565b61222b8185612124565b935061223683612135565b8060005b8381101561226757815161224e88826121f1565b975061225983612209565b92505060018101905061223a565b5085935050505092915050565b6000602082019050818103600083015261228e8184612216565b905092915050565b600081519050919050565b600082825260208201905092915050565b6000819050602082019050919050565b600082825260208201905092915050565b60006122de82611e2d565b6122e881856122c2565b93506122f8818560208601611e49565b61230181611e73565b840191505092915050565b61231581611baf565b82525050565b600082825260208201905092915050565b600061233782611bd0565b612341818561231b565b935061234c83611bec565b8060005b8381101561237d5781516123648882611c0b565b975061236f83611c23565b925050600181019050612350565b5085935050505092915050565b600060e0830160008301516123a26000860182611bfc565b5060208301516123b56020860182612145565b5060408301516123c86040860182611bfc565b50606083015184820360608601526123e082826122d3565b91505060808301516123f5608086018261230c565b5060a083015161240860a0860182612154565b5060c083015184820360c0860152612420828261232c565b9150508091505092915050565b6000612439838361238a565b905092915050565b6000602082019050919050565b600061245982612296565b61246381856122a1565b935083602082028501612475856122b2565b8060005b858110156124b15784840389528151612492858261242d565b945061249d83612441565b925060208a01995050600181019050612479565b50829750879550505050505092915050565b600060208201905081810360008301526124dd818461244e565b905092915050565b7f4e487b7100000000000000000000000000000000000000000000000000000000600052603260045260246000fd5b7f4e487b7100000000000000000000000000000000000000000000000000000000600052601160045260246000fd5b600061254e82611a70565b91507fffffffffffffffffffffffffffffffffffffffffffffffffffffffffffffffff82036125805761257f612514565b5b600182019050919050565b7f506f6c69637920646f6573206e6f742065786973740000000000000000000000600082015250565b60006125c1601583611e38565b91506125cc8261258b565b602082019050919050565b600060208201905081810360008301526125f0816125b4565b9050919050565b600061260282611a70565b915061260d83611a70565b925082820190508082111561262557612624612514565b5b92915050565b7f4e487b7100000000000000000000000000000000000000000000000000000000600052601260045260246000fd5b600061266582611a70565b915061267083611a70565b9250826126805761267f61262b565b5b828204905092915050565b7f416d6f756e74206d75737420626520657175616c20746f20746865206d6f6e7460008201527f686c79207061796d656e74000000000000000000000000000000000000000000602082015250565b60006126e7602b83611e38565b91506126f28261268b565b604082019050919050565b60006020820190508181036000830152612716816126da565b9050919050565b7f596f7572206d6f6e74686c79207061796d656e74206973206e6f74206475652060008201527f7965740000000000000000000000000000000000000000000000000000000000602082015250565b6000612779602383611e38565b91506127848261271d565b604082019050919050565b600060208201905081810360008301526127a88161276c565b9050919050565b7f796f752068617665207061696420616c6c2074686520796561726c792070726560008201527f6d696d756d20706c616e2c2072656e657720697420746f206b65657020676f6960208201527f6e672e0000000000000000000000000000000000000000000000000000000000604082015250565b6000612831604383611e38565b915061283c826127af565b606082019050919050565b6000602082019050818103600083015261286081612824565b9050919050565b600060808201905061287c6000830187611b09565b6128896020830186611b09565b6128966040830185611b09565b6128a36060830184611adf565b95945050505050565b60006020820190506128c16000830184611bc1565b92915050565b7f5072656d69756d20616d6f756e74206d7573742062652067726561746572207460008201527f68616e207a65726f000000000000000000000000000000000000000000000000602082015250565b6000612923602883611e38565b915061292e826128c7565b604082019050919050565b6000602082019050818103600083015261295281612916565b9050919050565b7f4e487b7100000000000000000000000000000000000000000000000000000000600052602260045260246000fd5b600060028204905060018216806129a057607f821691505b6020821081036129b3576129b2612959565b5b50919050565b60008190508160005260206000209050919050565b60006020601f8301049050919050565b600082821b905092915050565b600060088302612a1b7fffffffffffffffffffffffffffffffffffffffffffffffffffffffffffffffff826129de565b612a2586836129de565b95508019841693508086168417925050509392505050565b6000819050919050565b6000612a62612a5d612a5884611a70565b612a3d565b611a70565b9050919050565b6000819050919050565b612a7c83612a47565b612a90612a8882612a69565b8484546129eb565b825550505050565b600090565b612aa5612a98565b612ab0818484612a73565b505050565b5b81811015612ad457612ac9600082612a9d565b600181019050612ab6565b5050565b601f821115612b1957612aea816129b9565b612af3846129ce565b81016020851015612b02578190505b612b16612b0e856129ce565b830182612ab5565b50505b505050565b600082821c905092915050565b6000612b3c60001984600802612b1e565b1980831691505092915050565b6000612b558383612b2b565b9150826002028217905092915050565b612b6e82611e2d565b67ffffffffffffffff811115612b8757612b86611f92565b5b612b918254612988565b612b9c828285612ad8565b600060209050601f831160018114612bcf5760008415612bbd578287015190505b612bc78582612b49565b865550612c2f565b601f198416612bdd866129b9565b60005b82811015612c0557848901518255600182019150602085019450602081019050612be0565b86831015612c225784890151612c1e601f891682612b2b565b8355505b6001600288020188555050505b505050505050565b7f4f776e61626c653a206e6577206f776e657220697320746865207a65726f206160008201527f6464726573730000000000000000000000000000000000000000000000000000602082015250565b6000612c93602683611e38565b9150612c9e82612c37565b604082019050919050565b60006020820190508181036000830152612cc281612c86565b9050919050565b7f4f776e61626c653a2063616c6c6572206973206e6f7420746865206f776e6572600082015250565b6000612cff602083611e38565b9150612d0a82612cc9565b602082019050919050565b60006020820190508181036000830152612d2e81612cf2565b905091905056fea26469706673582212205fd9fa1396cdea5d7a271f7c633064fceeaea783e39323229963f6fda8eed37264736f6c63430008120033",
  "linkReferences": {},
  "deployedLinkReferences": {}
}