{
  "_format": "hh-sol-artifact-1",
  "contractName": "VehicleContract",
  "sourceName": "contracts/VehicleContract.sol",
  "abi": [
    {
      "inputs": [
        {
          "internalType": "address",
          "name": "_insurancePolicyContractAddress",
          "type": "address"
        }
      ],
      "stateMutability": "nonpayable",
      "type": "constructor"
    },
    {
      "anonymous": false,
      "inputs": [
        {
          "indexed": true,
          "internalType": "address",
          "name": "owner",
          "type": "address"
        },
        {
          "indexed": false,
          "internalType": "string",
          "name": "licensePlate",
          "type": "string"
        },
        {
          "indexed": false,
          "internalType": "string",
          "name": "vehicledata",
          "type": "string"
        }
      ],
      "name": "VehicleCreated",
      "type": "event"
    },
    {
      "inputs": [],
      "name": "checkOwnership",
      "outputs": [
        {
          "internalType": "bool",
          "name": "",
          "type": "bool"
        }
      ],
      "stateMutability": "view",
      "type": "function"
    },
    {
      "inputs": [
        {
          "internalType": "uint256",
          "name": "index",
          "type": "uint256"
        },
        {
          "internalType": "uint256",
          "name": "policyId",
          "type": "uint256"
        }
      ],
      "name": "checkVehicle",
      "outputs": [
        {
          "internalType": "bool",
          "name": "",
          "type": "bool"
        }
      ],
      "stateMutability": "view",
      "type": "function"
    },
    {
      "inputs": [],
      "name": "conowner",
      "outputs": [
        {
          "internalType": "address",
          "name": "",
          "type": "address"
        }
      ],
      "stateMutability": "view",
      "type": "function"
    },
    {
      "inputs": [
        {
          "internalType": "string",
          "name": "_licensePlate",
          "type": "string"
        },
        {
          "internalType": "uint256",
          "name": "policyId",
          "type": "uint256"
        },
        {
          "internalType": "string",
          "name": "vehicledata",
          "type": "string"
        }
      ],
      "name": "createVehicle",
      "outputs": [],
      "stateMutability": "nonpayable",
      "type": "function"
    },
    {
      "inputs": [],
      "name": "findyourPaymentId",
      "outputs": [
        {
          "internalType": "uint256",
          "name": "",
          "type": "uint256"
        }
      ],
      "stateMutability": "view",
      "type": "function"
    },
    {
      "inputs": [],
      "name": "getAllVehicles",
      "outputs": [
        {
          "components": [
            {
              "internalType": "uint256",
              "name": "vehicleId",
              "type": "uint256"
            },
            {
              "internalType": "address",
              "name": "vehicleOwnerAddress",
              "type": "address"
            },
            {
              "internalType": "string",
              "name": "vehicledata",
              "type": "string"
            },
            {
              "internalType": "string",
              "name": "licensePlate",
              "type": "string"
            },
            {
              "internalType": "uint256",
              "name": "policyId",
              "type": "uint256"
            }
          ],
          "internalType": "struct VehicleContract.VehicleInfo[]",
          "name": "",
          "type": "tuple[]"
        }
      ],
      "stateMutability": "view",
      "type": "function"
    },
    {
      "inputs": [],
      "name": "getMyVehicles",
      "outputs": [
        {
          "components": [
            {
              "internalType": "uint256",
              "name": "vehicleId",
              "type": "uint256"
            },
            {
              "internalType": "address",
              "name": "vehicleOwnerAddress",
              "type": "address"
            },
            {
              "internalType": "string",
              "name": "vehicledata",
              "type": "string"
            },
            {
              "internalType": "string",
              "name": "licensePlate",
              "type": "string"
            },
            {
              "internalType": "uint256",
              "name": "policyId",
              "type": "uint256"
            }
          ],
          "internalType": "struct VehicleContract.VehicleInfo[]",
          "name": "",
          "type": "tuple[]"
        }
      ],
      "stateMutability": "view",
      "type": "function"
    },
    {
      "inputs": [
        {
          "internalType": "uint256",
          "name": "_policyId",
          "type": "uint256"
        }
      ],
      "name": "getPolicyVehicles",
      "outputs": [
        {
          "components": [
            {
              "internalType": "uint256",
              "name": "vehicleId",
              "type": "uint256"
            },
            {
              "internalType": "address",
              "name": "vehicleOwnerAddress",
              "type": "address"
            },
            {
              "internalType": "string",
              "name": "vehicledata",
              "type": "string"
            },
            {
              "internalType": "string",
              "name": "licensePlate",
              "type": "string"
            },
            {
              "internalType": "uint256",
              "name": "policyId",
              "type": "uint256"
            }
          ],
          "internalType": "struct VehicleContract.VehicleInfo[]",
          "name": "",
          "type": "tuple[]"
        }
      ],
      "stateMutability": "view",
      "type": "function"
    },
    {
      "inputs": [
        {
          "internalType": "uint256",
          "name": "index",
          "type": "uint256"
        }
      ],
      "name": "getVehicle",
      "outputs": [
        {
          "internalType": "string",
          "name": "",
          "type": "string"
        }
      ],
      "stateMutability": "view",
      "type": "function"
    },
    {
      "inputs": [
        {
          "internalType": "uint256",
          "name": "index",
          "type": "uint256"
        },
        {
          "internalType": "string",
          "name": "_licensePlate",
          "type": "string"
        }
      ],
      "name": "updateLicensePlate",
      "outputs": [],
      "stateMutability": "nonpayable",
      "type": "function"
    },
    {
      "inputs": [
        {
          "internalType": "uint256",
          "name": "index",
          "type": "uint256"
        }
      ],
      "name": "vehicleExists",
      "outputs": [
        {
          "internalType": "bool",
          "name": "",
          "type": "bool"
        }
      ],
      "stateMutability": "view",
      "type": "function"
    }
  ],
  "bytecode": "0x60806040523480156200001157600080fd5b5060405162001eea38038062001eea83398181016040528101906200003791906200012a565b80600460006101000a81548173ffffffffffffffffffffffffffffffffffffffff021916908373ffffffffffffffffffffffffffffffffffffffff16021790555033600160006101000a81548173ffffffffffffffffffffffffffffffffffffffff021916908373ffffffffffffffffffffffffffffffffffffffff160217905550506200015c565b600080fd5b600073ffffffffffffffffffffffffffffffffffffffff82169050919050565b6000620000f282620000c5565b9050919050565b6200010481620000e5565b81146200011057600080fd5b50565b6000815190506200012481620000f9565b92915050565b600060208284031215620001435762000142620000c0565b5b6000620001538482850162000113565b91505092915050565b611d7e806200016c6000396000f3fe608060405234801561001057600080fd5b50600436106100a95760003560e01c806352142c871161007157806352142c87146101405780635e7215bc146101705780636ec965b71461018e578063b19232fc146101be578063cb9d90d3146101ee578063df7ebb7b1461020c576100a9565b80630e506ea8146100ae578063219a1d77146100ca5780632f06c573146100e857806334caa315146101065780634aa2ca1e14610124575b600080fd5b6100c860048036038101906100c39190611300565b61023c565b005b6100d26102f0565b6040516100df9190611377565b60405180910390f35b6100f0610348565b6040516100fd91906113d3565b60405180910390f35b61010e61036e565b60405161011b91906113fd565b60405180910390f35b61013e60048036038101906101399190611418565b610411565b005b61015a600480360381019061015591906114a3565b6106db565b6040516101679190611377565b60405180910390f35b6101786106fe565b60405161018591906116bf565b60405180910390f35b6101a860048036038101906101a391906116e1565b610aa0565b6040516101b591906116bf565b60405180910390f35b6101d860048036038101906101d391906116e1565b610dac565b6040516101e59190611377565b60405180910390f35b6101f6610dda565b60405161020391906116bf565b60405180910390f35b610226600480360381019061022191906116e1565b61105f565b6040516102339190611758565b60405180910390f35b6000815111610280576040517f08c379a0000000000000000000000000000000000000000000000000000000008152600401610277906117c6565b60405180910390fd5b61028982610dac565b6102c8576040517f08c379a00000000000000000000000000000000000000000000000000000000081526004016102bf90611832565b60405180910390fd5b806002600084815260200190815260200160002060030190816102eb9190611a5e565b505050565b60003373ffffffffffffffffffffffffffffffffffffffff16600160009054906101000a900473ffffffffffffffffffffffffffffffffffffffff1673ffffffffffffffffffffffffffffffffffffffff1614905090565b600160009054906101000a900473ffffffffffffffffffffffffffffffffffffffff1681565b6000600460009054906101000a900473ffffffffffffffffffffffffffffffffffffffff1673ffffffffffffffffffffffffffffffffffffffff1663bc047c49336040518263ffffffff1660e01b81526004016103cb91906113d3565b602060405180830381865afa1580156103e8573d6000803e3d6000fd5b505050506040513d601f19601f8201168201806040525081019061040c9190611b45565b905090565b6000835111610455576040517f08c379a000000000000000000000000000000000000000000000000000000000815260040161044c906117c6565b60405180910390fd5b600460009054906101000a900473ffffffffffffffffffffffffffffffffffffffff1673ffffffffffffffffffffffffffffffffffffffff16630fe92cae836040518263ffffffff1660e01b81526004016104b091906113fd565b602060405180830381865afa1580156104cd573d6000803e3d6000fd5b505050506040513d601f19601f820116820180604052508101906104f19190611b9e565b610530576040517f08c379a000000000000000000000000000000000000000000000000000000000815260040161052790611c17565b60405180910390fd5b61053a6000611107565b6000610546600061111d565b90506040518060a001604052808281526020013373ffffffffffffffffffffffffffffffffffffffff16815260200183815260200185815260200184815250600260008381526020019081526020016000206000820151816000015560208201518160010160006101000a81548173ffffffffffffffffffffffffffffffffffffffff021916908373ffffffffffffffffffffffffffffffffffffffff16021790555060408201518160020190816105fe9190611a5e565b5060608201518160030190816106149190611a5e565b50608082015181600401559050506003339080600181540180825580915050600190039060005260206000200160009091909190916101000a81548173ffffffffffffffffffffffffffffffffffffffff021916908373ffffffffffffffffffffffffffffffffffffffff1602179055503373ffffffffffffffffffffffffffffffffffffffff167faff9b281d8eb03326e395df3b5a56bf096ed220048eb76eeba9d9ef0b8b3eb1985846040516106cd929190611c37565b60405180910390a250505050565b600081600260008581526020019081526020016000206004015414905092915050565b6060600061070c600061111d565b9050600080600080600090505b848110156107b9573373ffffffffffffffffffffffffffffffffffffffff16600260006001846107499190611c9d565b815260200190815260200160002060010160009054906101000a900473ffffffffffffffffffffffffffffffffffffffff1673ffffffffffffffffffffffffffffffffffffffff16036107a6576001846107a39190611c9d565b93505b80806107b190611cd1565b915050610719565b5060008367ffffffffffffffff8111156107d6576107d56111d5565b5b60405190808252806020026020018201604052801561080f57816020015b6107fc61112b565b8152602001906001900390816107f45790505b50905060005b85811015610a94573373ffffffffffffffffffffffffffffffffffffffff16600260006001846108459190611c9d565b815260200190815260200160002060010160009054906101000a900473ffffffffffffffffffffffffffffffffffffffff1673ffffffffffffffffffffffffffffffffffffffff1603610a815760018161089f9190611c9d565b92506000600260008581526020019081526020016000209050806040518060a0016040529081600082015481526020016001820160009054906101000a900473ffffffffffffffffffffffffffffffffffffffff1673ffffffffffffffffffffffffffffffffffffffff1673ffffffffffffffffffffffffffffffffffffffff16815260200160028201805461093490611881565b80601f016020809104026020016040519081016040528092919081815260200182805461096090611881565b80156109ad5780601f10610982576101008083540402835291602001916109ad565b820191906000526020600020905b81548152906001019060200180831161099057829003601f168201915b505050505081526020016003820180546109c690611881565b80601f01602080910402602001604051908101604052809291908181526020018280546109f290611881565b8015610a3f5780601f10610a1457610100808354040283529160200191610a3f565b820191906000526020600020905b815481529060010190602001808311610a2257829003601f168201915b50505050508152602001600482015481525050838681518110610a6557610a64611d19565b5b6020026020010181905250600185610a7d9190611c9d565b9450505b8080610a8c90611cd1565b915050610815565b50809550505050505090565b60606000610aae600061111d565b9050600080600080600090505b84811015610b0f578660026000600184610ad59190611c9d565b81526020019081526020016000206004015403610afc57600184610af99190611c9d565b93505b8080610b0790611cd1565b915050610abb565b5060008367ffffffffffffffff811115610b2c57610b2b6111d5565b5b604051908082528060200260200182016040528015610b6557816020015b610b5261112b565b815260200190600190039081610b4a5790505b50905060005b85811015610d9e578760026000600184610b859190611c9d565b81526020019081526020016000206004015403610d8b57600181610ba99190611c9d565b92506000600260008581526020019081526020016000209050806040518060a0016040529081600082015481526020016001820160009054906101000a900473ffffffffffffffffffffffffffffffffffffffff1673ffffffffffffffffffffffffffffffffffffffff1673ffffffffffffffffffffffffffffffffffffffff168152602001600282018054610c3e90611881565b80601f0160208091040260200160405190810160405280929190818152602001828054610c6a90611881565b8015610cb75780601f10610c8c57610100808354040283529160200191610cb7565b820191906000526020600020905b815481529060010190602001808311610c9a57829003601f168201915b50505050508152602001600382018054610cd090611881565b80601f0160208091040260200160405190810160405280929190818152602001828054610cfc90611881565b8015610d495780601f10610d1e57610100808354040283529160200191610d49565b820191906000526020600020905b815481529060010190602001808311610d2c57829003601f168201915b50505050508152602001600482015481525050838681518110610d6f57610d6e611d19565b5b6020026020010181905250600185610d879190611c9d565b9450505b8080610d9690611cd1565b915050610b6b565b508095505050505050919050565b600080600260008481526020019081526020016000206003018054610dd090611881565b9050119050919050565b60606000610de8600061111d565b905060008167ffffffffffffffff811115610e0657610e056111d5565b5b604051908082528060200260200182016040528015610e3f57816020015b610e2c61112b565b815260200190600190039081610e245790505b50905060008080600090505b8481101561105457600181610e609190611c9d565b91506000600260008481526020019081526020016000209050806040518060a0016040529081600082015481526020016001820160009054906101000a900473ffffffffffffffffffffffffffffffffffffffff1673ffffffffffffffffffffffffffffffffffffffff1673ffffffffffffffffffffffffffffffffffffffff168152602001600282018054610ef590611881565b80601f0160208091040260200160405190810160405280929190818152602001828054610f2190611881565b8015610f6e5780601f10610f4357610100808354040283529160200191610f6e565b820191906000526020600020905b815481529060010190602001808311610f5157829003601f168201915b50505050508152602001600382018054610f8790611881565b80601f0160208091040260200160405190810160405280929190818152602001828054610fb390611881565b80156110005780601f10610fd557610100808354040283529160200191611000565b820191906000526020600020905b815481529060010190602001808311610fe357829003601f168201915b5050505050815260200160048201548152505085858151811061102657611025611d19565b5b602002602001018190525060018461103e9190611c9d565b935050808061104c90611cd1565b915050610e4b565b508294505050505090565b606060026000838152602001908152602001600020600301805461108290611881565b80601f01602080910402602001604051908101604052809291908181526020018280546110ae90611881565b80156110fb5780601f106110d0576101008083540402835291602001916110fb565b820191906000526020600020905b8154815290600101906020018083116110de57829003601f168201915b50505050509050919050565b6001816000016000828254019250508190555050565b600081600001549050919050565b6040518060a0016040528060008152602001600073ffffffffffffffffffffffffffffffffffffffff1681526020016060815260200160608152602001600081525090565b6000604051905090565b600080fd5b600080fd5b6000819050919050565b61119781611184565b81146111a257600080fd5b50565b6000813590506111b48161118e565b92915050565b600080fd5b600080fd5b6000601f19601f8301169050919050565b7f4e487b7100000000000000000000000000000000000000000000000000000000600052604160045260246000fd5b61120d826111c4565b810181811067ffffffffffffffff8211171561122c5761122b6111d5565b5b80604052505050565b600061123f611170565b905061124b8282611204565b919050565b600067ffffffffffffffff82111561126b5761126a6111d5565b5b611274826111c4565b9050602081019050919050565b82818337600083830152505050565b60006112a361129e84611250565b611235565b9050828152602081018484840111156112bf576112be6111bf565b5b6112ca848285611281565b509392505050565b600082601f8301126112e7576112e66111ba565b5b81356112f7848260208601611290565b91505092915050565b600080604083850312156113175761131661117a565b5b6000611325858286016111a5565b925050602083013567ffffffffffffffff8111156113465761134561117f565b5b611352858286016112d2565b9150509250929050565b60008115159050919050565b6113718161135c565b82525050565b600060208201905061138c6000830184611368565b92915050565b600073ffffffffffffffffffffffffffffffffffffffff82169050919050565b60006113bd82611392565b9050919050565b6113cd816113b2565b82525050565b60006020820190506113e860008301846113c4565b92915050565b6113f781611184565b82525050565b600060208201905061141260008301846113ee565b92915050565b6000806000606084860312156114315761143061117a565b5b600084013567ffffffffffffffff81111561144f5761144e61117f565b5b61145b868287016112d2565b935050602061146c868287016111a5565b925050604084013567ffffffffffffffff81111561148d5761148c61117f565b5b611499868287016112d2565b9150509250925092565b600080604083850312156114ba576114b961117a565b5b60006114c8858286016111a5565b92505060206114d9858286016111a5565b9150509250929050565b600081519050919050565b600082825260208201905092915050565b6000819050602082019050919050565b61151881611184565b82525050565b611527816113b2565b82525050565b600081519050919050565b600082825260208201905092915050565b60005b8381101561156757808201518184015260208101905061154c565b60008484015250505050565b600061157e8261152d565b6115888185611538565b9350611598818560208601611549565b6115a1816111c4565b840191505092915050565b600060a0830160008301516115c4600086018261150f565b5060208301516115d7602086018261151e565b50604083015184820360408601526115ef8282611573565b915050606083015184820360608601526116098282611573565b915050608083015161161e608086018261150f565b508091505092915050565b600061163583836115ac565b905092915050565b6000602082019050919050565b6000611655826114e3565b61165f81856114ee565b935083602082028501611671856114ff565b8060005b858110156116ad578484038952815161168e8582611629565b94506116998361163d565b925060208a01995050600181019050611675565b50829750879550505050505092915050565b600060208201905081810360008301526116d9818461164a565b905092915050565b6000602082840312156116f7576116f661117a565b5b6000611705848285016111a5565b91505092915050565b600082825260208201905092915050565b600061172a8261152d565b611734818561170e565b9350611744818560208601611549565b61174d816111c4565b840191505092915050565b60006020820190508181036000830152611772818461171f565b905092915050565b7f4c6963656e736520706c6174652063616e6e6f7420626520656d707479000000600082015250565b60006117b0601d8361170e565b91506117bb8261177a565b602082019050919050565b600060208201905081810360008301526117df816117a3565b9050919050565b7f56656869636c6520646f6573206e6f7420657869737400000000000000000000600082015250565b600061181c60168361170e565b9150611827826117e6565b602082019050919050565b6000602082019050818103600083015261184b8161180f565b9050919050565b7f4e487b7100000000000000000000000000000000000000000000000000000000600052602260045260246000fd5b6000600282049050600182168061189957607f821691505b6020821081036118ac576118ab611852565b5b50919050565b60008190508160005260206000209050919050565b60006020601f8301049050919050565b600082821b905092915050565b6000600883026119147fffffffffffffffffffffffffffffffffffffffffffffffffffffffffffffffff826118d7565b61191e86836118d7565b95508019841693508086168417925050509392505050565b6000819050919050565b600061195b61195661195184611184565b611936565b611184565b9050919050565b6000819050919050565b61197583611940565b61198961198182611962565b8484546118e4565b825550505050565b600090565b61199e611991565b6119a981848461196c565b505050565b5b818110156119cd576119c2600082611996565b6001810190506119af565b5050565b601f821115611a12576119e3816118b2565b6119ec846118c7565b810160208510156119fb578190505b611a0f611a07856118c7565b8301826119ae565b50505b505050565b600082821c905092915050565b6000611a3560001984600802611a17565b1980831691505092915050565b6000611a4e8383611a24565b9150826002028217905092915050565b611a678261152d565b67ffffffffffffffff811115611a8057611a7f6111d5565b5b611a8a8254611881565b611a958282856119d1565b600060209050601f831160018114611ac85760008415611ab6578287015190505b611ac08582611a42565b865550611b28565b601f198416611ad6866118b2565b60005b82811015611afe57848901518255600182019150602085019450602081019050611ad9565b86831015611b1b5784890151611b17601f891682611a24565b8355505b6001600288020188555050505b505050505050565b600081519050611b3f8161118e565b92915050565b600060208284031215611b5b57611b5a61117a565b5b6000611b6984828501611b30565b91505092915050565b611b7b8161135c565b8114611b8657600080fd5b50565b600081519050611b9881611b72565b92915050565b600060208284031215611bb457611bb361117a565b5b6000611bc284828501611b89565b91505092915050565b7f506f6c69637920646f65736e2774206578697374000000000000000000000000600082015250565b6000611c0160148361170e565b9150611c0c82611bcb565b602082019050919050565b60006020820190508181036000830152611c3081611bf4565b9050919050565b60006040820190508181036000830152611c51818561171f565b90508181036020830152611c65818461171f565b90509392505050565b7f4e487b7100000000000000000000000000000000000000000000000000000000600052601160045260246000fd5b6000611ca882611184565b9150611cb383611184565b9250828201905080821115611ccb57611cca611c6e565b5b92915050565b6000611cdc82611184565b91507fffffffffffffffffffffffffffffffffffffffffffffffffffffffffffffffff8203611d0e57611d0d611c6e565b5b600182019050919050565b7f4e487b7100000000000000000000000000000000000000000000000000000000600052603260045260246000fdfea2646970667358221220083ca7015d16fa3a31959aeb28b3e252bf87be9eb4bcb0e231a7e3eb76eddc2964736f6c63430008120033",
  "linkReferences": {},
  "deployedLinkReferences": {}
}