{
  "_format": "hh-sol-artifact-1",
  "contractName": "ClaimContract",
  "sourceName": "contracts/ClaimContract.sol",
  "abi": [
    {
      "inputs": [
        {
          "internalType": "address",
          "name": "_insurancePolicyContractAddress",
          "type": "address"
        },
        {
          "internalType": "address",
          "name": "_vehicleContract",
          "type": "address"
        }
      ],
      "stateMutability": "nonpayable",
      "type": "constructor"
    },
    {
      "anonymous": false,
      "inputs": [
        {
          "indexed": true,
          "internalType": "uint256",
          "name": "claimId",
          "type": "uint256"
        },
        {
          "indexed": false,
          "internalType": "enum ClaimContract.ClaimStatus",
          "name": "status",
          "type": "uint8"
        }
      ],
      "name": "ClaimStatusUpdated",
      "type": "event"
    },
    {
      "anonymous": false,
      "inputs": [
        {
          "indexed": true,
          "internalType": "uint256",
          "name": "claimId",
          "type": "uint256"
        },
        {
          "indexed": true,
          "internalType": "uint256",
          "name": "policyId",
          "type": "uint256"
        },
        {
          "indexed": true,
          "internalType": "address",
          "name": "claimant",
          "type": "address"
        },
        {
          "indexed": false,
          "internalType": "string",
          "name": "description",
          "type": "string"
        }
      ],
      "name": "ClaimSubmitted",
      "type": "event"
    },
    {
      "anonymous": false,
      "inputs": [
        {
          "indexed": true,
          "internalType": "address",
          "name": "previousOwner",
          "type": "address"
        },
        {
          "indexed": true,
          "internalType": "address",
          "name": "newOwner",
          "type": "address"
        }
      ],
      "name": "OwnershipTransferred",
      "type": "event"
    },
    {
      "inputs": [
        {
          "internalType": "uint256",
          "name": "index",
          "type": "uint256"
        },
        {
          "internalType": "uint256",
          "name": "amount",
          "type": "uint256"
        },
        {
          "internalType": "address",
          "name": "_claimerAddress",
          "type": "address"
        }
      ],
      "name": "claimPaid",
      "outputs": [],
      "stateMutability": "payable",
      "type": "function"
    },
    {
      "inputs": [
        {
          "internalType": "uint256",
          "name": "_claimId",
          "type": "uint256"
        }
      ],
      "name": "getClaim",
      "outputs": [
        {
          "internalType": "uint256",
          "name": "policyId",
          "type": "uint256"
        },
        {
          "internalType": "address",
          "name": "claimant",
          "type": "address"
        },
        {
          "internalType": "string",
          "name": "description",
          "type": "string"
        },
        {
          "internalType": "enum ClaimContract.ClaimStatus",
          "name": "status",
          "type": "uint8"
        }
      ],
      "stateMutability": "view",
      "type": "function"
    },
    {
      "inputs": [],
      "name": "getMyClaim",
      "outputs": [
        {
          "components": [
            {
              "internalType": "uint256",
              "name": "claimId",
              "type": "uint256"
            },
            {
              "internalType": "uint256",
              "name": "policyId",
              "type": "uint256"
            },
            {
              "internalType": "address payable",
              "name": "claimant",
              "type": "address"
            },
            {
              "internalType": "string",
              "name": "description",
              "type": "string"
            },
            {
              "internalType": "enum ClaimContract.ClaimStatus",
              "name": "status",
              "type": "uint8"
            }
          ],
          "internalType": "struct ClaimContract.Claim[]",
          "name": "",
          "type": "tuple[]"
        }
      ],
      "stateMutability": "view",
      "type": "function"
    },
    {
      "inputs": [],
      "name": "listAllClaims",
      "outputs": [
        {
          "components": [
            {
              "internalType": "uint256",
              "name": "claimId",
              "type": "uint256"
            },
            {
              "internalType": "uint256",
              "name": "policyId",
              "type": "uint256"
            },
            {
              "internalType": "address payable",
              "name": "claimant",
              "type": "address"
            },
            {
              "internalType": "string",
              "name": "description",
              "type": "string"
            },
            {
              "internalType": "enum ClaimContract.ClaimStatus",
              "name": "status",
              "type": "uint8"
            }
          ],
          "internalType": "struct ClaimContract.Claim[]",
          "name": "",
          "type": "tuple[]"
        }
      ],
      "stateMutability": "view",
      "type": "function"
    },
    {
      "inputs": [],
      "name": "owner",
      "outputs": [
        {
          "internalType": "address",
          "name": "",
          "type": "address"
        }
      ],
      "stateMutability": "view",
      "type": "function"
    },
    {
      "inputs": [],
      "name": "renounceOwnership",
      "outputs": [],
      "stateMutability": "nonpayable",
      "type": "function"
    },
    {
      "inputs": [
        {
          "internalType": "uint256",
          "name": "index",
          "type": "uint256"
        },
        {
          "internalType": "uint256",
          "name": "_policyId",
          "type": "uint256"
        },
        {
          "internalType": "string",
          "name": "_description",
          "type": "string"
        }
      ],
      "name": "submitClaim",
      "outputs": [],
      "stateMutability": "nonpayable",
      "type": "function"
    },
    {
      "inputs": [
        {
          "internalType": "address",
          "name": "newOwner",
          "type": "address"
        }
      ],
      "name": "transferOwnership",
      "outputs": [],
      "stateMutability": "nonpayable",
      "type": "function"
    },
    {
      "inputs": [
        {
          "internalType": "uint256",
          "name": "_claimId",
          "type": "uint256"
        },
        {
          "internalType": "enum ClaimContract.ClaimStatus",
          "name": "_status",
          "type": "uint8"
        }
      ],
      "name": "updateClaimStatus",
      "outputs": [],
      "stateMutability": "nonpayable",
      "type": "function"
    }
  ],
  "bytecode": "0x608060405260016003553480156200001657600080fd5b506040516200274b3803806200274b83398181016040528101906200003c91906200037d565b6200005c62000050620000f760201b60201c565b620000ff60201b60201c565b81600460006101000a81548173ffffffffffffffffffffffffffffffffffffffff021916908373ffffffffffffffffffffffffffffffffffffffff16021790555080600560006101000a81548173ffffffffffffffffffffffffffffffffffffffff021916908373ffffffffffffffffffffffffffffffffffffffff160217905550620000ef33620001c360201b60201c565b5050620004df565b600033905090565b60008060009054906101000a900473ffffffffffffffffffffffffffffffffffffffff169050816000806101000a81548173ffffffffffffffffffffffffffffffffffffffff021916908373ffffffffffffffffffffffffffffffffffffffff1602179055508173ffffffffffffffffffffffffffffffffffffffff168173ffffffffffffffffffffffffffffffffffffffff167f8be0079c531659141344cd1fd0a4f28419497f9722a3daafe3b4186f6b6457e060405160405180910390a35050565b620001d36200025960201b60201c565b600073ffffffffffffffffffffffffffffffffffffffff168173ffffffffffffffffffffffffffffffffffffffff160362000245576040517f08c379a00000000000000000000000000000000000000000000000000000000081526004016200023c906200044b565b60405180910390fd5b6200025681620000ff60201b60201c565b50565b62000269620000f760201b60201c565b73ffffffffffffffffffffffffffffffffffffffff166200028f620002ea60201b60201c565b73ffffffffffffffffffffffffffffffffffffffff1614620002e8576040517f08c379a0000000000000000000000000000000000000000000000000000000008152600401620002df90620004bd565b60405180910390fd5b565b60008060009054906101000a900473ffffffffffffffffffffffffffffffffffffffff16905090565b600080fd5b600073ffffffffffffffffffffffffffffffffffffffff82169050919050565b6000620003458262000318565b9050919050565b620003578162000338565b81146200036357600080fd5b50565b60008151905062000377816200034c565b92915050565b6000806040838503121562000397576200039662000313565b5b6000620003a78582860162000366565b9250506020620003ba8582860162000366565b9150509250929050565b600082825260208201905092915050565b7f4f776e61626c653a206e6577206f776e657220697320746865207a65726f206160008201527f6464726573730000000000000000000000000000000000000000000000000000602082015250565b600062000433602683620003c4565b91506200044082620003d5565b604082019050919050565b60006020820190508181036000830152620004668162000424565b9050919050565b7f4f776e61626c653a2063616c6c6572206973206e6f7420746865206f776e6572600082015250565b6000620004a5602083620003c4565b9150620004b2826200046d565b602082019050919050565b60006020820190508181036000830152620004d88162000496565b9050919050565b61225c80620004ef6000396000f3fe6080604052600436106100865760003560e01c80638da5cb5b116100595780638da5cb5b146101275780639dc7a06a14610152578063ab1f5b7c1461017d578063ae8e25bd146101a6578063f2fde38b146101d157610086565b806306964de71461008b5780635aef2447146100b45780636a19ffa4146100f4578063715018a614610110575b600080fd5b34801561009757600080fd5b506100b260048036038101906100ad919061140d565b6101fa565b005b3480156100c057600080fd5b506100db60048036038101906100d6919061147c565b610656565b6040516100eb94939291906115ef565b60405180910390f35b61010e60048036038101906101099190611667565b6107e2565b005b34801561011c57600080fd5b50610125610964565b005b34801561013357600080fd5b5061013c610978565b60405161014991906116ba565b60405180910390f35b34801561015e57600080fd5b506101676109a1565b6040516101749190611896565b60405180910390f35b34801561018957600080fd5b506101a4600480360381019061019f91906118dd565b610cec565b005b3480156101b257600080fd5b506101bb610e07565b6040516101c89190611896565b60405180910390f35b3480156101dd57600080fd5b506101f860048036038101906101f3919061191d565b611035565b005b61020460016110b8565b6000821015610248576040517f08c379a000000000000000000000000000000000000000000000000000000000815260040161023f90611996565b60405180910390fd5b600081511161028c576040517f08c379a000000000000000000000000000000000000000000000000000000000815260040161028390611a02565b60405180910390fd5b600061029860016110ce565b9050600460009054906101000a900473ffffffffffffffffffffffffffffffffffffffff1673ffffffffffffffffffffffffffffffffffffffff16630fe92cae846040518263ffffffff1660e01b81526004016102f59190611a22565b602060405180830381865afa158015610312573d6000803e3d6000fd5b505050506040513d601f19601f820116820180604052508101906103369190611a75565b610375576040517f08c379a000000000000000000000000000000000000000000000000000000000815260040161036c90611aee565b60405180910390fd5b600560009054906101000a900473ffffffffffffffffffffffffffffffffffffffff1673ffffffffffffffffffffffffffffffffffffffff166352142c8785856040518363ffffffff1660e01b81526004016103d2929190611b0e565b602060405180830381865afa1580156103ef573d6000803e3d6000fd5b505050506040513d601f19601f820116820180604052508101906104139190611a75565b610452576040517f08c379a000000000000000000000000000000000000000000000000000000000815260040161044990611ba9565b60405180910390fd5b6040518060a001604052808281526020018481526020013373ffffffffffffffffffffffffffffffffffffffff1681526020018381526020016000600281111561049f5761049e611578565b5b81525060026000838152602001908152602001600020600082015181600001556020820151816001015560408201518160020160006101000a81548173ffffffffffffffffffffffffffffffffffffffff021916908373ffffffffffffffffffffffffffffffffffffffff16021790555060608201518160030190816105259190611dd5565b5060808201518160040160006101000a81548160ff0219169083600281111561055157610550611578565b5b02179055509050503373ffffffffffffffffffffffffffffffffffffffff1683827fbee96127fc856f54721f3e15c7d0f27a7947ed6c05f35a313ef16b5ae6653a83856040516105a19190611ea7565b60405180910390a4600460009054906101000a900473ffffffffffffffffffffffffffffffffffffffff1673ffffffffffffffffffffffffffffffffffffffff1663837f574684836040518363ffffffff1660e01b8152600401610606929190611b0e565b600060405180830381600087803b15801561062057600080fd5b505af1158015610634573d6000803e3d6000fd5b505050506003600081548092919061064b90611ef8565b919050555050505050565b6000806060600080600260008781526020019081526020016000209050600073ffffffffffffffffffffffffffffffffffffffff168160020160009054906101000a900473ffffffffffffffffffffffffffffffffffffffff1673ffffffffffffffffffffffffffffffffffffffff1603610706576040517f08c379a00000000000000000000000000000000000000000000000000000000081526004016106fd90611f8c565b60405180910390fd5b80600101548160020160009054906101000a900473ffffffffffffffffffffffffffffffffffffffff16826003018360040160009054906101000a900460ff1681805461075290611bf8565b80601f016020809104026020016040519081016040528092919081815260200182805461077e90611bf8565b80156107cb5780601f106107a0576101008083540402835291602001916107cb565b820191906000526020600020905b8154815290600101906020018083116107ae57829003601f168201915b505050505091509450945094509450509193509193565b6107ea6110dc565b8073ffffffffffffffffffffffffffffffffffffffff166002600085815260200190815260200160002060020160009054906101000a900473ffffffffffffffffffffffffffffffffffffffff1673ffffffffffffffffffffffffffffffffffffffff161461088e576040517f08c379a000000000000000000000000000000000000000000000000000000000815260040161088590611ff8565b60405180910390fd5b600160028111156108a2576108a1611578565b5b6002600085815260200190815260200160002060040160009054906101000a900460ff1660028111156108d8576108d7611578565b5b14610918576040517f08c379a000000000000000000000000000000000000000000000000000000000815260040161090f9061208a565b60405180910390fd5b8073ffffffffffffffffffffffffffffffffffffffff166108fc839081150290604051600060405180830381858888f1935050505015801561095e573d6000803e3d6000fd5b50505050565b61096c6110dc565b610976600061115a565b565b60008060009054906101000a900473ffffffffffffffffffffffffffffffffffffffff16905090565b606060006109af60016110ce565b9050600080600080600090505b84811015610a5c573373ffffffffffffffffffffffffffffffffffffffff16600260006001846109ec91906120aa565b815260200190815260200160002060020160009054906101000a900473ffffffffffffffffffffffffffffffffffffffff1673ffffffffffffffffffffffffffffffffffffffff1603610a4957600184610a4691906120aa565b93505b8080610a5490611ef8565b9150506109bc565b5060008367ffffffffffffffff811115610a7957610a786112e2565b5b604051908082528060200260200182016040528015610ab257816020015b610a9f611226565b815260200190600190039081610a975790505b50905060005b85811015610ce0573373ffffffffffffffffffffffffffffffffffffffff1660026000600184610ae891906120aa565b815260200190815260200160002060020160009054906101000a900473ffffffffffffffffffffffffffffffffffffffff1673ffffffffffffffffffffffffffffffffffffffff1603610ccd57600181610b4291906120aa565b92506000600260008581526020019081526020016000209050806040518060a001604052908160008201548152602001600182015481526020016002820160009054906101000a900473ffffffffffffffffffffffffffffffffffffffff1673ffffffffffffffffffffffffffffffffffffffff1673ffffffffffffffffffffffffffffffffffffffff168152602001600382018054610be190611bf8565b80601f0160208091040260200160405190810160405280929190818152602001828054610c0d90611bf8565b8015610c5a5780601f10610c2f57610100808354040283529160200191610c5a565b820191906000526020600020905b815481529060010190602001808311610c3d57829003601f168201915b505050505081526020016004820160009054906101000a900460ff166002811115610c8857610c87611578565b5b6002811115610c9a57610c99611578565b5b81525050838681518110610cb157610cb06120de565b5b6020026020010181905250600185610cc991906120aa565b9450505b8080610cd890611ef8565b915050610ab8565b50809550505050505090565b610cf46110dc565b6000600260008481526020019081526020016000209050600073ffffffffffffffffffffffffffffffffffffffff168160020160009054906101000a900473ffffffffffffffffffffffffffffffffffffffff1673ffffffffffffffffffffffffffffffffffffffff1603610d9e576040517f08c379a0000000000000000000000000000000000000000000000000000000008152600401610d9590611f8c565b60405180910390fd5b818160040160006101000a81548160ff02191690836002811115610dc557610dc4611578565b5b0217905550827f2e7de2377c1e6f85a268dbe00519c60d65c9e38570a118be0eb07feb07fc89be83604051610dfa919061210d565b60405180910390a2505050565b60606000610e1560016110ce565b905060008167ffffffffffffffff811115610e3357610e326112e2565b5b604051908082528060200260200182016040528015610e6c57816020015b610e59611226565b815260200190600190039081610e515790505b50905060008080600090505b8481101561102a57600181610e8d91906120aa565b91506000600260008481526020019081526020016000209050806040518060a001604052908160008201548152602001600182015481526020016002820160009054906101000a900473ffffffffffffffffffffffffffffffffffffffff1673ffffffffffffffffffffffffffffffffffffffff1673ffffffffffffffffffffffffffffffffffffffff168152602001600382018054610f2c90611bf8565b80601f0160208091040260200160405190810160405280929190818152602001828054610f5890611bf8565b8015610fa55780601f10610f7a57610100808354040283529160200191610fa5565b820191906000526020600020905b815481529060010190602001808311610f8857829003601f168201915b505050505081526020016004820160009054906101000a900460ff166002811115610fd357610fd2611578565b5b6002811115610fe557610fe4611578565b5b81525050858581518110610ffc57610ffb6120de565b5b602002602001018190525060018461101491906120aa565b935050808061102290611ef8565b915050610e78565b508294505050505090565b61103d6110dc565b600073ffffffffffffffffffffffffffffffffffffffff168173ffffffffffffffffffffffffffffffffffffffff16036110ac576040517f08c379a00000000000000000000000000000000000000000000000000000000081526004016110a39061219a565b60405180910390fd5b6110b58161115a565b50565b6001816000016000828254019250508190555050565b600081600001549050919050565b6110e461121e565b73ffffffffffffffffffffffffffffffffffffffff16611102610978565b73ffffffffffffffffffffffffffffffffffffffff1614611158576040517f08c379a000000000000000000000000000000000000000000000000000000000815260040161114f90612206565b60405180910390fd5b565b60008060009054906101000a900473ffffffffffffffffffffffffffffffffffffffff169050816000806101000a81548173ffffffffffffffffffffffffffffffffffffffff021916908373ffffffffffffffffffffffffffffffffffffffff1602179055508173ffffffffffffffffffffffffffffffffffffffff168173ffffffffffffffffffffffffffffffffffffffff167f8be0079c531659141344cd1fd0a4f28419497f9722a3daafe3b4186f6b6457e060405160405180910390a35050565b600033905090565b6040518060a001604052806000815260200160008152602001600073ffffffffffffffffffffffffffffffffffffffff168152602001606081526020016000600281111561127757611276611578565b5b81525090565b6000604051905090565b600080fd5b600080fd5b6000819050919050565b6112a481611291565b81146112af57600080fd5b50565b6000813590506112c18161129b565b92915050565b600080fd5b600080fd5b6000601f19601f8301169050919050565b7f4e487b7100000000000000000000000000000000000000000000000000000000600052604160045260246000fd5b61131a826112d1565b810181811067ffffffffffffffff82111715611339576113386112e2565b5b80604052505050565b600061134c61127d565b90506113588282611311565b919050565b600067ffffffffffffffff821115611378576113776112e2565b5b611381826112d1565b9050602081019050919050565b82818337600083830152505050565b60006113b06113ab8461135d565b611342565b9050828152602081018484840111156113cc576113cb6112cc565b5b6113d784828561138e565b509392505050565b600082601f8301126113f4576113f36112c7565b5b813561140484826020860161139d565b91505092915050565b60008060006060848603121561142657611425611287565b5b6000611434868287016112b2565b9350506020611445868287016112b2565b925050604084013567ffffffffffffffff8111156114665761146561128c565b5b611472868287016113df565b9150509250925092565b60006020828403121561149257611491611287565b5b60006114a0848285016112b2565b91505092915050565b6114b281611291565b82525050565b600073ffffffffffffffffffffffffffffffffffffffff82169050919050565b60006114e3826114b8565b9050919050565b6114f3816114d8565b82525050565b600081519050919050565b600082825260208201905092915050565b60005b83811015611533578082015181840152602081019050611518565b60008484015250505050565b600061154a826114f9565b6115548185611504565b9350611564818560208601611515565b61156d816112d1565b840191505092915050565b7f4e487b7100000000000000000000000000000000000000000000000000000000600052602160045260246000fd5b600381106115b8576115b7611578565b5b50565b60008190506115c9826115a7565b919050565b60006115d9826115bb565b9050919050565b6115e9816115ce565b82525050565b600060808201905061160460008301876114a9565b61161160208301866114ea565b8181036040830152611623818561153f565b905061163260608301846115e0565b95945050505050565b611644816114d8565b811461164f57600080fd5b50565b6000813590506116618161163b565b92915050565b6000806000606084860312156116805761167f611287565b5b600061168e868287016112b2565b935050602061169f868287016112b2565b92505060406116b086828701611652565b9150509250925092565b60006020820190506116cf60008301846114ea565b92915050565b600081519050919050565b600082825260208201905092915050565b6000819050602082019050919050565b61170a81611291565b82525050565b600061171b826114b8565b9050919050565b61172b81611710565b82525050565b600082825260208201905092915050565b600061174d826114f9565b6117578185611731565b9350611767818560208601611515565b611770816112d1565b840191505092915050565b611784816115ce565b82525050565b600060a0830160008301516117a26000860182611701565b5060208301516117b56020860182611701565b5060408301516117c86040860182611722565b50606083015184820360608601526117e08282611742565b91505060808301516117f5608086018261177b565b508091505092915050565b600061180c838361178a565b905092915050565b6000602082019050919050565b600061182c826116d5565b61183681856116e0565b935083602082028501611848856116f1565b8060005b8581101561188457848403895281516118658582611800565b945061187083611814565b925060208a0199505060018101905061184c565b50829750879550505050505092915050565b600060208201905081810360008301526118b08184611821565b905092915050565b600381106118c557600080fd5b50565b6000813590506118d7816118b8565b92915050565b600080604083850312156118f4576118f3611287565b5b6000611902858286016112b2565b9250506020611913858286016118c8565b9150509250929050565b60006020828403121561193357611932611287565b5b600061194184828501611652565b91505092915050565b7f496e76616c696420706f6c696379204944000000000000000000000000000000600082015250565b6000611980601183611504565b915061198b8261194a565b602082019050919050565b600060208201905081810360008301526119af81611973565b9050919050565b7f4465736372697074696f6e2063616e6e6f7420626520656d7074790000000000600082015250565b60006119ec601b83611504565b91506119f7826119b6565b602082019050919050565b60006020820190508181036000830152611a1b816119df565b9050919050565b6000602082019050611a3760008301846114a9565b92915050565b60008115159050919050565b611a5281611a3d565b8114611a5d57600080fd5b50565b600081519050611a6f81611a49565b92915050565b600060208284031215611a8b57611a8a611287565b5b6000611a9984828501611a60565b91505092915050565b7f506f6c69637920646f65736e2774206578697374000000000000000000000000600082015250565b6000611ad8601483611504565b9150611ae382611aa2565b602082019050919050565b60006020820190508181036000830152611b0781611acb565b9050919050565b6000604082019050611b2360008301856114a9565b611b3060208301846114a9565b9392505050565b7f596f7520686176656e2774207265676973746572656420666f7220746865736560008201527f20706f6c6963792c20596f752063616e206e6f7420636c61696d000000000000602082015250565b6000611b93603a83611504565b9150611b9e82611b37565b604082019050919050565b60006020820190508181036000830152611bc281611b86565b9050919050565b7f4e487b7100000000000000000000000000000000000000000000000000000000600052602260045260246000fd5b60006002820490506001821680611c1057607f821691505b602082108103611c2357611c22611bc9565b5b50919050565b60008190508160005260206000209050919050565b60006020601f8301049050919050565b600082821b905092915050565b600060088302611c8b7fffffffffffffffffffffffffffffffffffffffffffffffffffffffffffffffff82611c4e565b611c958683611c4e565b95508019841693508086168417925050509392505050565b6000819050919050565b6000611cd2611ccd611cc884611291565b611cad565b611291565b9050919050565b6000819050919050565b611cec83611cb7565b611d00611cf882611cd9565b848454611c5b565b825550505050565b600090565b611d15611d08565b611d20818484611ce3565b505050565b5b81811015611d4457611d39600082611d0d565b600181019050611d26565b5050565b601f821115611d8957611d5a81611c29565b611d6384611c3e565b81016020851015611d72578190505b611d86611d7e85611c3e565b830182611d25565b50505b505050565b600082821c905092915050565b6000611dac60001984600802611d8e565b1980831691505092915050565b6000611dc58383611d9b565b9150826002028217905092915050565b611dde826114f9565b67ffffffffffffffff811115611df757611df66112e2565b5b611e018254611bf8565b611e0c828285611d48565b600060209050601f831160018114611e3f5760008415611e2d578287015190505b611e378582611db9565b865550611e9f565b601f198416611e4d86611c29565b60005b82811015611e7557848901518255600182019150602085019450602081019050611e50565b86831015611e925784890151611e8e601f891682611d9b565b8355505b6001600288020188555050505b505050505050565b60006020820190508181036000830152611ec1818461153f565b905092915050565b7f4e487b7100000000000000000000000000000000000000000000000000000000600052601160045260246000fd5b6000611f0382611291565b91507fffffffffffffffffffffffffffffffffffffffffffffffffffffffffffffffff8203611f3557611f34611ec9565b5b600182019050919050565b7f436c61696d20646f6573206e6f74206578697374000000000000000000000000600082015250565b6000611f76601483611504565b9150611f8182611f40565b602082019050919050565b60006020820190508181036000830152611fa581611f69565b9050919050565b7f496e636f727265637420636c61696d616e742061646472657373000000000000600082015250565b6000611fe2601a83611504565b9150611fed82611fac565b602082019050919050565b6000602082019050818103600083015261201181611fd5565b9050919050565b7f436c61696d616e742068617320746f206265206669727374206163636570746560008201527f6400000000000000000000000000000000000000000000000000000000000000602082015250565b6000612074602183611504565b915061207f82612018565b604082019050919050565b600060208201905081810360008301526120a381612067565b9050919050565b60006120b582611291565b91506120c083611291565b92508282019050808211156120d8576120d7611ec9565b5b92915050565b7f4e487b7100000000000000000000000000000000000000000000000000000000600052603260045260246000fd5b600060208201905061212260008301846115e0565b92915050565b7f4f776e61626c653a206e6577206f776e657220697320746865207a65726f206160008201527f6464726573730000000000000000000000000000000000000000000000000000602082015250565b6000612184602683611504565b915061218f82612128565b604082019050919050565b600060208201905081810360008301526121b381612177565b9050919050565b7f4f776e61626c653a2063616c6c6572206973206e6f7420746865206f776e6572600082015250565b60006121f0602083611504565b91506121fb826121ba565b602082019050919050565b6000602082019050818103600083015261221f816121e3565b905091905056fea26469706673582212203df2468983887495d572b6ac48d12b69468653c838105f393c7e400a101c923064736f6c63430008120033",
  "linkReferences": {},
  "deployedLinkReferences": {}
}