{
  "_format": "hh-sol-artifact-1",
  "contractName": "ClaimContract",
  "sourceName": "contracts/ClaimContract.sol",
  "abi": [
    {
      "inputs": [
        {
          "internalType": "address",
          "name": "_insurancePolicyContractAddress",
          "type": "address"
        },
        {
          "internalType": "address",
          "name": "_vehicleContract",
          "type": "address"
        }
      ],
      "stateMutability": "nonpayable",
      "type": "constructor"
    },
    {
      "anonymous": false,
      "inputs": [
        {
          "indexed": true,
          "internalType": "uint256",
          "name": "claimId",
          "type": "uint256"
        },
        {
          "indexed": false,
          "internalType": "enum ClaimContract.ClaimStatus",
          "name": "status",
          "type": "uint8"
        }
      ],
      "name": "ClaimStatusUpdated",
      "type": "event"
    },
    {
      "anonymous": false,
      "inputs": [
        {
          "indexed": true,
          "internalType": "uint256",
          "name": "claimId",
          "type": "uint256"
        },
        {
          "indexed": true,
          "internalType": "uint256",
          "name": "policyId",
          "type": "uint256"
        },
        {
          "indexed": true,
          "internalType": "address",
          "name": "claimant",
          "type": "address"
        },
        {
          "indexed": false,
          "internalType": "string",
          "name": "description",
          "type": "string"
        }
      ],
      "name": "ClaimSubmitted",
      "type": "event"
    },
    {
      "anonymous": false,
      "inputs": [
        {
          "indexed": true,
          "internalType": "address",
          "name": "previousOwner",
          "type": "address"
        },
        {
          "indexed": true,
          "internalType": "address",
          "name": "newOwner",
          "type": "address"
        }
      ],
      "name": "OwnershipTransferred",
      "type": "event"
    },
    {
      "inputs": [
        {
          "internalType": "uint256",
          "name": "index",
          "type": "uint256"
        },
        {
          "internalType": "uint256",
          "name": "amount",
          "type": "uint256"
        },
        {
          "internalType": "address",
          "name": "_claimerAddress",
          "type": "address"
        }
      ],
      "name": "claimPaid",
      "outputs": [],
      "stateMutability": "payable",
      "type": "function"
    },
    {
      "inputs": [
        {
          "internalType": "uint256",
          "name": "_claimId",
          "type": "uint256"
        }
      ],
      "name": "getClaim",
      "outputs": [
        {
          "internalType": "uint256",
          "name": "policyId",
          "type": "uint256"
        },
        {
          "internalType": "address",
          "name": "claimant",
          "type": "address"
        },
        {
          "internalType": "string",
          "name": "description",
          "type": "string"
        },
        {
          "internalType": "enum ClaimContract.ClaimStatus",
          "name": "status",
          "type": "uint8"
        }
      ],
      "stateMutability": "view",
      "type": "function"
    },
    {
      "inputs": [],
      "name": "listAllClaims",
      "outputs": [
        {
          "components": [
            {
              "internalType": "uint256",
              "name": "claimId",
              "type": "uint256"
            },
            {
              "internalType": "uint256",
              "name": "policyId",
              "type": "uint256"
            },
            {
              "internalType": "address payable",
              "name": "claimant",
              "type": "address"
            },
            {
              "internalType": "string",
              "name": "description",
              "type": "string"
            },
            {
              "internalType": "enum ClaimContract.ClaimStatus",
              "name": "status",
              "type": "uint8"
            }
          ],
          "internalType": "struct ClaimContract.Claim[]",
          "name": "",
          "type": "tuple[]"
        }
      ],
      "stateMutability": "view",
      "type": "function"
    },
    {
      "inputs": [],
      "name": "owner",
      "outputs": [
        {
          "internalType": "address",
          "name": "",
          "type": "address"
        }
      ],
      "stateMutability": "view",
      "type": "function"
    },
    {
      "inputs": [],
      "name": "renounceOwnership",
      "outputs": [],
      "stateMutability": "nonpayable",
      "type": "function"
    },
    {
      "inputs": [
        {
          "internalType": "uint256",
          "name": "index",
          "type": "uint256"
        },
        {
          "internalType": "uint256",
          "name": "_policyId",
          "type": "uint256"
        },
        {
          "internalType": "string",
          "name": "_description",
          "type": "string"
        }
      ],
      "name": "submitClaim",
      "outputs": [],
      "stateMutability": "nonpayable",
      "type": "function"
    },
    {
      "inputs": [
        {
          "internalType": "address",
          "name": "newOwner",
          "type": "address"
        }
      ],
      "name": "transferOwnership",
      "outputs": [],
      "stateMutability": "nonpayable",
      "type": "function"
    },
    {
      "inputs": [
        {
          "internalType": "uint256",
          "name": "_claimId",
          "type": "uint256"
        },
        {
          "internalType": "enum ClaimContract.ClaimStatus",
          "name": "_status",
          "type": "uint8"
        }
      ],
      "name": "updateClaimStatus",
      "outputs": [],
      "stateMutability": "nonpayable",
      "type": "function"
    }
  ],
  "bytecode": "0x608060405260016003553480156200001657600080fd5b50604051620023ca380380620023ca83398181016040528101906200003c91906200037d565b6200005c62000050620000f760201b60201c565b620000ff60201b60201c565b81600460006101000a81548173ffffffffffffffffffffffffffffffffffffffff021916908373ffffffffffffffffffffffffffffffffffffffff16021790555080600560006101000a81548173ffffffffffffffffffffffffffffffffffffffff021916908373ffffffffffffffffffffffffffffffffffffffff160217905550620000ef33620001c360201b60201c565b5050620004df565b600033905090565b60008060009054906101000a900473ffffffffffffffffffffffffffffffffffffffff169050816000806101000a81548173ffffffffffffffffffffffffffffffffffffffff021916908373ffffffffffffffffffffffffffffffffffffffff1602179055508173ffffffffffffffffffffffffffffffffffffffff168173ffffffffffffffffffffffffffffffffffffffff167f8be0079c531659141344cd1fd0a4f28419497f9722a3daafe3b4186f6b6457e060405160405180910390a35050565b620001d36200025960201b60201c565b600073ffffffffffffffffffffffffffffffffffffffff168173ffffffffffffffffffffffffffffffffffffffff160362000245576040517f08c379a00000000000000000000000000000000000000000000000000000000081526004016200023c906200044b565b60405180910390fd5b6200025681620000ff60201b60201c565b50565b62000269620000f760201b60201c565b73ffffffffffffffffffffffffffffffffffffffff166200028f620002ea60201b60201c565b73ffffffffffffffffffffffffffffffffffffffff1614620002e8576040517f08c379a0000000000000000000000000000000000000000000000000000000008152600401620002df90620004bd565b60405180910390fd5b565b60008060009054906101000a900473ffffffffffffffffffffffffffffffffffffffff16905090565b600080fd5b600073ffffffffffffffffffffffffffffffffffffffff82169050919050565b6000620003458262000318565b9050919050565b620003578162000338565b81146200036357600080fd5b50565b60008151905062000377816200034c565b92915050565b6000806040838503121562000397576200039662000313565b5b6000620003a78582860162000366565b9250506020620003ba8582860162000366565b9150509250929050565b600082825260208201905092915050565b7f4f776e61626c653a206e6577206f776e657220697320746865207a65726f206160008201527f6464726573730000000000000000000000000000000000000000000000000000602082015250565b600062000433602683620003c4565b91506200044082620003d5565b604082019050919050565b60006020820190508181036000830152620004668162000424565b9050919050565b7f4f776e61626c653a2063616c6c6572206973206e6f7420746865206f776e6572600082015250565b6000620004a5602083620003c4565b9150620004b2826200046d565b602082019050919050565b60006020820190508181036000830152620004d88162000496565b9050919050565b611edb80620004ef6000396000f3fe60806040526004361061007b5760003560e01c80638da5cb5b1161004e5780638da5cb5b1461011c578063ab1f5b7c14610147578063ae8e25bd14610170578063f2fde38b1461019b5761007b565b806306964de7146100805780635aef2447146100a95780636a19ffa4146100e9578063715018a614610105575b600080fd5b34801561008c57600080fd5b506100a760048036038101906100a2919061108c565b6101c4565b005b3480156100b557600080fd5b506100d060048036038101906100cb91906110fb565b610620565b6040516100e0949392919061126e565b60405180910390f35b61010360048036038101906100fe91906112e6565b6107ac565b005b34801561011157600080fd5b5061011a61092e565b005b34801561012857600080fd5b50610131610942565b60405161013e9190611339565b60405180910390f35b34801561015357600080fd5b5061016e60048036038101906101699190611379565b61096b565b005b34801561017c57600080fd5b50610185610a86565b604051610192919061157a565b60405180910390f35b3480156101a757600080fd5b506101c260048036038101906101bd919061159c565b610cb4565b005b6101ce6001610d37565b6000821015610212576040517f08c379a000000000000000000000000000000000000000000000000000000000815260040161020990611615565b60405180910390fd5b6000815111610256576040517f08c379a000000000000000000000000000000000000000000000000000000000815260040161024d90611681565b60405180910390fd5b60006102626001610d4d565b9050600460009054906101000a900473ffffffffffffffffffffffffffffffffffffffff1673ffffffffffffffffffffffffffffffffffffffff16630fe92cae846040518263ffffffff1660e01b81526004016102bf91906116a1565b602060405180830381865afa1580156102dc573d6000803e3d6000fd5b505050506040513d601f19601f8201168201806040525081019061030091906116f4565b61033f576040517f08c379a00000000000000000000000000000000000000000000000000000000081526004016103369061176d565b60405180910390fd5b600560009054906101000a900473ffffffffffffffffffffffffffffffffffffffff1673ffffffffffffffffffffffffffffffffffffffff166352142c8785856040518363ffffffff1660e01b815260040161039c92919061178d565b602060405180830381865afa1580156103b9573d6000803e3d6000fd5b505050506040513d601f19601f820116820180604052508101906103dd91906116f4565b61041c576040517f08c379a000000000000000000000000000000000000000000000000000000000815260040161041390611828565b60405180910390fd5b6040518060a001604052808281526020018481526020013373ffffffffffffffffffffffffffffffffffffffff16815260200183815260200160006002811115610469576104686111f7565b5b81525060026000838152602001908152602001600020600082015181600001556020820151816001015560408201518160020160006101000a81548173ffffffffffffffffffffffffffffffffffffffff021916908373ffffffffffffffffffffffffffffffffffffffff16021790555060608201518160030190816104ef9190611a54565b5060808201518160040160006101000a81548160ff0219169083600281111561051b5761051a6111f7565b5b02179055509050503373ffffffffffffffffffffffffffffffffffffffff1683827fbee96127fc856f54721f3e15c7d0f27a7947ed6c05f35a313ef16b5ae6653a838560405161056b9190611b26565b60405180910390a4600460009054906101000a900473ffffffffffffffffffffffffffffffffffffffff1673ffffffffffffffffffffffffffffffffffffffff1663837f574684836040518363ffffffff1660e01b81526004016105d092919061178d565b600060405180830381600087803b1580156105ea57600080fd5b505af11580156105fe573d6000803e3d6000fd5b505050506003600081548092919061061590611b77565b919050555050505050565b6000806060600080600260008781526020019081526020016000209050600073ffffffffffffffffffffffffffffffffffffffff168160020160009054906101000a900473ffffffffffffffffffffffffffffffffffffffff1673ffffffffffffffffffffffffffffffffffffffff16036106d0576040517f08c379a00000000000000000000000000000000000000000000000000000000081526004016106c790611c0b565b60405180910390fd5b80600101548160020160009054906101000a900473ffffffffffffffffffffffffffffffffffffffff16826003018360040160009054906101000a900460ff1681805461071c90611877565b80601f016020809104026020016040519081016040528092919081815260200182805461074890611877565b80156107955780601f1061076a57610100808354040283529160200191610795565b820191906000526020600020905b81548152906001019060200180831161077857829003601f168201915b505050505091509450945094509450509193509193565b6107b4610d5b565b8073ffffffffffffffffffffffffffffffffffffffff166002600085815260200190815260200160002060020160009054906101000a900473ffffffffffffffffffffffffffffffffffffffff1673ffffffffffffffffffffffffffffffffffffffff1614610858576040517f08c379a000000000000000000000000000000000000000000000000000000000815260040161084f90611c77565b60405180910390fd5b6001600281111561086c5761086b6111f7565b5b6002600085815260200190815260200160002060040160009054906101000a900460ff1660028111156108a2576108a16111f7565b5b146108e2576040517f08c379a00000000000000000000000000000000000000000000000000000000081526004016108d990611d09565b60405180910390fd5b8073ffffffffffffffffffffffffffffffffffffffff166108fc839081150290604051600060405180830381858888f19350505050158015610928573d6000803e3d6000fd5b50505050565b610936610d5b565b6109406000610dd9565b565b60008060009054906101000a900473ffffffffffffffffffffffffffffffffffffffff16905090565b610973610d5b565b6000600260008481526020019081526020016000209050600073ffffffffffffffffffffffffffffffffffffffff168160020160009054906101000a900473ffffffffffffffffffffffffffffffffffffffff1673ffffffffffffffffffffffffffffffffffffffff1603610a1d576040517f08c379a0000000000000000000000000000000000000000000000000000000008152600401610a1490611c0b565b60405180910390fd5b818160040160006101000a81548160ff02191690836002811115610a4457610a436111f7565b5b0217905550827f2e7de2377c1e6f85a268dbe00519c60d65c9e38570a118be0eb07feb07fc89be83604051610a799190611d29565b60405180910390a2505050565b60606000610a946001610d4d565b905060008167ffffffffffffffff811115610ab257610ab1610f61565b5b604051908082528060200260200182016040528015610aeb57816020015b610ad8610ea5565b815260200190600190039081610ad05790505b50905060008080600090505b84811015610ca957600181610b0c9190611d44565b91506000600260008481526020019081526020016000209050806040518060a001604052908160008201548152602001600182015481526020016002820160009054906101000a900473ffffffffffffffffffffffffffffffffffffffff1673ffffffffffffffffffffffffffffffffffffffff1673ffffffffffffffffffffffffffffffffffffffff168152602001600382018054610bab90611877565b80601f0160208091040260200160405190810160405280929190818152602001828054610bd790611877565b8015610c245780601f10610bf957610100808354040283529160200191610c24565b820191906000526020600020905b815481529060010190602001808311610c0757829003601f168201915b505050505081526020016004820160009054906101000a900460ff166002811115610c5257610c516111f7565b5b6002811115610c6457610c636111f7565b5b81525050858581518110610c7b57610c7a611d78565b5b6020026020010181905250600184610c939190611d44565b9350508080610ca190611b77565b915050610af7565b508294505050505090565b610cbc610d5b565b600073ffffffffffffffffffffffffffffffffffffffff168173ffffffffffffffffffffffffffffffffffffffff1603610d2b576040517f08c379a0000000000000000000000000000000000000000000000000000000008152600401610d2290611e19565b60405180910390fd5b610d3481610dd9565b50565b6001816000016000828254019250508190555050565b600081600001549050919050565b610d63610e9d565b73ffffffffffffffffffffffffffffffffffffffff16610d81610942565b73ffffffffffffffffffffffffffffffffffffffff1614610dd7576040517f08c379a0000000000000000000000000000000000000000000000000000000008152600401610dce90611e85565b60405180910390fd5b565b60008060009054906101000a900473ffffffffffffffffffffffffffffffffffffffff169050816000806101000a81548173ffffffffffffffffffffffffffffffffffffffff021916908373ffffffffffffffffffffffffffffffffffffffff1602179055508173ffffffffffffffffffffffffffffffffffffffff168173ffffffffffffffffffffffffffffffffffffffff167f8be0079c531659141344cd1fd0a4f28419497f9722a3daafe3b4186f6b6457e060405160405180910390a35050565b600033905090565b6040518060a001604052806000815260200160008152602001600073ffffffffffffffffffffffffffffffffffffffff1681526020016060815260200160006002811115610ef657610ef56111f7565b5b81525090565b6000604051905090565b600080fd5b600080fd5b6000819050919050565b610f2381610f10565b8114610f2e57600080fd5b50565b600081359050610f4081610f1a565b92915050565b600080fd5b600080fd5b6000601f19601f8301169050919050565b7f4e487b7100000000000000000000000000000000000000000000000000000000600052604160045260246000fd5b610f9982610f50565b810181811067ffffffffffffffff82111715610fb857610fb7610f61565b5b80604052505050565b6000610fcb610efc565b9050610fd78282610f90565b919050565b600067ffffffffffffffff821115610ff757610ff6610f61565b5b61100082610f50565b9050602081019050919050565b82818337600083830152505050565b600061102f61102a84610fdc565b610fc1565b90508281526020810184848401111561104b5761104a610f4b565b5b61105684828561100d565b509392505050565b600082601f83011261107357611072610f46565b5b813561108384826020860161101c565b91505092915050565b6000806000606084860312156110a5576110a4610f06565b5b60006110b386828701610f31565b93505060206110c486828701610f31565b925050604084013567ffffffffffffffff8111156110e5576110e4610f0b565b5b6110f18682870161105e565b9150509250925092565b60006020828403121561111157611110610f06565b5b600061111f84828501610f31565b91505092915050565b61113181610f10565b82525050565b600073ffffffffffffffffffffffffffffffffffffffff82169050919050565b600061116282611137565b9050919050565b61117281611157565b82525050565b600081519050919050565b600082825260208201905092915050565b60005b838110156111b2578082015181840152602081019050611197565b60008484015250505050565b60006111c982611178565b6111d38185611183565b93506111e3818560208601611194565b6111ec81610f50565b840191505092915050565b7f4e487b7100000000000000000000000000000000000000000000000000000000600052602160045260246000fd5b60038110611237576112366111f7565b5b50565b600081905061124882611226565b919050565b60006112588261123a565b9050919050565b6112688161124d565b82525050565b60006080820190506112836000830187611128565b6112906020830186611169565b81810360408301526112a281856111be565b90506112b1606083018461125f565b95945050505050565b6112c381611157565b81146112ce57600080fd5b50565b6000813590506112e0816112ba565b92915050565b6000806000606084860312156112ff576112fe610f06565b5b600061130d86828701610f31565b935050602061131e86828701610f31565b925050604061132f868287016112d1565b9150509250925092565b600060208201905061134e6000830184611169565b92915050565b6003811061136157600080fd5b50565b60008135905061137381611354565b92915050565b600080604083850312156113905761138f610f06565b5b600061139e85828601610f31565b92505060206113af85828601611364565b9150509250929050565b600081519050919050565b600082825260208201905092915050565b6000819050602082019050919050565b6113ee81610f10565b82525050565b60006113ff82611137565b9050919050565b61140f816113f4565b82525050565b600082825260208201905092915050565b600061143182611178565b61143b8185611415565b935061144b818560208601611194565b61145481610f50565b840191505092915050565b6114688161124d565b82525050565b600060a08301600083015161148660008601826113e5565b50602083015161149960208601826113e5565b5060408301516114ac6040860182611406565b50606083015184820360608601526114c48282611426565b91505060808301516114d9608086018261145f565b508091505092915050565b60006114f0838361146e565b905092915050565b6000602082019050919050565b6000611510826113b9565b61151a81856113c4565b93508360208202850161152c856113d5565b8060005b85811015611568578484038952815161154985826114e4565b9450611554836114f8565b925060208a01995050600181019050611530565b50829750879550505050505092915050565b600060208201905081810360008301526115948184611505565b905092915050565b6000602082840312156115b2576115b1610f06565b5b60006115c0848285016112d1565b91505092915050565b7f496e76616c696420706f6c696379204944000000000000000000000000000000600082015250565b60006115ff601183611183565b915061160a826115c9565b602082019050919050565b6000602082019050818103600083015261162e816115f2565b9050919050565b7f4465736372697074696f6e2063616e6e6f7420626520656d7074790000000000600082015250565b600061166b601b83611183565b915061167682611635565b602082019050919050565b6000602082019050818103600083015261169a8161165e565b9050919050565b60006020820190506116b66000830184611128565b92915050565b60008115159050919050565b6116d1816116bc565b81146116dc57600080fd5b50565b6000815190506116ee816116c8565b92915050565b60006020828403121561170a57611709610f06565b5b6000611718848285016116df565b91505092915050565b7f506f6c69637920646f65736e2774206578697374000000000000000000000000600082015250565b6000611757601483611183565b915061176282611721565b602082019050919050565b600060208201905081810360008301526117868161174a565b9050919050565b60006040820190506117a26000830185611128565b6117af6020830184611128565b9392505050565b7f596f7520686176656e2774207265676973746572656420666f7220746865736560008201527f20706f6c6963792c20596f752063616e206e6f7420636c61696d000000000000602082015250565b6000611812603a83611183565b915061181d826117b6565b604082019050919050565b6000602082019050818103600083015261184181611805565b9050919050565b7f4e487b7100000000000000000000000000000000000000000000000000000000600052602260045260246000fd5b6000600282049050600182168061188f57607f821691505b6020821081036118a2576118a1611848565b5b50919050565b60008190508160005260206000209050919050565b60006020601f8301049050919050565b600082821b905092915050565b60006008830261190a7fffffffffffffffffffffffffffffffffffffffffffffffffffffffffffffffff826118cd565b61191486836118cd565b95508019841693508086168417925050509392505050565b6000819050919050565b600061195161194c61194784610f10565b61192c565b610f10565b9050919050565b6000819050919050565b61196b83611936565b61197f61197782611958565b8484546118da565b825550505050565b600090565b611994611987565b61199f818484611962565b505050565b5b818110156119c3576119b860008261198c565b6001810190506119a5565b5050565b601f821115611a08576119d9816118a8565b6119e2846118bd565b810160208510156119f1578190505b611a056119fd856118bd565b8301826119a4565b50505b505050565b600082821c905092915050565b6000611a2b60001984600802611a0d565b1980831691505092915050565b6000611a448383611a1a565b9150826002028217905092915050565b611a5d82611178565b67ffffffffffffffff811115611a7657611a75610f61565b5b611a808254611877565b611a8b8282856119c7565b600060209050601f831160018114611abe5760008415611aac578287015190505b611ab68582611a38565b865550611b1e565b601f198416611acc866118a8565b60005b82811015611af457848901518255600182019150602085019450602081019050611acf565b86831015611b115784890151611b0d601f891682611a1a565b8355505b6001600288020188555050505b505050505050565b60006020820190508181036000830152611b4081846111be565b905092915050565b7f4e487b7100000000000000000000000000000000000000000000000000000000600052601160045260246000fd5b6000611b8282610f10565b91507fffffffffffffffffffffffffffffffffffffffffffffffffffffffffffffffff8203611bb457611bb3611b48565b5b600182019050919050565b7f436c61696d20646f6573206e6f74206578697374000000000000000000000000600082015250565b6000611bf5601483611183565b9150611c0082611bbf565b602082019050919050565b60006020820190508181036000830152611c2481611be8565b9050919050565b7f496e636f727265637420636c61696d616e742061646472657373000000000000600082015250565b6000611c61601a83611183565b9150611c6c82611c2b565b602082019050919050565b60006020820190508181036000830152611c9081611c54565b9050919050565b7f436c61696d616e742068617320746f206265206669727374206163636570746560008201527f6400000000000000000000000000000000000000000000000000000000000000602082015250565b6000611cf3602183611183565b9150611cfe82611c97565b604082019050919050565b60006020820190508181036000830152611d2281611ce6565b9050919050565b6000602082019050611d3e600083018461125f565b92915050565b6000611d4f82610f10565b9150611d5a83610f10565b9250828201905080821115611d7257611d71611b48565b5b92915050565b7f4e487b7100000000000000000000000000000000000000000000000000000000600052603260045260246000fd5b7f4f776e61626c653a206e6577206f776e657220697320746865207a65726f206160008201527f6464726573730000000000000000000000000000000000000000000000000000602082015250565b6000611e03602683611183565b9150611e0e82611da7565b604082019050919050565b60006020820190508181036000830152611e3281611df6565b9050919050565b7f4f776e61626c653a2063616c6c6572206973206e6f7420746865206f776e6572600082015250565b6000611e6f602083611183565b9150611e7a82611e39565b602082019050919050565b60006020820190508181036000830152611e9e81611e62565b905091905056fea2646970667358221220ae8839920875d7733de5fda9bc2b423386302108c94f83915c4725e7f6f98e1964736f6c63430008120033",
  "linkReferences": {},
  "deployedLinkReferences": {}
}