{
  "_format": "hh-sol-artifact-1",
  "contractName": "InsurancePolicyContract",
  "sourceName": "contracts/InsurancePolicyContract.sol",
  "abi": [
    {
      "inputs": [],
      "stateMutability": "nonpayable",
      "type": "constructor"
    },
    {
      "anonymous": false,
      "inputs": [
        {
          "indexed": true,
          "internalType": "uint256",
          "name": "policyId",
          "type": "uint256"
        },
        {
          "indexed": true,
          "internalType": "uint256",
          "name": "claimId",
          "type": "uint256"
        }
      ],
      "name": "ClaimAssociated",
      "type": "event"
    },
    {
      "anonymous": false,
      "inputs": [
        {
          "indexed": true,
          "internalType": "address",
          "name": "previousOwner",
          "type": "address"
        },
        {
          "indexed": true,
          "internalType": "address",
          "name": "newOwner",
          "type": "address"
        }
      ],
      "name": "OwnershipTransferred",
      "type": "event"
    },
    {
      "anonymous": false,
      "inputs": [
        {
          "indexed": true,
          "internalType": "uint256",
          "name": "policyId",
          "type": "uint256"
        },
        {
          "indexed": true,
          "internalType": "address",
          "name": "usersVechice",
          "type": "address"
        },
        {
          "indexed": false,
          "internalType": "uint256",
          "name": "moneyBalance",
          "type": "uint256"
        },
        {
          "indexed": false,
          "internalType": "uint256",
          "name": "timestamp",
          "type": "uint256"
        },
        {
          "indexed": false,
          "internalType": "uint256",
          "name": "endTime",
          "type": "uint256"
        },
        {
          "indexed": false,
          "internalType": "bool",
          "name": "monthlyPaid",
          "type": "bool"
        }
      ],
      "name": "PaymenMade",
      "type": "event"
    },
    {
      "anonymous": false,
      "inputs": [
        {
          "indexed": true,
          "internalType": "uint256",
          "name": "policyId",
          "type": "uint256"
        },
        {
          "indexed": true,
          "internalType": "address",
          "name": "owner",
          "type": "address"
        },
        {
          "indexed": false,
          "internalType": "uint256",
          "name": "premiumAmount",
          "type": "uint256"
        }
      ],
      "name": "PolicyCreated",
      "type": "event"
    },
    {
      "anonymous": false,
      "inputs": [
        {
          "indexed": true,
          "internalType": "uint256",
          "name": "policyId",
          "type": "uint256"
        },
        {
          "indexed": false,
          "internalType": "enum InsurancePolicyContract.PolicyStatus",
          "name": "status",
          "type": "uint8"
        }
      ],
      "name": "PolicyStatusUpdated",
      "type": "event"
    },
    {
      "inputs": [
        {
          "internalType": "uint256",
          "name": "_policyId",
          "type": "uint256"
        },
        {
          "internalType": "uint256",
          "name": "_claimId",
          "type": "uint256"
        }
      ],
      "name": "associateClaim",
      "outputs": [],
      "stateMutability": "nonpayable",
      "type": "function"
    },
    {
      "inputs": [
        {
          "internalType": "uint256",
          "name": "currentTimestamp",
          "type": "uint256"
        }
      ],
      "name": "checkPaymentPeriod",
      "outputs": [
        {
          "internalType": "bool",
          "name": "",
          "type": "bool"
        }
      ],
      "stateMutability": "view",
      "type": "function"
    },
    {
      "inputs": [
        {
          "internalType": "uint256",
          "name": "_premiumAmount",
          "type": "uint256"
        },
        {
          "internalType": "string",
          "name": "_dataUrl",
          "type": "string"
        }
      ],
      "name": "createPolicy",
      "outputs": [],
      "stateMutability": "nonpayable",
      "type": "function"
    },
    {
      "inputs": [
        {
          "internalType": "address",
          "name": "_owner",
          "type": "address"
        }
      ],
      "name": "getInsurancePoliciesByOwner",
      "outputs": [
        {
          "internalType": "uint256[]",
          "name": "",
          "type": "uint256[]"
        }
      ],
      "stateMutability": "view",
      "type": "function"
    },
    {
      "inputs": [
        {
          "internalType": "uint256",
          "name": "_policyId",
          "type": "uint256"
        }
      ],
      "name": "getPolicy",
      "outputs": [
        {
          "internalType": "uint256",
          "name": "policyId",
          "type": "uint256"
        },
        {
          "internalType": "address",
          "name": "owner",
          "type": "address"
        },
        {
          "internalType": "uint256",
          "name": "premiumAmount",
          "type": "uint256"
        },
        {
          "internalType": "enum InsurancePolicyContract.PolicyStatus",
          "name": "status",
          "type": "uint8"
        },
        {
          "internalType": "uint256[]",
          "name": "claimIds",
          "type": "uint256[]"
        }
      ],
      "stateMutability": "view",
      "type": "function"
    },
    {
      "inputs": [],
      "name": "listAllUserPayments",
      "outputs": [
        {
          "components": [
            {
              "internalType": "uint256",
              "name": "policyId",
              "type": "uint256"
            },
            {
              "internalType": "address",
              "name": "usersVechice",
              "type": "address"
            },
            {
              "internalType": "uint256",
              "name": "moneyBalance",
              "type": "uint256"
            },
            {
              "internalType": "uint256",
              "name": "timestamp",
              "type": "uint256"
            },
            {
              "internalType": "uint256",
              "name": "endtime",
              "type": "uint256"
            },
            {
              "internalType": "bool",
              "name": "monthlyPaid",
              "type": "bool"
            }
          ],
          "internalType": "struct InsurancePolicyContract.UserPayment[]",
          "name": "",
          "type": "tuple[]"
        }
      ],
      "stateMutability": "view",
      "type": "function"
    },
    {
      "inputs": [],
      "name": "listInsurancePolicies",
      "outputs": [
        {
          "components": [
            {
              "internalType": "uint256",
              "name": "policyId",
              "type": "uint256"
            },
            {
              "internalType": "address",
              "name": "owner",
              "type": "address"
            },
            {
              "internalType": "uint256",
              "name": "premiumAmount",
              "type": "uint256"
            },
            {
              "internalType": "string",
              "name": "dataUrl",
              "type": "string"
            },
            {
              "internalType": "enum InsurancePolicyContract.PolicyStatus",
              "name": "status",
              "type": "uint8"
            },
            {
              "internalType": "bool",
              "name": "isRegistered",
              "type": "bool"
            },
            {
              "internalType": "uint256[]",
              "name": "claimIds",
              "type": "uint256[]"
            }
          ],
          "internalType": "struct InsurancePolicyContract.PolicyInfo[]",
          "name": "",
          "type": "tuple[]"
        }
      ],
      "stateMutability": "view",
      "type": "function"
    },
    {
      "inputs": [
        {
          "internalType": "uint256",
          "name": "index",
          "type": "uint256"
        },
        {
          "internalType": "address",
          "name": "user",
          "type": "address"
        },
        {
          "internalType": "uint256",
          "name": "_policyId",
          "type": "uint256"
        }
      ],
      "name": "monthlyPayment",
      "outputs": [],
      "stateMutability": "payable",
      "type": "function"
    },
    {
      "inputs": [],
      "name": "owner",
      "outputs": [
        {
          "internalType": "address",
          "name": "",
          "type": "address"
        }
      ],
      "stateMutability": "view",
      "type": "function"
    },
    {
      "inputs": [
        {
          "internalType": "uint256",
          "name": "",
          "type": "uint256"
        }
      ],
      "name": "payments",
      "outputs": [
        {
          "internalType": "uint256",
          "name": "policyId",
          "type": "uint256"
        },
        {
          "internalType": "address",
          "name": "usersVechice",
          "type": "address"
        },
        {
          "internalType": "uint256",
          "name": "moneyBalance",
          "type": "uint256"
        },
        {
          "internalType": "uint256",
          "name": "timestamp",
          "type": "uint256"
        },
        {
          "internalType": "uint256",
          "name": "endtime",
          "type": "uint256"
        },
        {
          "internalType": "bool",
          "name": "monthlyPaid",
          "type": "bool"
        }
      ],
      "stateMutability": "view",
      "type": "function"
    },
    {
      "inputs": [
        {
          "internalType": "uint256",
          "name": "_policyId",
          "type": "uint256"
        }
      ],
      "name": "policyExists",
      "outputs": [
        {
          "internalType": "bool",
          "name": "",
          "type": "bool"
        }
      ],
      "stateMutability": "view",
      "type": "function"
    },
    {
      "inputs": [],
      "name": "renounceOwnership",
      "outputs": [],
      "stateMutability": "nonpayable",
      "type": "function"
    },
    {
      "inputs": [
        {
          "internalType": "address",
          "name": "newOwner",
          "type": "address"
        }
      ],
      "name": "transferOwnership",
      "outputs": [],
      "stateMutability": "nonpayable",
      "type": "function"
    },
    {
      "inputs": [
        {
          "internalType": "uint256",
          "name": "index",
          "type": "uint256"
        }
      ],
      "name": "updateNextTime",
      "outputs": [
        {
          "internalType": "string",
          "name": "",
          "type": "string"
        }
      ],
      "stateMutability": "nonpayable",
      "type": "function"
    },
    {
      "inputs": [
        {
          "internalType": "uint256",
          "name": "_policyId",
          "type": "uint256"
        },
        {
          "internalType": "enum InsurancePolicyContract.PolicyStatus",
          "name": "_status",
          "type": "uint8"
        }
      ],
      "name": "updatePolicyStatus",
      "outputs": [],
      "stateMutability": "nonpayable",
      "type": "function"
    }
  ],
  "bytecode": "0x608060405260016005553480156200001657600080fd5b50620000376200002b6200004e60201b60201c565b6200005660201b60201c565b62000048336200011a60201b60201c565b62000385565b600033905090565b60008060009054906101000a900473ffffffffffffffffffffffffffffffffffffffff169050816000806101000a81548173ffffffffffffffffffffffffffffffffffffffff021916908373ffffffffffffffffffffffffffffffffffffffff1602179055508173ffffffffffffffffffffffffffffffffffffffff168173ffffffffffffffffffffffffffffffffffffffff167f8be0079c531659141344cd1fd0a4f28419497f9722a3daafe3b4186f6b6457e060405160405180910390a35050565b6200012a620001b060201b60201c565b600073ffffffffffffffffffffffffffffffffffffffff168173ffffffffffffffffffffffffffffffffffffffff16036200019c576040517f08c379a00000000000000000000000000000000000000000000000000000000081526004016200019390620002f1565b60405180910390fd5b620001ad816200005660201b60201c565b50565b620001c06200004e60201b60201c565b73ffffffffffffffffffffffffffffffffffffffff16620001e66200024160201b60201c565b73ffffffffffffffffffffffffffffffffffffffff16146200023f576040517f08c379a0000000000000000000000000000000000000000000000000000000008152600401620002369062000363565b60405180910390fd5b565b60008060009054906101000a900473ffffffffffffffffffffffffffffffffffffffff16905090565b600082825260208201905092915050565b7f4f776e61626c653a206e6577206f776e657220697320746865207a65726f206160008201527f6464726573730000000000000000000000000000000000000000000000000000602082015250565b6000620002d96026836200026a565b9150620002e6826200027b565b604082019050919050565b600060208201905081810360008301526200030c81620002ca565b9050919050565b7f4f776e61626c653a2063616c6c6572206973206e6f7420746865206f776e6572600082015250565b60006200034b6020836200026a565b9150620003588262000313565b602082019050919050565b600060208201905081810360008301526200037e816200033c565b9050919050565b612a6280620003956000396000f3fe6080604052600436106100e85760003560e01c80638d08ed331161008a578063d367a15711610059578063d367a15714610314578063dc0e04221461033d578063e005cb3a14610368578063f2fde38b14610393576100e8565b80638d08ed33146102675780638da5cb5b146102a4578063a0b6ee35146102cf578063b963a5d1146102eb576100e8565b80636a3f198c116100c65780636a3f198c146101a8578063715018a6146101e5578063837f5746146101fc57806387d8178914610225576100e8565b80630fe92cae146100ed5780632b07fce31461012a5780636956e6421461016b575b600080fd5b3480156100f957600080fd5b50610114600480360381019061010f91906117ba565b6103bc565b6040516101219190611802565b60405180910390f35b34801561013657600080fd5b50610151600480360381019061014c91906117ba565b6103e9565b6040516101629594939291906119a2565b60405180910390f35b34801561017757600080fd5b50610192600480360381019061018d9190611a28565b6104b3565b60405161019f9190611a55565b60405180910390f35b3480156101b457600080fd5b506101cf60048036038101906101ca91906117ba565b6105e1565b6040516101dc9190611802565b60405180910390f35b3480156101f157600080fd5b506101fa6106ac565b005b34801561020857600080fd5b50610223600480360381019061021e9190611a77565b6106c0565b005b34801561023157600080fd5b5061024c600480360381019061024791906117ba565b6107c8565b60405161025e96959493929190611ab7565b60405180910390f35b34801561027357600080fd5b5061028e600480360381019061028991906117ba565b610831565b60405161029b9190611ba8565b60405180910390f35b3480156102b057600080fd5b506102b961090b565b6040516102c69190611bca565b60405180910390f35b6102e960048036038101906102e49190611be5565b610934565b005b3480156102f757600080fd5b50610312600480360381019061030d9190611c5d565b610ca7565b005b34801561032057600080fd5b5061033b60048036038101906103369190611dd2565b610dc2565b005b34801561034957600080fd5b5061035261102f565b60405161035f9190611f76565b60405180910390f35b34801561037457600080fd5b5061037d6111bf565b60405161038a91906121c5565b60405180910390f35b34801561039f57600080fd5b506103ba60048036038101906103b59190611a28565b611460565b005b60006004600083815260200190815260200160002060040160019054906101000a900460ff169050919050565b6000806000806060600060046000888152602001908152602001600020905080600001548160010160009054906101000a900473ffffffffffffffffffffffffffffffffffffffff1682600201548360040160009054906101000a900460ff16846005018080548060200260200160405190810160405280929190818152602001828054801561049857602002820191906000526020600020905b815481526020019060010190808311610484575b50505050509050955095509550955095505091939590929450565b6060600060055467ffffffffffffffff8111156104d3576104d2611ca7565b5b6040519080825280602002602001820160405280156105015781602001602082028036833780820191505090505b5090506000805b6005548110156105d3578473ffffffffffffffffffffffffffffffffffffffff166004600083815260200190815260200160002060010160009054906101000a900473ffffffffffffffffffffffffffffffffffffffff1673ffffffffffffffffffffffffffffffffffffffff16036105c05760046000828152602001908152602001600020600001548383815181106105a5576105a46121e7565b5b60200260200101818152505081806105bc90612245565b9250505b80806105cb90612245565b915050610508565b508082528192505050919050565b6000806105ee60026114e3565b905060005b818110156106a0573373ffffffffffffffffffffffffffffffffffffffff166003600083815260200190815260200160002060010160009054906101000a900473ffffffffffffffffffffffffffffffffffffffff1673ffffffffffffffffffffffffffffffffffffffff160361068d578360036000838152602001908152602001600020600401540361068c576001925050506106a7565b5b808061069890612245565b9150506105f3565b5060009150505b919050565b6106b46114f1565b6106be600061156f565b565b6000600460008481526020019081526020016000209050600073ffffffffffffffffffffffffffffffffffffffff168160010160009054906101000a900473ffffffffffffffffffffffffffffffffffffffff1673ffffffffffffffffffffffffffffffffffffffff160361076a576040517f08c379a0000000000000000000000000000000000000000000000000000000008152600401610761906122d9565b60405180910390fd5b8060050182908060018154018082558091505060019003906000526020600020016000909190919091505581837f6209d5e57427b535a493ae090f045c5a41900a11fa9105e1a4753629e410d33260405160405180910390a3505050565b60036020528060005260406000206000915090508060000154908060010160009054906101000a900473ffffffffffffffffffffffffffffffffffffffff16908060020154908060030154908060040154908060050160009054906101000a900460ff16905086565b606060036000838152602001908152602001600020600401544211156108cd5762278d00600360008481526020019081526020016000206004015461087691906122f9565b60036000848152602001908152602001600020600401819055506040518060400160405280601781526020017f706179207468657365206d6f6e7468207061796d656e740000000000000000008152509050610906565b6040518060400160405280601b81526020017f596f7572207061796d656e74206973206e6f742064756520796574000000000081525090505b919050565b60008060009054906101000a900473ffffffffffffffffffffffffffffffffffffffff16905090565b6000600a6004600084815260200190815260200160002060020154610959919061235c565b905080341461099d576040517f08c379a0000000000000000000000000000000000000000000000000000000008152600401610994906123ff565b60405180910390fd5b6000600360008681526020019081526020016000206004015414610a145760036000858152602001908152602001600020600401544211610a13576040517f08c379a0000000000000000000000000000000000000000000000000000000008152600401610a0a90612491565b60405180910390fd5b5b610a1e6002611633565b6000610a2a60026114e3565b905081600360008781526020019081526020016000206002016000828254610a5291906122f9565b925050819055506000600360008781526020019081526020016000206002015490506004600085815260200190815260200160002060020154811115610acd576040517f08c379a0000000000000000000000000000000000000000000000000000000008152600401610ac490612523565b60405180910390fd5b600062278d0042610ade91906122f9565b90506040518060c001604052808681526020018773ffffffffffffffffffffffffffffffffffffffff16815260200183815260200142815260200182815260200160011515815250600360008581526020019081526020016000206000820151816000015560208201518160010160006101000a81548173ffffffffffffffffffffffffffffffffffffffff021916908373ffffffffffffffffffffffffffffffffffffffff16021790555060408201518160020155606082015181600301556080820151816004015560a08201518160050160006101000a81548160ff0219169083151502179055509050508573ffffffffffffffffffffffffffffffffffffffff16857fd026c912319d13d6cf216606fd546d9ec9262e9ba778b62021b7ea9f26f9b60c8642856001604051610c199493929190612543565b60405180910390a36004600086815260200190815260200160002060010160009054906101000a900473ffffffffffffffffffffffffffffffffffffffff1673ffffffffffffffffffffffffffffffffffffffff166108fc349081150290604051600060405180830381858888f19350505050158015610c9d573d6000803e3d6000fd5b5050505050505050565b610caf6114f1565b6000600460008481526020019081526020016000209050600073ffffffffffffffffffffffffffffffffffffffff168160010160009054906101000a900473ffffffffffffffffffffffffffffffffffffffff1673ffffffffffffffffffffffffffffffffffffffff1603610d59576040517f08c379a0000000000000000000000000000000000000000000000000000000008152600401610d50906122d9565b60405180910390fd5b818160040160006101000a81548160ff02191690836001811115610d8057610d7f61186d565b5b0217905550827fddba6ca814ce3f0cb8c9b4b44e5e1891ef8c2857746e6b7453464abc1539209b83604051610db59190612588565b60405180910390a2505050565b610dca6114f1565b610dd46001611633565b60008211610e17576040517f08c379a0000000000000000000000000000000000000000000000000000000008152600401610e0e90612615565b60405180910390fd5b6000610e2360016114e3565b90506040518060e0016040528060055481526020013373ffffffffffffffffffffffffffffffffffffffff16815260200184815260200183815260200160006001811115610e7457610e7361186d565b5b8152602001600115158152602001600067ffffffffffffffff811115610e9d57610e9c611ca7565b5b604051908082528060200260200182016040528015610ecb5781602001602082028036833780820191505090505b50815250600460008381526020019081526020016000206000820151816000015560208201518160010160006101000a81548173ffffffffffffffffffffffffffffffffffffffff021916908373ffffffffffffffffffffffffffffffffffffffff160217905550604082015181600201556060820151816003019081610f529190612841565b5060808201518160040160006101000a81548160ff02191690836001811115610f7e57610f7d61186d565b5b021790555060a08201518160040160016101000a81548160ff02191690831515021790555060c0820151816005019080519060200190610fbf929190611651565b509050503373ffffffffffffffffffffffffffffffffffffffff16817f601882301d3e3fce7fe3a99d4bb17ef5b6699b417bdd29f2bfb82e19fcbcb6608560405161100a9190612913565b60405180910390a36005600081548092919061102590612245565b9190505550505050565b6060600061103d60016114e3565b905060008167ffffffffffffffff81111561105b5761105a611ca7565b5b60405190808252806020026020018201604052801561109457816020015b61108161169e565b8152602001906001900390816110795790505b50905060008080600090505b848110156111b4576001816110b591906122f9565b91506000600360008481526020019081526020016000209050806040518060c0016040529081600082015481526020016001820160009054906101000a900473ffffffffffffffffffffffffffffffffffffffff1673ffffffffffffffffffffffffffffffffffffffff1673ffffffffffffffffffffffffffffffffffffffff1681526020016002820154815260200160038201548152602001600482015481526020016005820160009054906101000a900460ff161515151581525050858581518110611186576111856121e7565b5b602002602001018190525060018461119e91906122f9565b93505080806111ac90612245565b9150506110a0565b508294505050505090565b606060006111cd60016114e3565b905060008167ffffffffffffffff8111156111eb576111ea611ca7565b5b60405190808252806020026020018201604052801561122457816020015b6112116116ec565b8152602001906001900390816112095790505b50905060008080600090505b848110156114555760018161124591906122f9565b91506000600460008481526020019081526020016000209050806040518060e0016040529081600082015481526020016001820160009054906101000a900473ffffffffffffffffffffffffffffffffffffffff1673ffffffffffffffffffffffffffffffffffffffff1673ffffffffffffffffffffffffffffffffffffffff168152602001600282015481526020016003820180546112e490612664565b80601f016020809104026020016040519081016040528092919081815260200182805461131090612664565b801561135d5780601f106113325761010080835404028352916020019161135d565b820191906000526020600020905b81548152906001019060200180831161134057829003601f168201915b505050505081526020016004820160009054906101000a900460ff16600181111561138b5761138a61186d565b5b600181111561139d5761139c61186d565b5b81526020016004820160019054906101000a900460ff161515151581526020016005820180548060200260200160405190810160405280929190818152602001828054801561140b57602002820191906000526020600020905b8154815260200190600101908083116113f7575b505050505081525050858581518110611427576114266121e7565b5b602002602001018190525060018461143f91906122f9565b935050808061144d90612245565b915050611230565b508294505050505090565b6114686114f1565b600073ffffffffffffffffffffffffffffffffffffffff168173ffffffffffffffffffffffffffffffffffffffff16036114d7576040517f08c379a00000000000000000000000000000000000000000000000000000000081526004016114ce906129a0565b60405180910390fd5b6114e08161156f565b50565b600081600001549050919050565b6114f9611649565b73ffffffffffffffffffffffffffffffffffffffff1661151761090b565b73ffffffffffffffffffffffffffffffffffffffff161461156d576040517f08c379a000000000000000000000000000000000000000000000000000000000815260040161156490612a0c565b60405180910390fd5b565b60008060009054906101000a900473ffffffffffffffffffffffffffffffffffffffff169050816000806101000a81548173ffffffffffffffffffffffffffffffffffffffff021916908373ffffffffffffffffffffffffffffffffffffffff1602179055508173ffffffffffffffffffffffffffffffffffffffff168173ffffffffffffffffffffffffffffffffffffffff167f8be0079c531659141344cd1fd0a4f28419497f9722a3daafe3b4186f6b6457e060405160405180910390a35050565b6001816000016000828254019250508190555050565b600033905090565b82805482825590600052602060002090810192821561168d579160200282015b8281111561168c578251825591602001919060010190611671565b5b50905061169a9190611753565b5090565b6040518060c0016040528060008152602001600073ffffffffffffffffffffffffffffffffffffffff1681526020016000815260200160008152602001600081526020016000151581525090565b6040518060e0016040528060008152602001600073ffffffffffffffffffffffffffffffffffffffff16815260200160008152602001606081526020016000600181111561173d5761173c61186d565b5b8152602001600015158152602001606081525090565b5b8082111561176c576000816000905550600101611754565b5090565b6000604051905090565b600080fd5b600080fd5b6000819050919050565b61179781611784565b81146117a257600080fd5b50565b6000813590506117b48161178e565b92915050565b6000602082840312156117d0576117cf61177a565b5b60006117de848285016117a5565b91505092915050565b60008115159050919050565b6117fc816117e7565b82525050565b600060208201905061181760008301846117f3565b92915050565b61182681611784565b82525050565b600073ffffffffffffffffffffffffffffffffffffffff82169050919050565b60006118578261182c565b9050919050565b6118678161184c565b82525050565b7f4e487b7100000000000000000000000000000000000000000000000000000000600052602160045260246000fd5b600281106118ad576118ac61186d565b5b50565b60008190506118be8261189c565b919050565b60006118ce826118b0565b9050919050565b6118de816118c3565b82525050565b600081519050919050565b600082825260208201905092915050565b6000819050602082019050919050565b61191981611784565b82525050565b600061192b8383611910565b60208301905092915050565b6000602082019050919050565b600061194f826118e4565b61195981856118ef565b935061196483611900565b8060005b8381101561199557815161197c888261191f565b975061198783611937565b925050600181019050611968565b5085935050505092915050565b600060a0820190506119b7600083018861181d565b6119c4602083018761185e565b6119d1604083018661181d565b6119de60608301856118d5565b81810360808301526119f08184611944565b90509695505050505050565b611a058161184c565b8114611a1057600080fd5b50565b600081359050611a22816119fc565b92915050565b600060208284031215611a3e57611a3d61177a565b5b6000611a4c84828501611a13565b91505092915050565b60006020820190508181036000830152611a6f8184611944565b905092915050565b60008060408385031215611a8e57611a8d61177a565b5b6000611a9c858286016117a5565b9250506020611aad858286016117a5565b9150509250929050565b600060c082019050611acc600083018961181d565b611ad9602083018861185e565b611ae6604083018761181d565b611af3606083018661181d565b611b00608083018561181d565b611b0d60a08301846117f3565b979650505050505050565b600081519050919050565b600082825260208201905092915050565b60005b83811015611b52578082015181840152602081019050611b37565b60008484015250505050565b6000601f19601f8301169050919050565b6000611b7a82611b18565b611b848185611b23565b9350611b94818560208601611b34565b611b9d81611b5e565b840191505092915050565b60006020820190508181036000830152611bc28184611b6f565b905092915050565b6000602082019050611bdf600083018461185e565b92915050565b600080600060608486031215611bfe57611bfd61177a565b5b6000611c0c868287016117a5565b9350506020611c1d86828701611a13565b9250506040611c2e868287016117a5565b9150509250925092565b60028110611c4557600080fd5b50565b600081359050611c5781611c38565b92915050565b60008060408385031215611c7457611c7361177a565b5b6000611c82858286016117a5565b9250506020611c9385828601611c48565b9150509250929050565b600080fd5b600080fd5b7f4e487b7100000000000000000000000000000000000000000000000000000000600052604160045260246000fd5b611cdf82611b5e565b810181811067ffffffffffffffff82111715611cfe57611cfd611ca7565b5b80604052505050565b6000611d11611770565b9050611d1d8282611cd6565b919050565b600067ffffffffffffffff821115611d3d57611d3c611ca7565b5b611d4682611b5e565b9050602081019050919050565b82818337600083830152505050565b6000611d75611d7084611d22565b611d07565b905082815260208101848484011115611d9157611d90611ca2565b5b611d9c848285611d53565b509392505050565b600082601f830112611db957611db8611c9d565b5b8135611dc9848260208601611d62565b91505092915050565b60008060408385031215611de957611de861177a565b5b6000611df7858286016117a5565b925050602083013567ffffffffffffffff811115611e1857611e1761177f565b5b611e2485828601611da4565b9150509250929050565b600081519050919050565b600082825260208201905092915050565b6000819050602082019050919050565b611e638161184c565b82525050565b611e72816117e7565b82525050565b60c082016000820151611e8e6000850182611910565b506020820151611ea16020850182611e5a565b506040820151611eb46040850182611910565b506060820151611ec76060850182611910565b506080820151611eda6080850182611910565b5060a0820151611eed60a0850182611e69565b50505050565b6000611eff8383611e78565b60c08301905092915050565b6000602082019050919050565b6000611f2382611e2e565b611f2d8185611e39565b9350611f3883611e4a565b8060005b83811015611f69578151611f508882611ef3565b9750611f5b83611f0b565b925050600181019050611f3c565b5085935050505092915050565b60006020820190508181036000830152611f908184611f18565b905092915050565b600081519050919050565b600082825260208201905092915050565b6000819050602082019050919050565b600082825260208201905092915050565b6000611fe082611b18565b611fea8185611fc4565b9350611ffa818560208601611b34565b61200381611b5e565b840191505092915050565b612017816118c3565b82525050565b600082825260208201905092915050565b6000612039826118e4565b612043818561201d565b935061204e83611900565b8060005b8381101561207f578151612066888261191f565b975061207183611937565b925050600181019050612052565b5085935050505092915050565b600060e0830160008301516120a46000860182611910565b5060208301516120b76020860182611e5a565b5060408301516120ca6040860182611910565b50606083015184820360608601526120e28282611fd5565b91505060808301516120f7608086018261200e565b5060a083015161210a60a0860182611e69565b5060c083015184820360c0860152612122828261202e565b9150508091505092915050565b600061213b838361208c565b905092915050565b6000602082019050919050565b600061215b82611f98565b6121658185611fa3565b93508360208202850161217785611fb4565b8060005b858110156121b35784840389528151612194858261212f565b945061219f83612143565b925060208a0199505060018101905061217b565b50829750879550505050505092915050565b600060208201905081810360008301526121df8184612150565b905092915050565b7f4e487b7100000000000000000000000000000000000000000000000000000000600052603260045260246000fd5b7f4e487b7100000000000000000000000000000000000000000000000000000000600052601160045260246000fd5b600061225082611784565b91507fffffffffffffffffffffffffffffffffffffffffffffffffffffffffffffffff820361228257612281612216565b5b600182019050919050565b7f506f6c69637920646f6573206e6f742065786973740000000000000000000000600082015250565b60006122c3601583611b23565b91506122ce8261228d565b602082019050919050565b600060208201905081810360008301526122f2816122b6565b9050919050565b600061230482611784565b915061230f83611784565b925082820190508082111561232757612326612216565b5b92915050565b7f4e487b7100000000000000000000000000000000000000000000000000000000600052601260045260246000fd5b600061236782611784565b915061237283611784565b9250826123825761238161232d565b5b828204905092915050565b7f416d6f756e74206d75737420626520657175616c20746f20746865206d6f6e7460008201527f686c79207061796d656e74000000000000000000000000000000000000000000602082015250565b60006123e9602b83611b23565b91506123f48261238d565b604082019050919050565b60006020820190508181036000830152612418816123dc565b9050919050565b7f596f7572206d6f6e74686c79207061796d656e74206973206e6f74206475652060008201527f7965740000000000000000000000000000000000000000000000000000000000602082015250565b600061247b602383611b23565b91506124868261241f565b604082019050919050565b600060208201905081810360008301526124aa8161246e565b9050919050565b7f796f752068617665207061696420616c6c2074686520796561726c792070726560008201527f6d696d756d20706c616e00000000000000000000000000000000000000000000602082015250565b600061250d602a83611b23565b9150612518826124b1565b604082019050919050565b6000602082019050818103600083015261253c81612500565b9050919050565b6000608082019050612558600083018761181d565b612565602083018661181d565b612572604083018561181d565b61257f60608301846117f3565b95945050505050565b600060208201905061259d60008301846118d5565b92915050565b7f5072656d69756d20616d6f756e74206d7573742062652067726561746572207460008201527f68616e207a65726f000000000000000000000000000000000000000000000000602082015250565b60006125ff602883611b23565b915061260a826125a3565b604082019050919050565b6000602082019050818103600083015261262e816125f2565b9050919050565b7f4e487b7100000000000000000000000000000000000000000000000000000000600052602260045260246000fd5b6000600282049050600182168061267c57607f821691505b60208210810361268f5761268e612635565b5b50919050565b60008190508160005260206000209050919050565b60006020601f8301049050919050565b600082821b905092915050565b6000600883026126f77fffffffffffffffffffffffffffffffffffffffffffffffffffffffffffffffff826126ba565b61270186836126ba565b95508019841693508086168417925050509392505050565b6000819050919050565b600061273e61273961273484611784565b612719565b611784565b9050919050565b6000819050919050565b61275883612723565b61276c61276482612745565b8484546126c7565b825550505050565b600090565b612781612774565b61278c81848461274f565b505050565b5b818110156127b0576127a5600082612779565b600181019050612792565b5050565b601f8211156127f5576127c681612695565b6127cf846126aa565b810160208510156127de578190505b6127f26127ea856126aa565b830182612791565b50505b505050565b600082821c905092915050565b6000612818600019846008026127fa565b1980831691505092915050565b60006128318383612807565b9150826002028217905092915050565b61284a82611b18565b67ffffffffffffffff81111561286357612862611ca7565b5b61286d8254612664565b6128788282856127b4565b600060209050601f8311600181146128ab5760008415612899578287015190505b6128a38582612825565b86555061290b565b601f1984166128b986612695565b60005b828110156128e1578489015182556001820191506020850194506020810190506128bc565b868310156128fe57848901516128fa601f891682612807565b8355505b6001600288020188555050505b505050505050565b6000602082019050612928600083018461181d565b92915050565b7f4f776e61626c653a206e6577206f776e657220697320746865207a65726f206160008201527f6464726573730000000000000000000000000000000000000000000000000000602082015250565b600061298a602683611b23565b91506129958261292e565b604082019050919050565b600060208201905081810360008301526129b98161297d565b9050919050565b7f4f776e61626c653a2063616c6c6572206973206e6f7420746865206f776e6572600082015250565b60006129f6602083611b23565b9150612a01826129c0565b602082019050919050565b60006020820190508181036000830152612a25816129e9565b905091905056fea264697066735822122023996097644ce55f87b40b6a5c1b4d170f35b13f1081a43edcb45d9c082add7c64736f6c63430008120033",
  "linkReferences": {},
  "deployedLinkReferences": {}
}