{
  "_format": "hh-sol-artifact-1",
  "contractName": "InsurancePolicyContract",
  "sourceName": "contracts/InsurancePolicyContract.sol",
  "abi": [
    {
      "inputs": [],
      "stateMutability": "nonpayable",
      "type": "constructor"
    },
    {
      "anonymous": false,
      "inputs": [
        {
          "indexed": true,
          "internalType": "uint256",
          "name": "policyId",
          "type": "uint256"
        },
        {
          "indexed": true,
          "internalType": "uint256",
          "name": "claimId",
          "type": "uint256"
        }
      ],
      "name": "ClaimAssociated",
      "type": "event"
    },
    {
      "anonymous": false,
      "inputs": [
        {
          "indexed": true,
          "internalType": "address",
          "name": "previousOwner",
          "type": "address"
        },
        {
          "indexed": true,
          "internalType": "address",
          "name": "newOwner",
          "type": "address"
        }
      ],
      "name": "OwnershipTransferred",
      "type": "event"
    },
    {
      "anonymous": false,
      "inputs": [
        {
          "indexed": true,
          "internalType": "uint256",
          "name": "policyId",
          "type": "uint256"
        },
        {
          "indexed": true,
          "internalType": "address",
          "name": "usersVechice",
          "type": "address"
        },
        {
          "indexed": false,
          "internalType": "uint256",
          "name": "moneyBalance",
          "type": "uint256"
        },
        {
          "indexed": false,
          "internalType": "uint256",
          "name": "timestamp",
          "type": "uint256"
        },
        {
          "indexed": false,
          "internalType": "uint256",
          "name": "endTime",
          "type": "uint256"
        },
        {
          "indexed": false,
          "internalType": "bool",
          "name": "monthlyPaid",
          "type": "bool"
        }
      ],
      "name": "PaymenMade",
      "type": "event"
    },
    {
      "anonymous": false,
      "inputs": [
        {
          "indexed": true,
          "internalType": "uint256",
          "name": "policyId",
          "type": "uint256"
        },
        {
          "indexed": true,
          "internalType": "address",
          "name": "owner",
          "type": "address"
        },
        {
          "indexed": false,
          "internalType": "uint256",
          "name": "premiumAmount",
          "type": "uint256"
        }
      ],
      "name": "PolicyCreated",
      "type": "event"
    },
    {
      "anonymous": false,
      "inputs": [
        {
          "indexed": true,
          "internalType": "uint256",
          "name": "policyId",
          "type": "uint256"
        },
        {
          "indexed": false,
          "internalType": "enum InsurancePolicyContract.PolicyStatus",
          "name": "status",
          "type": "uint8"
        }
      ],
      "name": "PolicyStatusUpdated",
      "type": "event"
    },
    {
      "inputs": [
        {
          "internalType": "uint256",
          "name": "_policyId",
          "type": "uint256"
        },
        {
          "internalType": "uint256",
          "name": "_claimId",
          "type": "uint256"
        }
      ],
      "name": "associateClaim",
      "outputs": [],
      "stateMutability": "nonpayable",
      "type": "function"
    },
    {
      "inputs": [
        {
          "internalType": "uint256",
          "name": "currentTimestamp",
          "type": "uint256"
        }
      ],
      "name": "checkPaymentPeriod",
      "outputs": [
        {
          "internalType": "bool",
          "name": "",
          "type": "bool"
        }
      ],
      "stateMutability": "view",
      "type": "function"
    },
    {
      "inputs": [
        {
          "internalType": "uint256",
          "name": "_premiumAmount",
          "type": "uint256"
        },
        {
          "internalType": "string",
          "name": "_dataUrl",
          "type": "string"
        }
      ],
      "name": "createPolicy",
      "outputs": [],
      "stateMutability": "nonpayable",
      "type": "function"
    },
    {
      "inputs": [
        {
          "internalType": "address",
          "name": "_owner",
          "type": "address"
        }
      ],
      "name": "getInsurancePoliciesByOwner",
      "outputs": [
        {
          "internalType": "uint256[]",
          "name": "",
          "type": "uint256[]"
        }
      ],
      "stateMutability": "view",
      "type": "function"
    },
    {
      "inputs": [
        {
          "internalType": "uint256",
          "name": "_policyId",
          "type": "uint256"
        }
      ],
      "name": "getPolicy",
      "outputs": [
        {
          "internalType": "uint256",
          "name": "policyId",
          "type": "uint256"
        },
        {
          "internalType": "address",
          "name": "owner",
          "type": "address"
        },
        {
          "internalType": "uint256",
          "name": "premiumAmount",
          "type": "uint256"
        },
        {
          "internalType": "enum InsurancePolicyContract.PolicyStatus",
          "name": "status",
          "type": "uint8"
        },
        {
          "internalType": "uint256[]",
          "name": "claimIds",
          "type": "uint256[]"
        }
      ],
      "stateMutability": "view",
      "type": "function"
    },
    {
      "inputs": [],
      "name": "listAllUserPayments",
      "outputs": [
        {
          "components": [
            {
              "internalType": "uint256",
              "name": "policyId",
              "type": "uint256"
            },
            {
              "internalType": "address",
              "name": "usersVechice",
              "type": "address"
            },
            {
              "internalType": "uint256",
              "name": "moneyBalance",
              "type": "uint256"
            },
            {
              "internalType": "uint256",
              "name": "timestamp",
              "type": "uint256"
            },
            {
              "internalType": "uint256",
              "name": "endtime",
              "type": "uint256"
            },
            {
              "internalType": "bool",
              "name": "monthlyPaid",
              "type": "bool"
            }
          ],
          "internalType": "struct InsurancePolicyContract.UserPayment[]",
          "name": "",
          "type": "tuple[]"
        }
      ],
      "stateMutability": "view",
      "type": "function"
    },
    {
      "inputs": [],
      "name": "listInsurancePolicies",
      "outputs": [
        {
          "components": [
            {
              "internalType": "uint256",
              "name": "policyId",
              "type": "uint256"
            },
            {
              "internalType": "address",
              "name": "owner",
              "type": "address"
            },
            {
              "internalType": "uint256",
              "name": "premiumAmount",
              "type": "uint256"
            },
            {
              "internalType": "string",
              "name": "dataUrl",
              "type": "string"
            },
            {
              "internalType": "enum InsurancePolicyContract.PolicyStatus",
              "name": "status",
              "type": "uint8"
            },
            {
              "internalType": "bool",
              "name": "isRegistered",
              "type": "bool"
            },
            {
              "internalType": "uint256[]",
              "name": "claimIds",
              "type": "uint256[]"
            }
          ],
          "internalType": "struct InsurancePolicyContract.PolicyInfo[]",
          "name": "",
          "type": "tuple[]"
        }
      ],
      "stateMutability": "view",
      "type": "function"
    },
    {
      "inputs": [
        {
          "internalType": "uint256",
          "name": "index",
          "type": "uint256"
        },
        {
          "internalType": "address",
          "name": "user",
          "type": "address"
        },
        {
          "internalType": "uint256",
          "name": "_policyId",
          "type": "uint256"
        }
      ],
      "name": "monthlyPayment",
      "outputs": [],
      "stateMutability": "payable",
      "type": "function"
    },
    {
      "inputs": [],
      "name": "owner",
      "outputs": [
        {
          "internalType": "address",
          "name": "",
          "type": "address"
        }
      ],
      "stateMutability": "view",
      "type": "function"
    },
    {
      "inputs": [
        {
          "internalType": "uint256",
          "name": "",
          "type": "uint256"
        }
      ],
      "name": "payments",
      "outputs": [
        {
          "internalType": "uint256",
          "name": "policyId",
          "type": "uint256"
        },
        {
          "internalType": "address",
          "name": "usersVechice",
          "type": "address"
        },
        {
          "internalType": "uint256",
          "name": "moneyBalance",
          "type": "uint256"
        },
        {
          "internalType": "uint256",
          "name": "timestamp",
          "type": "uint256"
        },
        {
          "internalType": "uint256",
          "name": "endtime",
          "type": "uint256"
        },
        {
          "internalType": "bool",
          "name": "monthlyPaid",
          "type": "bool"
        }
      ],
      "stateMutability": "view",
      "type": "function"
    },
    {
      "inputs": [
        {
          "internalType": "uint256",
          "name": "_policyId",
          "type": "uint256"
        }
      ],
      "name": "policyExists",
      "outputs": [
        {
          "internalType": "bool",
          "name": "",
          "type": "bool"
        }
      ],
      "stateMutability": "view",
      "type": "function"
    },
    {
      "inputs": [],
      "name": "renounceOwnership",
      "outputs": [],
      "stateMutability": "nonpayable",
      "type": "function"
    },
    {
      "inputs": [
        {
          "internalType": "address",
          "name": "newOwner",
          "type": "address"
        }
      ],
      "name": "transferOwnership",
      "outputs": [],
      "stateMutability": "nonpayable",
      "type": "function"
    },
    {
      "inputs": [
        {
          "internalType": "uint256",
          "name": "index",
          "type": "uint256"
        }
      ],
      "name": "updateNextTime",
      "outputs": [
        {
          "internalType": "string",
          "name": "",
          "type": "string"
        }
      ],
      "stateMutability": "nonpayable",
      "type": "function"
    },
    {
      "inputs": [
        {
          "internalType": "uint256",
          "name": "_policyId",
          "type": "uint256"
        },
        {
          "internalType": "enum InsurancePolicyContract.PolicyStatus",
          "name": "_status",
          "type": "uint8"
        }
      ],
      "name": "updatePolicyStatus",
      "outputs": [],
      "stateMutability": "nonpayable",
      "type": "function"
    }
  ],
  "bytecode": "0x608060405260016005553480156200001657600080fd5b50620000376200002b6200004e60201b60201c565b6200005660201b60201c565b62000048336200011a60201b60201c565b62000385565b600033905090565b60008060009054906101000a900473ffffffffffffffffffffffffffffffffffffffff169050816000806101000a81548173ffffffffffffffffffffffffffffffffffffffff021916908373ffffffffffffffffffffffffffffffffffffffff1602179055508173ffffffffffffffffffffffffffffffffffffffff168173ffffffffffffffffffffffffffffffffffffffff167f8be0079c531659141344cd1fd0a4f28419497f9722a3daafe3b4186f6b6457e060405160405180910390a35050565b6200012a620001b060201b60201c565b600073ffffffffffffffffffffffffffffffffffffffff168173ffffffffffffffffffffffffffffffffffffffff16036200019c576040517f08c379a00000000000000000000000000000000000000000000000000000000081526004016200019390620002f1565b60405180910390fd5b620001ad816200005660201b60201c565b50565b620001c06200004e60201b60201c565b73ffffffffffffffffffffffffffffffffffffffff16620001e66200024160201b60201c565b73ffffffffffffffffffffffffffffffffffffffff16146200023f576040517f08c379a0000000000000000000000000000000000000000000000000000000008152600401620002369062000363565b60405180910390fd5b565b60008060009054906101000a900473ffffffffffffffffffffffffffffffffffffffff16905090565b600082825260208201905092915050565b7f4f776e61626c653a206e6577206f776e657220697320746865207a65726f206160008201527f6464726573730000000000000000000000000000000000000000000000000000602082015250565b6000620002d96026836200026a565b9150620002e6826200027b565b604082019050919050565b600060208201905081810360008301526200030c81620002ca565b9050919050565b7f4f776e61626c653a2063616c6c6572206973206e6f7420746865206f776e6572600082015250565b60006200034b6020836200026a565b9150620003588262000313565b602082019050919050565b600060208201905081810360008301526200037e816200033c565b9050919050565b612cdd80620003956000396000f3fe6080604052600436106100e85760003560e01c80638d08ed331161008a578063d367a15711610059578063d367a15714610314578063dc0e04221461033d578063e005cb3a14610368578063f2fde38b14610393576100e8565b80638d08ed33146102675780638da5cb5b146102a4578063a0b6ee35146102cf578063b963a5d1146102eb576100e8565b80636a3f198c116100c65780636a3f198c146101a8578063715018a6146101e5578063837f5746146101fc57806387d8178914610225576100e8565b80630fe92cae146100ed5780632b07fce31461012a5780636956e6421461016b575b600080fd5b3480156100f957600080fd5b50610114600480360381019061010f9190611a05565b6103bc565b6040516101219190611a4d565b60405180910390f35b34801561013657600080fd5b50610151600480360381019061014c9190611a05565b6103e9565b604051610162959493929190611bed565b60405180910390f35b34801561017757600080fd5b50610192600480360381019061018d9190611c73565b6104b3565b60405161019f9190611ca0565b60405180910390f35b3480156101b457600080fd5b506101cf60048036038101906101ca9190611a05565b6105e1565b6040516101dc9190611a4d565b60405180910390f35b3480156101f157600080fd5b506101fa6106ac565b005b34801561020857600080fd5b50610223600480360381019061021e9190611cc2565b6106c0565b005b34801561023157600080fd5b5061024c60048036038101906102479190611a05565b6107c8565b60405161025e96959493929190611d02565b60405180910390f35b34801561027357600080fd5b5061028e60048036038101906102899190611a05565b610831565b60405161029b9190611df3565b60405180910390f35b3480156102b057600080fd5b506102b96109c2565b6040516102c69190611e15565b60405180910390f35b6102e960048036038101906102e49190611e30565b6109eb565b005b3480156102f757600080fd5b50610312600480360381019061030d9190611ea8565b610e47565b005b34801561032057600080fd5b5061033b6004803603810190610336919061201d565b610f62565b005b34801561034957600080fd5b506103526111b5565b60405161035f91906121c1565b60405180910390f35b34801561037457600080fd5b5061037d611345565b60405161038a9190612410565b60405180910390f35b34801561039f57600080fd5b506103ba60048036038101906103b59190611c73565b6115e6565b005b60006004600083815260200190815260200160002060040160019054906101000a900460ff169050919050565b6000806000806060600060046000888152602001908152602001600020905080600001548160010160009054906101000a900473ffffffffffffffffffffffffffffffffffffffff1682600201548360040160009054906101000a900460ff16846005018080548060200260200160405190810160405280929190818152602001828054801561049857602002820191906000526020600020905b815481526020019060010190808311610484575b50505050509050955095509550955095505091939590929450565b6060600060055467ffffffffffffffff8111156104d3576104d2611ef2565b5b6040519080825280602002602001820160405280156105015781602001602082028036833780820191505090505b5090506000805b6005548110156105d3578473ffffffffffffffffffffffffffffffffffffffff166004600083815260200190815260200160002060010160009054906101000a900473ffffffffffffffffffffffffffffffffffffffff1673ffffffffffffffffffffffffffffffffffffffff16036105c05760046000828152602001908152602001600020600001548383815181106105a5576105a4612432565b5b60200260200101818152505081806105bc90612490565b9250505b80806105cb90612490565b915050610508565b508082528192505050919050565b6000806105ee6002611669565b905060005b818110156106a0573373ffffffffffffffffffffffffffffffffffffffff166003600083815260200190815260200160002060010160009054906101000a900473ffffffffffffffffffffffffffffffffffffffff1673ffffffffffffffffffffffffffffffffffffffff160361068d578360036000838152602001908152602001600020600401540361068c576001925050506106a7565b5b808061069890612490565b9150506105f3565b5060009150505b919050565b6106b4611677565b6106be60006116f5565b565b6000600460008481526020019081526020016000209050600073ffffffffffffffffffffffffffffffffffffffff168160010160009054906101000a900473ffffffffffffffffffffffffffffffffffffffff1673ffffffffffffffffffffffffffffffffffffffff160361076a576040517f08c379a000000000000000000000000000000000000000000000000000000000815260040161076190612524565b60405180910390fd5b8060050182908060018154018082558091505060019003906000526020600020016000909190919091505581837f6209d5e57427b535a493ae090f045c5a41900a11fa9105e1a4753629e410d33260405160405180910390a3505050565b60036020528060005260406000206000915090508060000154908060010160009054906101000a900473ffffffffffffffffffffffffffffffffffffffff16908060020154908060030154908060040154908060050160009054906101000a900460ff16905086565b606060006003600084815260200190815260200160002060040154905061088d6040518060400160405280600181526020017f7600000000000000000000000000000000000000000000000000000000000000815250826117b9565b60036000848152602001908152602001600020600401544211156109285762278d0060036000858152602001908152602001600020600401546108d09190612544565b60036000858152602001908152602001600020600401819055506040518060400160405280601781526020017f706179207468657365206d6f6e7468207061796d656e740000000000000000008152509150506109bd565b6000600360008581526020019081526020016000206004015490506109826040518060400160405280600281526020017f6476000000000000000000000000000000000000000000000000000000000000815250826117b9565b6040518060400160405280601b81526020017f596f7572207061796d656e74206973206e6f7420647565207965740000000000815250925050505b919050565b60008060009054906101000a900473ffffffffffffffffffffffffffffffffffffffff16905090565b6000600a6004600084815260200190815260200160002060020154610a1091906125a7565b9050803414610a54576040517f08c379a0000000000000000000000000000000000000000000000000000000008152600401610a4b9061264a565b60405180910390fd5b6000600360008681526020019081526020016000206004015414610acb5760036000858152602001908152602001600020600401544211610aca576040517f08c379a0000000000000000000000000000000000000000000000000000000008152600401610ac1906126dc565b60405180910390fd5b5b610ad56002611855565b6000610ae16002611669565b9050610b226040518060400160405280600581526020017f7061727479000000000000000000000000000000000000000000000000000000815250836117b9565b610b776040518060400160405280600581526020017f666972737400000000000000000000000000000000000000000000000000000081525060036000888152602001908152602001600020600201546117b9565b81600360008781526020019081526020016000206002016000828254610b9d9190612544565b92505081905550600060036000878152602001908152602001600020600201549050610c146040518060400160405280600681526020017f7365636f6e64000000000000000000000000000000000000000000000000000081525060036000898152602001908152602001600020600201546117b9565b6004600085815260200190815260200160002060020154811115610c6d576040517f08c379a0000000000000000000000000000000000000000000000000000000008152600401610c649061276e565b60405180910390fd5b600062278d0042610c7e9190612544565b90506040518060c001604052808681526020018773ffffffffffffffffffffffffffffffffffffffff16815260200183815260200142815260200182815260200160011515815250600360008581526020019081526020016000206000820151816000015560208201518160010160006101000a81548173ffffffffffffffffffffffffffffffffffffffff021916908373ffffffffffffffffffffffffffffffffffffffff16021790555060408201518160020155606082015181600301556080820151816004015560a08201518160050160006101000a81548160ff0219169083151502179055509050508573ffffffffffffffffffffffffffffffffffffffff16857fd026c912319d13d6cf216606fd546d9ec9262e9ba778b62021b7ea9f26f9b60c8642856001604051610db9949392919061278e565b60405180910390a36004600086815260200190815260200160002060010160009054906101000a900473ffffffffffffffffffffffffffffffffffffffff1673ffffffffffffffffffffffffffffffffffffffff166108fc349081150290604051600060405180830381858888f19350505050158015610e3d573d6000803e3d6000fd5b5050505050505050565b610e4f611677565b6000600460008481526020019081526020016000209050600073ffffffffffffffffffffffffffffffffffffffff168160010160009054906101000a900473ffffffffffffffffffffffffffffffffffffffff1673ffffffffffffffffffffffffffffffffffffffff1603610ef9576040517f08c379a0000000000000000000000000000000000000000000000000000000008152600401610ef090612524565b60405180910390fd5b818160040160006101000a81548160ff02191690836001811115610f2057610f1f611ab8565b5b0217905550827fddba6ca814ce3f0cb8c9b4b44e5e1891ef8c2857746e6b7453464abc1539209b83604051610f5591906127d3565b60405180910390a2505050565b610f6a611677565b610f746001611855565b60008211610fb7576040517f08c379a0000000000000000000000000000000000000000000000000000000008152600401610fae90612860565b60405180910390fd5b6000610fc36001611669565b90506040518060e001604052808281526020013373ffffffffffffffffffffffffffffffffffffffff1681526020018481526020018381526020016000600181111561101257611011611ab8565b5b8152602001600115158152602001600067ffffffffffffffff81111561103b5761103a611ef2565b5b6040519080825280602002602001820160405280156110695781602001602082028036833780820191505090505b50815250600460008381526020019081526020016000206000820151816000015560208201518160010160006101000a81548173ffffffffffffffffffffffffffffffffffffffff021916908373ffffffffffffffffffffffffffffffffffffffff1602179055506040820151816002015560608201518160030190816110f09190612a8c565b5060808201518160040160006101000a81548160ff0219169083600181111561111c5761111b611ab8565b5b021790555060a08201518160040160016101000a81548160ff02191690831515021790555060c082015181600501908051906020019061115d92919061189c565b509050503373ffffffffffffffffffffffffffffffffffffffff16817f601882301d3e3fce7fe3a99d4bb17ef5b6699b417bdd29f2bfb82e19fcbcb660856040516111a89190612b5e565b60405180910390a3505050565b606060006111c36001611669565b905060008167ffffffffffffffff8111156111e1576111e0611ef2565b5b60405190808252806020026020018201604052801561121a57816020015b6112076118e9565b8152602001906001900390816111ff5790505b50905060008080600090505b8481101561133a5760018161123b9190612544565b91506000600360008481526020019081526020016000209050806040518060c0016040529081600082015481526020016001820160009054906101000a900473ffffffffffffffffffffffffffffffffffffffff1673ffffffffffffffffffffffffffffffffffffffff1673ffffffffffffffffffffffffffffffffffffffff1681526020016002820154815260200160038201548152602001600482015481526020016005820160009054906101000a900460ff16151515158152505085858151811061130c5761130b612432565b5b60200260200101819052506001846113249190612544565b935050808061133290612490565b915050611226565b508294505050505090565b606060006113536001611669565b905060008167ffffffffffffffff81111561137157611370611ef2565b5b6040519080825280602002602001820160405280156113aa57816020015b611397611937565b81526020019060019003908161138f5790505b50905060008080600090505b848110156115db576001816113cb9190612544565b91506000600460008481526020019081526020016000209050806040518060e0016040529081600082015481526020016001820160009054906101000a900473ffffffffffffffffffffffffffffffffffffffff1673ffffffffffffffffffffffffffffffffffffffff1673ffffffffffffffffffffffffffffffffffffffff1681526020016002820154815260200160038201805461146a906128af565b80601f0160208091040260200160405190810160405280929190818152602001828054611496906128af565b80156114e35780601f106114b8576101008083540402835291602001916114e3565b820191906000526020600020905b8154815290600101906020018083116114c657829003601f168201915b505050505081526020016004820160009054906101000a900460ff16600181111561151157611510611ab8565b5b600181111561152357611522611ab8565b5b81526020016004820160019054906101000a900460ff161515151581526020016005820180548060200260200160405190810160405280929190818152602001828054801561159157602002820191906000526020600020905b81548152602001906001019080831161157d575b5050505050815250508585815181106115ad576115ac612432565b5b60200260200101819052506001846115c59190612544565b93505080806115d390612490565b9150506113b6565b508294505050505090565b6115ee611677565b600073ffffffffffffffffffffffffffffffffffffffff168173ffffffffffffffffffffffffffffffffffffffff160361165d576040517f08c379a000000000000000000000000000000000000000000000000000000000815260040161165490612beb565b60405180910390fd5b611666816116f5565b50565b600081600001549050919050565b61167f61186b565b73ffffffffffffffffffffffffffffffffffffffff1661169d6109c2565b73ffffffffffffffffffffffffffffffffffffffff16146116f3576040517f08c379a00000000000000000000000000000000000000000000000000000000081526004016116ea90612c57565b60405180910390fd5b565b60008060009054906101000a900473ffffffffffffffffffffffffffffffffffffffff169050816000806101000a81548173ffffffffffffffffffffffffffffffffffffffff021916908373ffffffffffffffffffffffffffffffffffffffff1602179055508173ffffffffffffffffffffffffffffffffffffffff168173ffffffffffffffffffffffffffffffffffffffff167f8be0079c531659141344cd1fd0a4f28419497f9722a3daafe3b4186f6b6457e060405160405180910390a35050565b61185182826040516024016117cf929190612c77565b6040516020818303038152906040527fb60e72cc000000000000000000000000000000000000000000000000000000007bffffffffffffffffffffffffffffffffffffffffffffffffffffffff19166020820180517bffffffffffffffffffffffffffffffffffffffffffffffffffffffff8381831617835250505050611873565b5050565b6001816000016000828254019250508190555050565b600033905090565b60008151905060006a636f6e736f6c652e6c6f679050602083016000808483855afa5050505050565b8280548282559060005260206000209081019282156118d8579160200282015b828111156118d75782518255916020019190600101906118bc565b5b5090506118e5919061199e565b5090565b6040518060c0016040528060008152602001600073ffffffffffffffffffffffffffffffffffffffff1681526020016000815260200160008152602001600081526020016000151581525090565b6040518060e0016040528060008152602001600073ffffffffffffffffffffffffffffffffffffffff16815260200160008152602001606081526020016000600181111561198857611987611ab8565b5b8152602001600015158152602001606081525090565b5b808211156119b757600081600090555060010161199f565b5090565b6000604051905090565b600080fd5b600080fd5b6000819050919050565b6119e2816119cf565b81146119ed57600080fd5b50565b6000813590506119ff816119d9565b92915050565b600060208284031215611a1b57611a1a6119c5565b5b6000611a29848285016119f0565b91505092915050565b60008115159050919050565b611a4781611a32565b82525050565b6000602082019050611a626000830184611a3e565b92915050565b611a71816119cf565b82525050565b600073ffffffffffffffffffffffffffffffffffffffff82169050919050565b6000611aa282611a77565b9050919050565b611ab281611a97565b82525050565b7f4e487b7100000000000000000000000000000000000000000000000000000000600052602160045260246000fd5b60028110611af857611af7611ab8565b5b50565b6000819050611b0982611ae7565b919050565b6000611b1982611afb565b9050919050565b611b2981611b0e565b82525050565b600081519050919050565b600082825260208201905092915050565b6000819050602082019050919050565b611b64816119cf565b82525050565b6000611b768383611b5b565b60208301905092915050565b6000602082019050919050565b6000611b9a82611b2f565b611ba48185611b3a565b9350611baf83611b4b565b8060005b83811015611be0578151611bc78882611b6a565b9750611bd283611b82565b925050600181019050611bb3565b5085935050505092915050565b600060a082019050611c026000830188611a68565b611c0f6020830187611aa9565b611c1c6040830186611a68565b611c296060830185611b20565b8181036080830152611c3b8184611b8f565b90509695505050505050565b611c5081611a97565b8114611c5b57600080fd5b50565b600081359050611c6d81611c47565b92915050565b600060208284031215611c8957611c886119c5565b5b6000611c9784828501611c5e565b91505092915050565b60006020820190508181036000830152611cba8184611b8f565b905092915050565b60008060408385031215611cd957611cd86119c5565b5b6000611ce7858286016119f0565b9250506020611cf8858286016119f0565b9150509250929050565b600060c082019050611d176000830189611a68565b611d246020830188611aa9565b611d316040830187611a68565b611d3e6060830186611a68565b611d4b6080830185611a68565b611d5860a0830184611a3e565b979650505050505050565b600081519050919050565b600082825260208201905092915050565b60005b83811015611d9d578082015181840152602081019050611d82565b60008484015250505050565b6000601f19601f8301169050919050565b6000611dc582611d63565b611dcf8185611d6e565b9350611ddf818560208601611d7f565b611de881611da9565b840191505092915050565b60006020820190508181036000830152611e0d8184611dba565b905092915050565b6000602082019050611e2a6000830184611aa9565b92915050565b600080600060608486031215611e4957611e486119c5565b5b6000611e57868287016119f0565b9350506020611e6886828701611c5e565b9250506040611e79868287016119f0565b9150509250925092565b60028110611e9057600080fd5b50565b600081359050611ea281611e83565b92915050565b60008060408385031215611ebf57611ebe6119c5565b5b6000611ecd858286016119f0565b9250506020611ede85828601611e93565b9150509250929050565b600080fd5b600080fd5b7f4e487b7100000000000000000000000000000000000000000000000000000000600052604160045260246000fd5b611f2a82611da9565b810181811067ffffffffffffffff82111715611f4957611f48611ef2565b5b80604052505050565b6000611f5c6119bb565b9050611f688282611f21565b919050565b600067ffffffffffffffff821115611f8857611f87611ef2565b5b611f9182611da9565b9050602081019050919050565b82818337600083830152505050565b6000611fc0611fbb84611f6d565b611f52565b905082815260208101848484011115611fdc57611fdb611eed565b5b611fe7848285611f9e565b509392505050565b600082601f83011261200457612003611ee8565b5b8135612014848260208601611fad565b91505092915050565b60008060408385031215612034576120336119c5565b5b6000612042858286016119f0565b925050602083013567ffffffffffffffff811115612063576120626119ca565b5b61206f85828601611fef565b9150509250929050565b600081519050919050565b600082825260208201905092915050565b6000819050602082019050919050565b6120ae81611a97565b82525050565b6120bd81611a32565b82525050565b60c0820160008201516120d96000850182611b5b565b5060208201516120ec60208501826120a5565b5060408201516120ff6040850182611b5b565b5060608201516121126060850182611b5b565b5060808201516121256080850182611b5b565b5060a082015161213860a08501826120b4565b50505050565b600061214a83836120c3565b60c08301905092915050565b6000602082019050919050565b600061216e82612079565b6121788185612084565b935061218383612095565b8060005b838110156121b457815161219b888261213e565b97506121a683612156565b925050600181019050612187565b5085935050505092915050565b600060208201905081810360008301526121db8184612163565b905092915050565b600081519050919050565b600082825260208201905092915050565b6000819050602082019050919050565b600082825260208201905092915050565b600061222b82611d63565b612235818561220f565b9350612245818560208601611d7f565b61224e81611da9565b840191505092915050565b61226281611b0e565b82525050565b600082825260208201905092915050565b600061228482611b2f565b61228e8185612268565b935061229983611b4b565b8060005b838110156122ca5781516122b18882611b6a565b97506122bc83611b82565b92505060018101905061229d565b5085935050505092915050565b600060e0830160008301516122ef6000860182611b5b565b50602083015161230260208601826120a5565b5060408301516123156040860182611b5b565b506060830151848203606086015261232d8282612220565b91505060808301516123426080860182612259565b5060a083015161235560a08601826120b4565b5060c083015184820360c086015261236d8282612279565b9150508091505092915050565b600061238683836122d7565b905092915050565b6000602082019050919050565b60006123a6826121e3565b6123b081856121ee565b9350836020820285016123c2856121ff565b8060005b858110156123fe57848403895281516123df858261237a565b94506123ea8361238e565b925060208a019950506001810190506123c6565b50829750879550505050505092915050565b6000602082019050818103600083015261242a818461239b565b905092915050565b7f4e487b7100000000000000000000000000000000000000000000000000000000600052603260045260246000fd5b7f4e487b7100000000000000000000000000000000000000000000000000000000600052601160045260246000fd5b600061249b826119cf565b91507fffffffffffffffffffffffffffffffffffffffffffffffffffffffffffffffff82036124cd576124cc612461565b5b600182019050919050565b7f506f6c69637920646f6573206e6f742065786973740000000000000000000000600082015250565b600061250e601583611d6e565b9150612519826124d8565b602082019050919050565b6000602082019050818103600083015261253d81612501565b9050919050565b600061254f826119cf565b915061255a836119cf565b925082820190508082111561257257612571612461565b5b92915050565b7f4e487b7100000000000000000000000000000000000000000000000000000000600052601260045260246000fd5b60006125b2826119cf565b91506125bd836119cf565b9250826125cd576125cc612578565b5b828204905092915050565b7f416d6f756e74206d75737420626520657175616c20746f20746865206d6f6e7460008201527f686c79207061796d656e74000000000000000000000000000000000000000000602082015250565b6000612634602b83611d6e565b915061263f826125d8565b604082019050919050565b6000602082019050818103600083015261266381612627565b9050919050565b7f596f7572206d6f6e74686c79207061796d656e74206973206e6f74206475652060008201527f7965740000000000000000000000000000000000000000000000000000000000602082015250565b60006126c6602383611d6e565b91506126d18261266a565b604082019050919050565b600060208201905081810360008301526126f5816126b9565b9050919050565b7f796f752068617665207061696420616c6c2074686520796561726c792070726560008201527f6d696d756d20706c616e00000000000000000000000000000000000000000000602082015250565b6000612758602a83611d6e565b9150612763826126fc565b604082019050919050565b600060208201905081810360008301526127878161274b565b9050919050565b60006080820190506127a36000830187611a68565b6127b06020830186611a68565b6127bd6040830185611a68565b6127ca6060830184611a3e565b95945050505050565b60006020820190506127e86000830184611b20565b92915050565b7f5072656d69756d20616d6f756e74206d7573742062652067726561746572207460008201527f68616e207a65726f000000000000000000000000000000000000000000000000602082015250565b600061284a602883611d6e565b9150612855826127ee565b604082019050919050565b600060208201905081810360008301526128798161283d565b9050919050565b7f4e487b7100000000000000000000000000000000000000000000000000000000600052602260045260246000fd5b600060028204905060018216806128c757607f821691505b6020821081036128da576128d9612880565b5b50919050565b60008190508160005260206000209050919050565b60006020601f8301049050919050565b600082821b905092915050565b6000600883026129427fffffffffffffffffffffffffffffffffffffffffffffffffffffffffffffffff82612905565b61294c8683612905565b95508019841693508086168417925050509392505050565b6000819050919050565b600061298961298461297f846119cf565b612964565b6119cf565b9050919050565b6000819050919050565b6129a38361296e565b6129b76129af82612990565b848454612912565b825550505050565b600090565b6129cc6129bf565b6129d781848461299a565b505050565b5b818110156129fb576129f06000826129c4565b6001810190506129dd565b5050565b601f821115612a4057612a11816128e0565b612a1a846128f5565b81016020851015612a29578190505b612a3d612a35856128f5565b8301826129dc565b50505b505050565b600082821c905092915050565b6000612a6360001984600802612a45565b1980831691505092915050565b6000612a7c8383612a52565b9150826002028217905092915050565b612a9582611d63565b67ffffffffffffffff811115612aae57612aad611ef2565b5b612ab882546128af565b612ac38282856129ff565b600060209050601f831160018114612af65760008415612ae4578287015190505b612aee8582612a70565b865550612b56565b601f198416612b04866128e0565b60005b82811015612b2c57848901518255600182019150602085019450602081019050612b07565b86831015612b495784890151612b45601f891682612a52565b8355505b6001600288020188555050505b505050505050565b6000602082019050612b736000830184611a68565b92915050565b7f4f776e61626c653a206e6577206f776e657220697320746865207a65726f206160008201527f6464726573730000000000000000000000000000000000000000000000000000602082015250565b6000612bd5602683611d6e565b9150612be082612b79565b604082019050919050565b60006020820190508181036000830152612c0481612bc8565b9050919050565b7f4f776e61626c653a2063616c6c6572206973206e6f7420746865206f776e6572600082015250565b6000612c41602083611d6e565b9150612c4c82612c0b565b602082019050919050565b60006020820190508181036000830152612c7081612c34565b9050919050565b60006040820190508181036000830152612c918185611dba565b9050612ca06020830184611a68565b939250505056fea2646970667358221220430350c16b90b7d44fa22b5557ad80dfc316a6ba04d8b81fa23a181e1dc20b4264736f6c63430008120033",
  "linkReferences": {},
  "deployedLinkReferences": {}
}