{
  "_format": "hh-sol-artifact-1",
  "contractName": "VehicleContract",
  "sourceName": "contracts/VehicleContract.sol",
  "abi": [
    {
      "inputs": [
        {
          "internalType": "address",
          "name": "_insurancePolicyContractAddress",
          "type": "address"
        }
      ],
      "stateMutability": "nonpayable",
      "type": "constructor"
    },
    {
      "anonymous": false,
      "inputs": [
        {
          "indexed": true,
          "internalType": "address",
          "name": "owner",
          "type": "address"
        },
        {
          "indexed": false,
          "internalType": "string",
          "name": "licensePlate",
          "type": "string"
        },
        {
          "indexed": false,
          "internalType": "string",
          "name": "vehicledata",
          "type": "string"
        }
      ],
      "name": "VehicleCreated",
      "type": "event"
    },
    {
      "inputs": [
        {
          "internalType": "uint256",
          "name": "index",
          "type": "uint256"
        },
        {
          "internalType": "uint256",
          "name": "policyId",
          "type": "uint256"
        }
      ],
      "name": "checkVehicle",
      "outputs": [
        {
          "internalType": "bool",
          "name": "",
          "type": "bool"
        }
      ],
      "stateMutability": "view",
      "type": "function"
    },
    {
      "inputs": [
        {
          "internalType": "string",
          "name": "_licensePlate",
          "type": "string"
        },
        {
          "internalType": "uint256",
          "name": "policyId",
          "type": "uint256"
        },
        {
          "internalType": "string",
          "name": "vehicledata",
          "type": "string"
        }
      ],
      "name": "createVehicle",
      "outputs": [],
      "stateMutability": "nonpayable",
      "type": "function"
    },
    {
      "inputs": [],
      "name": "getAllVehicles",
      "outputs": [
        {
          "components": [
            {
              "internalType": "address",
              "name": "vehicleOwnerAddress",
              "type": "address"
            },
            {
              "internalType": "string",
              "name": "vehicledata",
              "type": "string"
            },
            {
              "internalType": "string",
              "name": "licensePlate",
              "type": "string"
            },
            {
              "internalType": "uint256",
              "name": "policyId",
              "type": "uint256"
            }
          ],
          "internalType": "struct VehicleContract.VehicleInfo[]",
          "name": "",
          "type": "tuple[]"
        }
      ],
      "stateMutability": "view",
      "type": "function"
    },
    {
      "inputs": [],
      "name": "getMyVehicles",
      "outputs": [
        {
          "components": [
            {
              "internalType": "address",
              "name": "vehicleOwnerAddress",
              "type": "address"
            },
            {
              "internalType": "string",
              "name": "vehicledata",
              "type": "string"
            },
            {
              "internalType": "string",
              "name": "licensePlate",
              "type": "string"
            },
            {
              "internalType": "uint256",
              "name": "policyId",
              "type": "uint256"
            }
          ],
          "internalType": "struct VehicleContract.VehicleInfo[]",
          "name": "",
          "type": "tuple[]"
        }
      ],
      "stateMutability": "view",
      "type": "function"
    },
    {
      "inputs": [
        {
          "internalType": "uint256",
          "name": "_policyId",
          "type": "uint256"
        }
      ],
      "name": "getPolicyVehicles",
      "outputs": [
        {
          "components": [
            {
              "internalType": "address",
              "name": "vehicleOwnerAddress",
              "type": "address"
            },
            {
              "internalType": "string",
              "name": "vehicledata",
              "type": "string"
            },
            {
              "internalType": "string",
              "name": "licensePlate",
              "type": "string"
            },
            {
              "internalType": "uint256",
              "name": "policyId",
              "type": "uint256"
            }
          ],
          "internalType": "struct VehicleContract.VehicleInfo[]",
          "name": "",
          "type": "tuple[]"
        }
      ],
      "stateMutability": "view",
      "type": "function"
    },
    {
      "inputs": [
        {
          "internalType": "uint256",
          "name": "index",
          "type": "uint256"
        }
      ],
      "name": "getVehicle",
      "outputs": [
        {
          "internalType": "string",
          "name": "",
          "type": "string"
        }
      ],
      "stateMutability": "view",
      "type": "function"
    },
    {
      "inputs": [
        {
          "internalType": "uint256",
          "name": "index",
          "type": "uint256"
        },
        {
          "internalType": "string",
          "name": "_licensePlate",
          "type": "string"
        }
      ],
      "name": "updateLicensePlate",
      "outputs": [],
      "stateMutability": "nonpayable",
      "type": "function"
    },
    {
      "inputs": [
        {
          "internalType": "uint256",
          "name": "index",
          "type": "uint256"
        }
      ],
      "name": "vehicleExists",
      "outputs": [
        {
          "internalType": "bool",
          "name": "",
          "type": "bool"
        }
      ],
      "stateMutability": "view",
      "type": "function"
    }
  ],
  "bytecode": "0x60806040523480156200001157600080fd5b5060405162001c1d38038062001c1d8339818101604052810190620000379190620000f1565b80600260006101000a81548173ffffffffffffffffffffffffffffffffffffffff021916908373ffffffffffffffffffffffffffffffffffffffff16021790555060016003819055505062000123565b600080fd5b600073ffffffffffffffffffffffffffffffffffffffff82169050919050565b6000620000b9826200008c565b9050919050565b620000cb81620000ac565b8114620000d757600080fd5b50565b600081519050620000eb81620000c0565b92915050565b6000602082840312156200010a576200010962000087565b5b60006200011a84828501620000da565b91505092915050565b611aea80620001336000396000f3fe608060405234801561001057600080fd5b50600436106100885760003560e01c80636ec965b71161005b5780636ec965b714610113578063b19232fc14610143578063cb9d90d314610173578063df7ebb7b1461019157610088565b80630e506ea81461008d5780634aa2ca1e146100a957806352142c87146100c55780635e7215bc146100f5575b600080fd5b6100a760048036038101906100a291906110eb565b6101c1565b005b6100c360048036038101906100be9190611147565b610274565b005b6100df60048036038101906100da91906111d2565b61052e565b6040516100ec919061122d565b60405180910390f35b6100fd610550565b60405161010a9190611443565b60405180910390f35b61012d60048036038101906101289190611465565b6108de565b60405161013a9190611443565b60405180910390f35b61015d60048036038101906101589190611465565b610bd6565b60405161016a919061122d565b60405180910390f35b61017b610c03565b6040516101889190611443565b60405180910390f35b6101ab60048036038101906101a69190611465565b610e76565b6040516101b891906114dc565b60405180910390f35b6000815111610205576040517f08c379a00000000000000000000000000000000000000000000000000000000081526004016101fc9061154a565b60405180910390fd5b61020e82610bd6565b61024d576040517f08c379a0000000000000000000000000000000000000000000000000000000008152600401610244906115b6565b60405180910390fd5b80600080848152602001908152602001600020600201908161026f91906117e2565b505050565b60008351116102b8576040517f08c379a00000000000000000000000000000000000000000000000000000000081526004016102af9061154a565b60405180910390fd5b600260009054906101000a900473ffffffffffffffffffffffffffffffffffffffff1673ffffffffffffffffffffffffffffffffffffffff16630fe92cae836040518263ffffffff1660e01b815260040161031391906118c3565b602060405180830381865afa158015610330573d6000803e3d6000fd5b505050506040513d601f19601f82011682018060405250810190610354919061190a565b610393576040517f08c379a000000000000000000000000000000000000000000000000000000000815260040161038a90611983565b60405180910390fd5b60405180608001604052803373ffffffffffffffffffffffffffffffffffffffff16815260200182815260200184815260200183815250600080600354815260200190815260200160002060008201518160000160006101000a81548173ffffffffffffffffffffffffffffffffffffffff021916908373ffffffffffffffffffffffffffffffffffffffff160217905550602082015181600101908161043a91906117e2565b50604082015181600201908161045091906117e2565b506060820151816003015590505060036000815480929190610471906119d2565b91905055506001339080600181540180825580915050600190039060005260206000200160009091909190916101000a81548173ffffffffffffffffffffffffffffffffffffffff021916908373ffffffffffffffffffffffffffffffffffffffff1602179055503373ffffffffffffffffffffffffffffffffffffffff167faff9b281d8eb03326e395df3b5a56bf096ed220048eb76eeba9d9ef0b8b3eb198483604051610521929190611a1a565b60405180910390a2505050565b6000816000808581526020019081526020016000206003015414905092915050565b606060006003549050600080600080600090505b84811015610603573373ffffffffffffffffffffffffffffffffffffffff166000806001846105939190611a51565b815260200190815260200160002060000160009054906101000a900473ffffffffffffffffffffffffffffffffffffffff1673ffffffffffffffffffffffffffffffffffffffff16036105f0576001846105ed9190611a51565b93505b80806105fb906119d2565b915050610564565b5060008367ffffffffffffffff8111156106205761061f610fc0565b5b60405190808252806020026020018201604052801561065957816020015b610646610f1d565b81526020019060019003908161063e5790505b50905060005b858110156108d2573373ffffffffffffffffffffffffffffffffffffffff1660008060018461068e9190611a51565b815260200190815260200160002060000160009054906101000a900473ffffffffffffffffffffffffffffffffffffffff1673ffffffffffffffffffffffffffffffffffffffff16036108bf576001816106e89190611a51565b925060008060008581526020019081526020016000209050806040518060800160405290816000820160009054906101000a900473ffffffffffffffffffffffffffffffffffffffff1673ffffffffffffffffffffffffffffffffffffffff1673ffffffffffffffffffffffffffffffffffffffff16815260200160018201805461077290611605565b80601f016020809104026020016040519081016040528092919081815260200182805461079e90611605565b80156107eb5780601f106107c0576101008083540402835291602001916107eb565b820191906000526020600020905b8154815290600101906020018083116107ce57829003601f168201915b5050505050815260200160028201805461080490611605565b80601f016020809104026020016040519081016040528092919081815260200182805461083090611605565b801561087d5780601f106108525761010080835404028352916020019161087d565b820191906000526020600020905b81548152906001019060200180831161086057829003601f168201915b505050505081526020016003820154815250508386815181106108a3576108a2611a85565b5b60200260200101819052506001856108bb9190611a51565b9450505b80806108ca906119d2565b91505061065f565b50809550505050505090565b606060006003549050600080600080600090505b84811015610945578660008060018461090b9190611a51565b815260200190815260200160002060030154036109325760018461092f9190611a51565b93505b808061093d906119d2565b9150506108f2565b5060008367ffffffffffffffff81111561096257610961610fc0565b5b60405190808252806020026020018201604052801561099b57816020015b610988610f1d565b8152602001906001900390816109805790505b50905060005b85811015610bc857876000806001846109ba9190611a51565b81526020019081526020016000206003015403610bb5576001816109de9190611a51565b925060008060008581526020019081526020016000209050806040518060800160405290816000820160009054906101000a900473ffffffffffffffffffffffffffffffffffffffff1673ffffffffffffffffffffffffffffffffffffffff1673ffffffffffffffffffffffffffffffffffffffff168152602001600182018054610a6890611605565b80601f0160208091040260200160405190810160405280929190818152602001828054610a9490611605565b8015610ae15780601f10610ab657610100808354040283529160200191610ae1565b820191906000526020600020905b815481529060010190602001808311610ac457829003601f168201915b50505050508152602001600282018054610afa90611605565b80601f0160208091040260200160405190810160405280929190818152602001828054610b2690611605565b8015610b735780601f10610b4857610100808354040283529160200191610b73565b820191906000526020600020905b815481529060010190602001808311610b5657829003601f168201915b50505050508152602001600382015481525050838681518110610b9957610b98611a85565b5b6020026020010181905250600185610bb19190611a51565b9450505b8080610bc0906119d2565b9150506109a1565b508095505050505050919050565b6000806000808481526020019081526020016000206002018054610bf990611605565b9050119050919050565b60606000600354905060008167ffffffffffffffff811115610c2857610c27610fc0565b5b604051908082528060200260200182016040528015610c6157816020015b610c4e610f1d565b815260200190600190039081610c465790505b50905060008080600090505b84811015610e6b57600181610c829190611a51565b915060008060008481526020019081526020016000209050806040518060800160405290816000820160009054906101000a900473ffffffffffffffffffffffffffffffffffffffff1673ffffffffffffffffffffffffffffffffffffffff1673ffffffffffffffffffffffffffffffffffffffff168152602001600182018054610d0c90611605565b80601f0160208091040260200160405190810160405280929190818152602001828054610d3890611605565b8015610d855780601f10610d5a57610100808354040283529160200191610d85565b820191906000526020600020905b815481529060010190602001808311610d6857829003601f168201915b50505050508152602001600282018054610d9e90611605565b80601f0160208091040260200160405190810160405280929190818152602001828054610dca90611605565b8015610e175780601f10610dec57610100808354040283529160200191610e17565b820191906000526020600020905b815481529060010190602001808311610dfa57829003601f168201915b50505050508152602001600382015481525050858581518110610e3d57610e3c611a85565b5b6020026020010181905250600184610e559190611a51565b9350508080610e63906119d2565b915050610c6d565b508294505050505090565b60606000808381526020019081526020016000206002018054610e9890611605565b80601f0160208091040260200160405190810160405280929190818152602001828054610ec490611605565b8015610f115780601f10610ee657610100808354040283529160200191610f11565b820191906000526020600020905b815481529060010190602001808311610ef457829003601f168201915b50505050509050919050565b6040518060800160405280600073ffffffffffffffffffffffffffffffffffffffff1681526020016060815260200160608152602001600081525090565b6000604051905090565b600080fd5b600080fd5b6000819050919050565b610f8281610f6f565b8114610f8d57600080fd5b50565b600081359050610f9f81610f79565b92915050565b600080fd5b600080fd5b6000601f19601f8301169050919050565b7f4e487b7100000000000000000000000000000000000000000000000000000000600052604160045260246000fd5b610ff882610faf565b810181811067ffffffffffffffff8211171561101757611016610fc0565b5b80604052505050565b600061102a610f5b565b90506110368282610fef565b919050565b600067ffffffffffffffff82111561105657611055610fc0565b5b61105f82610faf565b9050602081019050919050565b82818337600083830152505050565b600061108e6110898461103b565b611020565b9050828152602081018484840111156110aa576110a9610faa565b5b6110b584828561106c565b509392505050565b600082601f8301126110d2576110d1610fa5565b5b81356110e284826020860161107b565b91505092915050565b6000806040838503121561110257611101610f65565b5b600061111085828601610f90565b925050602083013567ffffffffffffffff81111561113157611130610f6a565b5b61113d858286016110bd565b9150509250929050565b6000806000606084860312156111605761115f610f65565b5b600084013567ffffffffffffffff81111561117e5761117d610f6a565b5b61118a868287016110bd565b935050602061119b86828701610f90565b925050604084013567ffffffffffffffff8111156111bc576111bb610f6a565b5b6111c8868287016110bd565b9150509250925092565b600080604083850312156111e9576111e8610f65565b5b60006111f785828601610f90565b925050602061120885828601610f90565b9150509250929050565b60008115159050919050565b61122781611212565b82525050565b6000602082019050611242600083018461121e565b92915050565b600081519050919050565b600082825260208201905092915050565b6000819050602082019050919050565b600073ffffffffffffffffffffffffffffffffffffffff82169050919050565b600061129f82611274565b9050919050565b6112af81611294565b82525050565b600081519050919050565b600082825260208201905092915050565b60005b838110156112ef5780820151818401526020810190506112d4565b60008484015250505050565b6000611306826112b5565b61131081856112c0565b93506113208185602086016112d1565b61132981610faf565b840191505092915050565b61133d81610f6f565b82525050565b600060808301600083015161135b60008601826112a6565b506020830151848203602086015261137382826112fb565b9150506040830151848203604086015261138d82826112fb565b91505060608301516113a26060860182611334565b508091505092915050565b60006113b98383611343565b905092915050565b6000602082019050919050565b60006113d982611248565b6113e38185611253565b9350836020820285016113f585611264565b8060005b85811015611431578484038952815161141285826113ad565b945061141d836113c1565b925060208a019950506001810190506113f9565b50829750879550505050505092915050565b6000602082019050818103600083015261145d81846113ce565b905092915050565b60006020828403121561147b5761147a610f65565b5b600061148984828501610f90565b91505092915050565b600082825260208201905092915050565b60006114ae826112b5565b6114b88185611492565b93506114c88185602086016112d1565b6114d181610faf565b840191505092915050565b600060208201905081810360008301526114f681846114a3565b905092915050565b7f4c6963656e736520706c6174652063616e6e6f7420626520656d707479000000600082015250565b6000611534601d83611492565b915061153f826114fe565b602082019050919050565b6000602082019050818103600083015261156381611527565b9050919050565b7f56656869636c6520646f6573206e6f7420657869737400000000000000000000600082015250565b60006115a0601683611492565b91506115ab8261156a565b602082019050919050565b600060208201905081810360008301526115cf81611593565b9050919050565b7f4e487b7100000000000000000000000000000000000000000000000000000000600052602260045260246000fd5b6000600282049050600182168061161d57607f821691505b6020821081036116305761162f6115d6565b5b50919050565b60008190508160005260206000209050919050565b60006020601f8301049050919050565b600082821b905092915050565b6000600883026116987fffffffffffffffffffffffffffffffffffffffffffffffffffffffffffffffff8261165b565b6116a2868361165b565b95508019841693508086168417925050509392505050565b6000819050919050565b60006116df6116da6116d584610f6f565b6116ba565b610f6f565b9050919050565b6000819050919050565b6116f9836116c4565b61170d611705826116e6565b848454611668565b825550505050565b600090565b611722611715565b61172d8184846116f0565b505050565b5b818110156117515761174660008261171a565b600181019050611733565b5050565b601f8211156117965761176781611636565b6117708461164b565b8101602085101561177f578190505b61179361178b8561164b565b830182611732565b50505b505050565b600082821c905092915050565b60006117b96000198460080261179b565b1980831691505092915050565b60006117d283836117a8565b9150826002028217905092915050565b6117eb826112b5565b67ffffffffffffffff81111561180457611803610fc0565b5b61180e8254611605565b611819828285611755565b600060209050601f83116001811461184c576000841561183a578287015190505b61184485826117c6565b8655506118ac565b601f19841661185a86611636565b60005b828110156118825784890151825560018201915060208501945060208101905061185d565b8683101561189f578489015161189b601f8916826117a8565b8355505b6001600288020188555050505b505050505050565b6118bd81610f6f565b82525050565b60006020820190506118d860008301846118b4565b92915050565b6118e781611212565b81146118f257600080fd5b50565b600081519050611904816118de565b92915050565b6000602082840312156119205761191f610f65565b5b600061192e848285016118f5565b91505092915050565b7f506f6c69637920646f65736e2774206578697374000000000000000000000000600082015250565b600061196d601483611492565b915061197882611937565b602082019050919050565b6000602082019050818103600083015261199c81611960565b9050919050565b7f4e487b7100000000000000000000000000000000000000000000000000000000600052601160045260246000fd5b60006119dd82610f6f565b91507fffffffffffffffffffffffffffffffffffffffffffffffffffffffffffffffff8203611a0f57611a0e6119a3565b5b600182019050919050565b60006040820190508181036000830152611a3481856114a3565b90508181036020830152611a4881846114a3565b90509392505050565b6000611a5c82610f6f565b9150611a6783610f6f565b9250828201905080821115611a7f57611a7e6119a3565b5b92915050565b7f4e487b7100000000000000000000000000000000000000000000000000000000600052603260045260246000fdfea2646970667358221220e47d2331c07c6ce330705060bcbd4382252007674d5778f531b9c46aadcafaba64736f6c63430008120033",
  "linkReferences": {},
  "deployedLinkReferences": {}
}