{
  "_format": "hh-sol-artifact-1",
  "contractName": "VehicleContract",
  "sourceName": "contracts/VehicleContract.sol",
  "abi": [
    {
      "inputs": [
        {
          "internalType": "address",
          "name": "_insurancePolicyContractAddress",
          "type": "address"
        }
      ],
      "stateMutability": "nonpayable",
      "type": "constructor"
    },
    {
      "anonymous": false,
      "inputs": [
        {
          "indexed": true,
          "internalType": "address",
          "name": "owner",
          "type": "address"
        },
        {
          "indexed": false,
          "internalType": "string",
          "name": "licensePlate",
          "type": "string"
        },
        {
          "indexed": false,
          "internalType": "string",
          "name": "vehicledata",
          "type": "string"
        }
      ],
      "name": "VehicleCreated",
      "type": "event"
    },
    {
      "inputs": [
        {
          "internalType": "uint256",
          "name": "index",
          "type": "uint256"
        },
        {
          "internalType": "uint256",
          "name": "policyId",
          "type": "uint256"
        }
      ],
      "name": "checkVehicle",
      "outputs": [
        {
          "internalType": "bool",
          "name": "",
          "type": "bool"
        }
      ],
      "stateMutability": "view",
      "type": "function"
    },
    {
      "inputs": [
        {
          "internalType": "string",
          "name": "_licensePlate",
          "type": "string"
        },
        {
          "internalType": "uint256",
          "name": "policyId",
          "type": "uint256"
        },
        {
          "internalType": "string",
          "name": "vehicledata",
          "type": "string"
        }
      ],
      "name": "createVehicle",
      "outputs": [],
      "stateMutability": "nonpayable",
      "type": "function"
    },
    {
      "inputs": [],
      "name": "getAllVehicles",
      "outputs": [
        {
          "components": [
            {
              "internalType": "uint256",
              "name": "vehicleId",
              "type": "uint256"
            },
            {
              "internalType": "address",
              "name": "vehicleOwnerAddress",
              "type": "address"
            },
            {
              "internalType": "string",
              "name": "vehicledata",
              "type": "string"
            },
            {
              "internalType": "string",
              "name": "licensePlate",
              "type": "string"
            },
            {
              "internalType": "uint256",
              "name": "policyId",
              "type": "uint256"
            }
          ],
          "internalType": "struct VehicleContract.VehicleInfo[]",
          "name": "",
          "type": "tuple[]"
        }
      ],
      "stateMutability": "view",
      "type": "function"
    },
    {
      "inputs": [],
      "name": "getMyVehicles",
      "outputs": [
        {
          "components": [
            {
              "internalType": "uint256",
              "name": "vehicleId",
              "type": "uint256"
            },
            {
              "internalType": "address",
              "name": "vehicleOwnerAddress",
              "type": "address"
            },
            {
              "internalType": "string",
              "name": "vehicledata",
              "type": "string"
            },
            {
              "internalType": "string",
              "name": "licensePlate",
              "type": "string"
            },
            {
              "internalType": "uint256",
              "name": "policyId",
              "type": "uint256"
            }
          ],
          "internalType": "struct VehicleContract.VehicleInfo[]",
          "name": "",
          "type": "tuple[]"
        }
      ],
      "stateMutability": "view",
      "type": "function"
    },
    {
      "inputs": [
        {
          "internalType": "uint256",
          "name": "_policyId",
          "type": "uint256"
        }
      ],
      "name": "getPolicyVehicles",
      "outputs": [
        {
          "components": [
            {
              "internalType": "uint256",
              "name": "vehicleId",
              "type": "uint256"
            },
            {
              "internalType": "address",
              "name": "vehicleOwnerAddress",
              "type": "address"
            },
            {
              "internalType": "string",
              "name": "vehicledata",
              "type": "string"
            },
            {
              "internalType": "string",
              "name": "licensePlate",
              "type": "string"
            },
            {
              "internalType": "uint256",
              "name": "policyId",
              "type": "uint256"
            }
          ],
          "internalType": "struct VehicleContract.VehicleInfo[]",
          "name": "",
          "type": "tuple[]"
        }
      ],
      "stateMutability": "view",
      "type": "function"
    },
    {
      "inputs": [
        {
          "internalType": "uint256",
          "name": "index",
          "type": "uint256"
        }
      ],
      "name": "getVehicle",
      "outputs": [
        {
          "internalType": "string",
          "name": "",
          "type": "string"
        }
      ],
      "stateMutability": "view",
      "type": "function"
    },
    {
      "inputs": [
        {
          "internalType": "uint256",
          "name": "index",
          "type": "uint256"
        },
        {
          "internalType": "string",
          "name": "_licensePlate",
          "type": "string"
        }
      ],
      "name": "updateLicensePlate",
      "outputs": [],
      "stateMutability": "nonpayable",
      "type": "function"
    },
    {
      "inputs": [
        {
          "internalType": "uint256",
          "name": "index",
          "type": "uint256"
        }
      ],
      "name": "vehicleExists",
      "outputs": [
        {
          "internalType": "bool",
          "name": "",
          "type": "bool"
        }
      ],
      "stateMutability": "view",
      "type": "function"
    }
  ],
  "bytecode": "0x60806040523480156200001157600080fd5b5060405162001cc138038062001cc18339818101604052810190620000379190620000f1565b80600360006101000a81548173ffffffffffffffffffffffffffffffffffffffff021916908373ffffffffffffffffffffffffffffffffffffffff16021790555060016004819055505062000123565b600080fd5b600073ffffffffffffffffffffffffffffffffffffffff82169050919050565b6000620000b9826200008c565b9050919050565b620000cb81620000ac565b8114620000d757600080fd5b50565b600081519050620000eb81620000c0565b92915050565b6000602082840312156200010a576200010962000087565b5b60006200011a84828501620000da565b91505092915050565b611b8e80620001336000396000f3fe608060405234801561001057600080fd5b50600436106100885760003560e01c80636ec965b71161005b5780636ec965b714610113578063b19232fc14610143578063cb9d90d314610173578063df7ebb7b1461019157610088565b80630e506ea81461008d5780634aa2ca1e146100a957806352142c87146100c55780635e7215bc146100f5575b600080fd5b6100a760048036038101906100a2919061117c565b6101c1565b005b6100c360048036038101906100be91906111d8565b610275565b005b6100df60048036038101906100da9190611263565b610557565b6040516100ec91906112be565b60405180910390f35b6100fd61057a565b60405161010a91906114e7565b60405180910390f35b61012d60048036038101906101289190611509565b61091c565b60405161013a91906114e7565b60405180910390f35b61015d60048036038101906101589190611509565b610c28565b60405161016a91906112be565b60405180910390f35b61017b610c56565b60405161018891906114e7565b60405180910390f35b6101ab60048036038101906101a69190611509565b610edb565b6040516101b89190611580565b60405180910390f35b6000815111610205576040517f08c379a00000000000000000000000000000000000000000000000000000000081526004016101fc906115ee565b60405180910390fd5b61020e82610c28565b61024d576040517f08c379a00000000000000000000000000000000000000000000000000000000081526004016102449061165a565b60405180910390fd5b806001600084815260200190815260200160002060030190816102709190611886565b505050565b60008351116102b9576040517f08c379a00000000000000000000000000000000000000000000000000000000081526004016102b0906115ee565b60405180910390fd5b600360009054906101000a900473ffffffffffffffffffffffffffffffffffffffff1673ffffffffffffffffffffffffffffffffffffffff16630fe92cae836040518263ffffffff1660e01b81526004016103149190611967565b602060405180830381865afa158015610331573d6000803e3d6000fd5b505050506040513d601f19601f8201168201806040525081019061035591906119ae565b610394576040517f08c379a000000000000000000000000000000000000000000000000000000000815260040161038b90611a27565b60405180910390fd5b61039e6000610f83565b60006103aa6000610f99565b90506040518060a001604052808281526020013373ffffffffffffffffffffffffffffffffffffffff16815260200183815260200185815260200184815250600160008381526020019081526020016000206000820151816000015560208201518160010160006101000a81548173ffffffffffffffffffffffffffffffffffffffff021916908373ffffffffffffffffffffffffffffffffffffffff16021790555060408201518160020190816104629190611886565b5060608201518160030190816104789190611886565b50608082015181600401559050506004600081548092919061049990611a76565b91905055506002339080600181540180825580915050600190039060005260206000200160009091909190916101000a81548173ffffffffffffffffffffffffffffffffffffffff021916908373ffffffffffffffffffffffffffffffffffffffff1602179055503373ffffffffffffffffffffffffffffffffffffffff167faff9b281d8eb03326e395df3b5a56bf096ed220048eb76eeba9d9ef0b8b3eb198584604051610549929190611abe565b60405180910390a250505050565b600081600160008581526020019081526020016000206004015414905092915050565b606060006105886000610f99565b9050600080600080600090505b84811015610635573373ffffffffffffffffffffffffffffffffffffffff16600160006001846105c59190611af5565b815260200190815260200160002060010160009054906101000a900473ffffffffffffffffffffffffffffffffffffffff1673ffffffffffffffffffffffffffffffffffffffff16036106225760018461061f9190611af5565b93505b808061062d90611a76565b915050610595565b5060008367ffffffffffffffff81111561065257610651611051565b5b60405190808252806020026020018201604052801561068b57816020015b610678610fa7565b8152602001906001900390816106705790505b50905060005b85811015610910573373ffffffffffffffffffffffffffffffffffffffff16600160006001846106c19190611af5565b815260200190815260200160002060010160009054906101000a900473ffffffffffffffffffffffffffffffffffffffff1673ffffffffffffffffffffffffffffffffffffffff16036108fd5760018161071b9190611af5565b92506000600160008581526020019081526020016000209050806040518060a0016040529081600082015481526020016001820160009054906101000a900473ffffffffffffffffffffffffffffffffffffffff1673ffffffffffffffffffffffffffffffffffffffff1673ffffffffffffffffffffffffffffffffffffffff1681526020016002820180546107b0906116a9565b80601f01602080910402602001604051908101604052809291908181526020018280546107dc906116a9565b80156108295780601f106107fe57610100808354040283529160200191610829565b820191906000526020600020905b81548152906001019060200180831161080c57829003601f168201915b50505050508152602001600382018054610842906116a9565b80601f016020809104026020016040519081016040528092919081815260200182805461086e906116a9565b80156108bb5780601f10610890576101008083540402835291602001916108bb565b820191906000526020600020905b81548152906001019060200180831161089e57829003601f168201915b505050505081526020016004820154815250508386815181106108e1576108e0611b29565b5b60200260200101819052506001856108f99190611af5565b9450505b808061090890611a76565b915050610691565b50809550505050505090565b6060600061092a6000610f99565b9050600080600080600090505b8481101561098b5786600160006001846109519190611af5565b81526020019081526020016000206004015403610978576001846109759190611af5565b93505b808061098390611a76565b915050610937565b5060008367ffffffffffffffff8111156109a8576109a7611051565b5b6040519080825280602002602001820160405280156109e157816020015b6109ce610fa7565b8152602001906001900390816109c65790505b50905060005b85811015610c1a578760016000600184610a019190611af5565b81526020019081526020016000206004015403610c0757600181610a259190611af5565b92506000600160008581526020019081526020016000209050806040518060a0016040529081600082015481526020016001820160009054906101000a900473ffffffffffffffffffffffffffffffffffffffff1673ffffffffffffffffffffffffffffffffffffffff1673ffffffffffffffffffffffffffffffffffffffff168152602001600282018054610aba906116a9565b80601f0160208091040260200160405190810160405280929190818152602001828054610ae6906116a9565b8015610b335780601f10610b0857610100808354040283529160200191610b33565b820191906000526020600020905b815481529060010190602001808311610b1657829003601f168201915b50505050508152602001600382018054610b4c906116a9565b80601f0160208091040260200160405190810160405280929190818152602001828054610b78906116a9565b8015610bc55780601f10610b9a57610100808354040283529160200191610bc5565b820191906000526020600020905b815481529060010190602001808311610ba857829003601f168201915b50505050508152602001600482015481525050838681518110610beb57610bea611b29565b5b6020026020010181905250600185610c039190611af5565b9450505b8080610c1290611a76565b9150506109e7565b508095505050505050919050565b600080600160008481526020019081526020016000206003018054610c4c906116a9565b9050119050919050565b60606000610c646000610f99565b905060008167ffffffffffffffff811115610c8257610c81611051565b5b604051908082528060200260200182016040528015610cbb57816020015b610ca8610fa7565b815260200190600190039081610ca05790505b50905060008080600090505b84811015610ed057600181610cdc9190611af5565b91506000600160008481526020019081526020016000209050806040518060a0016040529081600082015481526020016001820160009054906101000a900473ffffffffffffffffffffffffffffffffffffffff1673ffffffffffffffffffffffffffffffffffffffff1673ffffffffffffffffffffffffffffffffffffffff168152602001600282018054610d71906116a9565b80601f0160208091040260200160405190810160405280929190818152602001828054610d9d906116a9565b8015610dea5780601f10610dbf57610100808354040283529160200191610dea565b820191906000526020600020905b815481529060010190602001808311610dcd57829003601f168201915b50505050508152602001600382018054610e03906116a9565b80601f0160208091040260200160405190810160405280929190818152602001828054610e2f906116a9565b8015610e7c5780601f10610e5157610100808354040283529160200191610e7c565b820191906000526020600020905b815481529060010190602001808311610e5f57829003601f168201915b50505050508152602001600482015481525050858581518110610ea257610ea1611b29565b5b6020026020010181905250600184610eba9190611af5565b9350508080610ec890611a76565b915050610cc7565b508294505050505090565b6060600160008381526020019081526020016000206003018054610efe906116a9565b80601f0160208091040260200160405190810160405280929190818152602001828054610f2a906116a9565b8015610f775780601f10610f4c57610100808354040283529160200191610f77565b820191906000526020600020905b815481529060010190602001808311610f5a57829003601f168201915b50505050509050919050565b6001816000016000828254019250508190555050565b600081600001549050919050565b6040518060a0016040528060008152602001600073ffffffffffffffffffffffffffffffffffffffff1681526020016060815260200160608152602001600081525090565b6000604051905090565b600080fd5b600080fd5b6000819050919050565b61101381611000565b811461101e57600080fd5b50565b6000813590506110308161100a565b92915050565b600080fd5b600080fd5b6000601f19601f8301169050919050565b7f4e487b7100000000000000000000000000000000000000000000000000000000600052604160045260246000fd5b61108982611040565b810181811067ffffffffffffffff821117156110a8576110a7611051565b5b80604052505050565b60006110bb610fec565b90506110c78282611080565b919050565b600067ffffffffffffffff8211156110e7576110e6611051565b5b6110f082611040565b9050602081019050919050565b82818337600083830152505050565b600061111f61111a846110cc565b6110b1565b90508281526020810184848401111561113b5761113a61103b565b5b6111468482856110fd565b509392505050565b600082601f83011261116357611162611036565b5b813561117384826020860161110c565b91505092915050565b6000806040838503121561119357611192610ff6565b5b60006111a185828601611021565b925050602083013567ffffffffffffffff8111156111c2576111c1610ffb565b5b6111ce8582860161114e565b9150509250929050565b6000806000606084860312156111f1576111f0610ff6565b5b600084013567ffffffffffffffff81111561120f5761120e610ffb565b5b61121b8682870161114e565b935050602061122c86828701611021565b925050604084013567ffffffffffffffff81111561124d5761124c610ffb565b5b6112598682870161114e565b9150509250925092565b6000806040838503121561127a57611279610ff6565b5b600061128885828601611021565b925050602061129985828601611021565b9150509250929050565b60008115159050919050565b6112b8816112a3565b82525050565b60006020820190506112d360008301846112af565b92915050565b600081519050919050565b600082825260208201905092915050565b6000819050602082019050919050565b61130e81611000565b82525050565b600073ffffffffffffffffffffffffffffffffffffffff82169050919050565b600061133f82611314565b9050919050565b61134f81611334565b82525050565b600081519050919050565b600082825260208201905092915050565b60005b8381101561138f578082015181840152602081019050611374565b60008484015250505050565b60006113a682611355565b6113b08185611360565b93506113c0818560208601611371565b6113c981611040565b840191505092915050565b600060a0830160008301516113ec6000860182611305565b5060208301516113ff6020860182611346565b5060408301518482036040860152611417828261139b565b91505060608301518482036060860152611431828261139b565b91505060808301516114466080860182611305565b508091505092915050565b600061145d83836113d4565b905092915050565b6000602082019050919050565b600061147d826112d9565b61148781856112e4565b935083602082028501611499856112f5565b8060005b858110156114d557848403895281516114b68582611451565b94506114c183611465565b925060208a0199505060018101905061149d565b50829750879550505050505092915050565b600060208201905081810360008301526115018184611472565b905092915050565b60006020828403121561151f5761151e610ff6565b5b600061152d84828501611021565b91505092915050565b600082825260208201905092915050565b600061155282611355565b61155c8185611536565b935061156c818560208601611371565b61157581611040565b840191505092915050565b6000602082019050818103600083015261159a8184611547565b905092915050565b7f4c6963656e736520706c6174652063616e6e6f7420626520656d707479000000600082015250565b60006115d8601d83611536565b91506115e3826115a2565b602082019050919050565b60006020820190508181036000830152611607816115cb565b9050919050565b7f56656869636c6520646f6573206e6f7420657869737400000000000000000000600082015250565b6000611644601683611536565b915061164f8261160e565b602082019050919050565b6000602082019050818103600083015261167381611637565b9050919050565b7f4e487b7100000000000000000000000000000000000000000000000000000000600052602260045260246000fd5b600060028204905060018216806116c157607f821691505b6020821081036116d4576116d361167a565b5b50919050565b60008190508160005260206000209050919050565b60006020601f8301049050919050565b600082821b905092915050565b60006008830261173c7fffffffffffffffffffffffffffffffffffffffffffffffffffffffffffffffff826116ff565b61174686836116ff565b95508019841693508086168417925050509392505050565b6000819050919050565b600061178361177e61177984611000565b61175e565b611000565b9050919050565b6000819050919050565b61179d83611768565b6117b16117a98261178a565b84845461170c565b825550505050565b600090565b6117c66117b9565b6117d1818484611794565b505050565b5b818110156117f5576117ea6000826117be565b6001810190506117d7565b5050565b601f82111561183a5761180b816116da565b611814846116ef565b81016020851015611823578190505b61183761182f856116ef565b8301826117d6565b50505b505050565b600082821c905092915050565b600061185d6000198460080261183f565b1980831691505092915050565b6000611876838361184c565b9150826002028217905092915050565b61188f82611355565b67ffffffffffffffff8111156118a8576118a7611051565b5b6118b282546116a9565b6118bd8282856117f9565b600060209050601f8311600181146118f057600084156118de578287015190505b6118e8858261186a565b865550611950565b601f1984166118fe866116da565b60005b8281101561192657848901518255600182019150602085019450602081019050611901565b86831015611943578489015161193f601f89168261184c565b8355505b6001600288020188555050505b505050505050565b61196181611000565b82525050565b600060208201905061197c6000830184611958565b92915050565b61198b816112a3565b811461199657600080fd5b50565b6000815190506119a881611982565b92915050565b6000602082840312156119c4576119c3610ff6565b5b60006119d284828501611999565b91505092915050565b7f506f6c69637920646f65736e2774206578697374000000000000000000000000600082015250565b6000611a11601483611536565b9150611a1c826119db565b602082019050919050565b60006020820190508181036000830152611a4081611a04565b9050919050565b7f4e487b7100000000000000000000000000000000000000000000000000000000600052601160045260246000fd5b6000611a8182611000565b91507fffffffffffffffffffffffffffffffffffffffffffffffffffffffffffffffff8203611ab357611ab2611a47565b5b600182019050919050565b60006040820190508181036000830152611ad88185611547565b90508181036020830152611aec8184611547565b90509392505050565b6000611b0082611000565b9150611b0b83611000565b9250828201905080821115611b2357611b22611a47565b5b92915050565b7f4e487b7100000000000000000000000000000000000000000000000000000000600052603260045260246000fdfea2646970667358221220a45a4e0c4bde6a9f0d881eaa882a9593552ea06cad4e7c2850d64d5aec91ed4f64736f6c63430008120033",
  "linkReferences": {},
  "deployedLinkReferences": {}
}